:020000040000FA
:10200000F0540020D5230000DD23000097A5000038
:1020100000000000000000000000000000000000C0
:1020200000000000000000000000000069C0000087
:1020300000000000000000009323000071DB00009E
:10204000B9AD000063340000798500009F85000071
:10205000C7850000EF850000178600003F8600005E
:10206000678600009DE2000005E3000039E3000000
:102070006DE30000C5E4000025E6000079DC000007
:10208000D5DC00002DDD000075DD000015DC000052
:1020900095B6000061A90000D1BF0000E723000051
:1020A000E7230000E7230000E7230000E723000008
:1020B000E7230000E7230000E7230000E7230000F8
:1020C0000348854600F0DAFF004800476902010036
:1020D000F054002040BA7047C0BA704770B40F4E39
:1020E00001250D4B1C682C4000D034001E600C4EA6
:1020F0009E635D63002A09D0057800BF0D705D6B9B
:102100006D07FCD4401C491C521EF5D100205863B9
:1021100098631C6070BC704700F000405AA5000036
:10212000687A000070B4104E01250E4B1C682C40DC
:1021300000D034001E600D4E9E635D63002A0BD0FC
:102140000125A943058800BF0D805D6B6D07FCD498
:10215000801C891C521EF5D10020586398631C60B6
:1021600070BC704700F000405AA50000687A00007B
:1021700070B4104E01250E4B1C682C4000D034006A
:102180001E600D4E9E635D63002A0BD00325A9439C
:10219000056800BF0D605D6B6D07FCD4001D091D57
:1021A000521EF5D10020586398631C6070BC7047C4
:1021B00000F000405AA50000687A000010B40E4BF1
:1021C0000C490A68D20701D51A0000E000220B6012
:1021D0000A4B8B6302234B63FF230324A04300BFFE
:1021E0000360486B4007FCD40020486388630A60A2
:1021F00010BC704700F000405AA50000687A00004B
:1022000070B4114E01250F4B1C682C4000D03400D7
:102210001E600E4E9E630E4E1E655D63002A09D041
:10222000057800BF0D705D6B6D07FCD4401C491C28
:10223000521EF5D100205863186598631C6070BC6D
:10224000704700BF00F000405AA50000687A000007
:1022500098F9000070B4124E0125104B1C682C40F8
:1022600000D034001E600F4E9E630F4E1E655D63EE
:10227000002A0BD00125A943058800BF0D805D6BA6
:102280006D07FCD4801C891C521EF5D100205863B8
:10229000186598631C6070BC704700BF00F0004078
:1022A0005AA50000687A000098F9000070B4124E38
:1022B0000125104B1C682C4000D034001E600F4ECE
:1022C0009E630F4E1E655D63002A0BD00325A94354
:1022D000056800BF0D605D6B6D07FCD4001D091D16
:1022E000521EF5D100205863186598631C6070BCBD
:1022F000704700BF00F000405AA50000687A000057
:1023000098F9000010B4104B0E490A68D20701D5A5
:102310001A0000E000220B600C4B8B630C4B0B652A
:1023200002234B63FF230324A04300BF0360486BD9
:102330004007FCD400204863086588630A6010BC2D
:10234000704700BF00F000405AA50000687A000006
:1023500098F9000040BA7047C0BA7047084B196836
:102360000868203080F30988022080F31488BFF3C6
:102370006F8F3FBCAE4608BC04BC62B61847000075
:102380007C010020EFF3108072B6704780F3108854
:102390007047EFF309800E4B1A6820381060F0C0C8
:1023A00044464D4656465F46F0C008B572B60EF03C
:1023B000D5FC62B60CBC116808681030F0C8A046A5
:1023C000A946B246BB4680F309882038F0C81847B2
:1023D0007C0100200448804704480047FEE7FEE7F0
:1023E000FEE7FEE7FEE7FEE7D5DB0000C1200000C8
:1023F00030B50B46014600202022012409E00D469D
:10240000D5409D4205D31D469540491B2546954024
:1024100040191546521E002DF1DC30BD70B5002468
:102420002546002801DA01244042002901DA01256D
:102430004942FFF7DDFFAC4200D04042002C00D003
:10244000494270BDF0B51FB40646002082B0054673
:102450004024019100901BE0019922460F4630462E
:1024600000F012FC049A059B801A994110D3104683
:102470001946224600F0F8FB361A8F410197224692
:1024800001200021009F00F0EFFB38184D41009023
:102490002046641E0028DFDC019B00982946324656
:1024A00007B0F0BD38B50446C0681821401E484347
:1024B000A16840183C214843616840183C214843CA
:1024C0002168451860690C21484321694018692139
:1024D000C900401A3021FFF7A1FF114A50434219A9
:1024E000084600921A2902DB0E49511800910C216E
:1024F000FFF794FF0C4A5043009A801800900B4855
:1025000006E0491E425C074B5A43009BD2180092DA
:102510000029F6DC2146684600F0E2FB009838BD51
:10252000801F8607805101008033E101203E0100B9
:1025300003460B439B0703D009E008C9121F08C0DC
:10254000042AFAD203E00B780370401C491C521E87
:10255000F9D27047D2B201E00270401C491EFBD292
:1025600070470022F6E710B513460A46044619469E
:10257000FFF7F0FF204610BD30B505462A460B4652
:1025800010781C78521C5B1C002801D0A042F7D0A8
:10259000002C03D0002802D06D1CEFE7284630BD88
:1025A000421C0178401C0029FBD1801A704730B5CD
:1025B00004460020034600E05B1C934203D2E05C2B
:1025C000CD5C401BF8D030BD03460A780270401C39
:1025D000491C002AF9D1184670470321001D401EEE
:1025E000037812021A43491EF9D510467047034674
:1025F00003220870000A491C521EFAD5184670477B
:102600000FB400B58DB009900B9010A90020009177
:10261000C0430A9000200C90064806900648079098
:102620006A4609A80F9900F0ABFB0DB008BC04B0D6
:1026300018470000A12D0000C12D0000FFB50027A4
:10264000FF4383B000205C6801909E681D46A96925
:102650007F1C049888470090296A88470028F6D193
:102660000098401C0CD0032040028443002E19DD4A
:10267000600614D500982B2809D02D280FD103E02F
:102680000020C04307B0F0BD012080020443A969C7
:102690007F1C04988847761E0090002E02DD00986B
:1026A000302803D00598002825D035E001204002CD
:1026B0000443A969761E7F1C049888470090002E69
:1026C00003DD782805D0582803D00598002810D0BD
:1026D00022E00598002801D010281DD101204002D9
:1026E0008443A969761E7F1C0498884700901020B7
:1026F00002E0082000E00A2005900DE001214902D7
:102700000C43059A0199761E514308180190A96956
:102710007F1C049888470090002E05DD05990098DD
:1027200000F018FB0028E9DAE96904988847A00559
:1027300002D40120C043A5E7E00722D1600611D5ED
:102740006005019800D5404229680A1D2A60096881
:10275000220501D5087014E0220701D5088010E099
:1027600008600EE02868011D29600068210502D577
:102770000199017005E02107019901D5018000E070
:10278000016038467EE7FFB5002083B000905068B6
:102790000190916914460026976804988847054679
:1027A0000C990698084305D009E0A169761C0498A5
:1027B00088470546216A284688470028F5D1681CC5
:1027C00003D00198C00704D017E00020C04307B031
:1027D000F0BD2068011D2160006800900DE00198A7
:1027E000C00704D1009805700098401C0090A169B2
:1027F000761C7F1E049888470546002F1CDD681C48
:102800001AD0069800280FD0E817C00E40194111C1
:102810008A0006994009511840012A1A09680120C6
:1028200090400142DBD107E00C980028D7D1216A03
:10283000284688470028D2D0E169049888470C9838
:10284000002807D1002E05DD0198C00702D10098AD
:1028500000210170A068B84204DD0C98002804D063
:10286000002F02D00120C043B1E73046AFE7024657
:1028700070B54A40D30FDB0740002DD04A002AD064
:10288000010E140E000212020919400A520A84189D
:10289000E50104465443000A120A2E045043A419C9
:1028A0004219200CC543AA18120C0125AD03521C75
:1028B000521912047F39240400D0521C104301D451
:1028C0004000491EC2B20C06C0092018401C400836
:1028D000802A02D003E0002070BD4008400000299B
:1028E00000DA0020184370BD70B502464A40D50F8B
:1028F00040004A00ED0740085208002814D0002A82
:1029000012D0C40DD30D41020120C0055202490A64
:10291000520AE41A091812187D34914201D3641C3A
:1029200000E04900002C01DA002070BD0023914234
:1029300001D3891A0343400849000028F7D1002930
:102940000AD0914202D10121C90705E0914201D28A
:10295000012101E00121C943E005C018401900F040
:1029600041FA70BDF0B507460846584087B0C00F21
:10297000049048000E46590040084908BC1A884196
:1029800005D2384631461E4617460B4602465800C9
:10299000400810434CD0300D039040055900400DC5
:1029A000490D0590401A0290402872DA180301215F
:1029B000000B09050843019004980092002805D0F7
:1029C00001995242002088410092019002984021D2
:1029D0000A1A0199009800F047F905460C466B4623
:1029E00007CB00F062F9C0197141039A0E0D002364
:1029F000D71756401A467A40164344D0049A002A04
:102A00002DD0029A012A039A15DC1205C01A9141B1
:102A100001263605001C7141D20F059ED207009396
:102A2000019202962A46234600F02AFA07B0F0BD2A
:102A300038463146FAE71605224A0F46B218C01A40
:102A4000B74101210905001C4F4100187F41114683
:102A500018187941E20F10436D19644113E0E20741
:102A60006D0815436408C2071443039A0126120532
:102A7000C01A91413605001C7141CE074008304311
:102A80004908C01851412A46234600F0ECF9CDE729
:102A9000FFE7049801224000C117121A00238B415E
:102AA00004983146C417381AA141EEE730B4012426
:102AB000E407634030BC55E730B40124E4076140CB
:102AC00030BC4FE70000E0FFF0B51FB488B00B99B1
:102AD0000998002448400999C00F49004908099104
:102AE000C0070B990090490049080B910999089873
:102AF000A64608431CD00B990A98084318D0099899
:102B000001244000420D4800410D099824050003AE
:102B1000000B204309900B980003000B20430B90FF
:102B200050181C494018002201901446104605E038
:102B3000002001460DB0F0BD032801DA034600E095
:102B400003239C46C11A0AAE0AE05F0008ADED5BA4
:102B50004F00F75B7D430027AA187C41491C5B1E90
:102B60006145F2DD410004AB5A522104120C0A43C4
:102B7000240C401C0828DFDB019802900099704665
:102B800001910090059B049A0799069800F078F946
:102B9000D0E700000DFCFFFF10B500229623114680
:102BA00000F028F910BD00000EB5C217C10F50404B
:102BB000CA0740180021054B0293019200910A4672
:102BC0000B4600F05DF903B000BD000033040000C7
:102BD000410040020122400AD205090E80187F29D7
:102BE00001DA00207047962903DC9622511AC8406A
:102BF000704796398840704770B5CD0F4A00090379
:102C00000123090B1B0519430B4BED070024520D43
:102C10009A4201DA002070BD074B34339A4203DC3C
:102C20009A1A00F031F802E00449511888402C4308
:102C3000F1D0404270BD0000FF030000CDFBFFFF5C
:102C4000C20FD207400040080BD0C10D0723DB01A3
:102C5000C91840020905400A1143C2084007114340
:102C6000704700200146704710B5202A04DB01465A
:102C7000203A9140002010BD914020239C1A034629
:102C8000E3401943904010BD10B5202A04DB0846EC
:102C9000203AD040002110BD0B46D340D040202424
:102CA000A21A91400843194610BD10B5202A06DB30
:102CB000CB170846203A1041C1170B4306E00B46DC
:102CC0001341D0402024A21A91400843194610BD58
:102CD00010B5024900F004F810BD0000C4500020F7
:102CE00070B50C4600683C21FFF782FB21603C2157
:102CF000FFF77EFB61601821FFF77AFB0546A160B4
:102D00000721001DFFF774FBA1610F48A9000818F7
:102D10000E49FFF76DFB0246443288086261E061AC
:102D20003B2802D3910700D0401C0021084B0A46E3
:102D30002161995C814203D8401A521C2261F8E754
:102D4000401CE060204670BD6C0B0000B505000023
:102D50002C3E01003A2800D23038202302469A4304
:102D6000412A01D310463738884201D30020C0439E
:102D700070470000026813785118016018467047C8
:102D800010B5D160044951610449116200211161FB
:102D9000114600F08DF910BD752D0000A130000026
:102DA0004268002A08D001680B78491C002B03D028
:102DB000521E06C0184670470121C160881E704728
:102DC0004268002A0BD0C3680168002B07D18368D2
:102DD0008B4204D0491E521C06C0002070470020C0
:102DE000C0437047002904DA401C490001D1400863
:102DF0004000704770B40024050C05D11024000475
:102E000002D1002921D01124050E01D1000208347D
:102E1000050F01D10001241D850F01D18000A41CE4
:102E2000002801DB4000641C002908D020252E1B4F
:102E30000D46F540A14000D0012129430843010679
:102E40001B1B000ADB1D02D5002070BC7047DB0590
:102E5000181880180029F8DA401C4900F5D170BC18
:102E600040084000704710B5002B08DA0024401CD1
:102E7000614192185B411A4301D14008400010BDE6
:102E8000F0B51FB482B005460C0003D008460CF024
:102E90001FFA02E00CF01CFA203002460090214696
:102EA0002846FFF7E1FE049B059A04460F461843A7
:102EB0001143084314D0184610431BD000984021FA
:102EC0000A1A18460599FFF7DFFE05460E46009AD6
:102ED00005990498FFF7C8FE084305D0012004E0D7
:102EE0002046394607B0F0BD0020C11705430E4308
:102EF0002C43374300990E986305401A7905E40A7C
:102F000000220C43FD0A0A3002D500200146E9E701
:102F10000105101969410C9C0D9D00196941FFF7CD
:102F2000A2FFDFE7F0B50C465C4085B0E40FE40794
:102F300003944C0000266408590094464908024650
:102F40000296224321D062460A431ED06200570DEA
:102F50004A000E032303550D012402462C49240583
:102F6000781B1B0B360B4018234326436146009009
:102F70001C46501AB44103D30098401C009002E054
:102F8000921800985B41002803DA0020014605B042
:102F9000F0BD0020012109050746864611E0644680
:102FA0001D46141BB54106D36546521BB3417446FA
:102FB00007430C43A646CD0740084908284392180A
:102FC0005B4105460D43EAD11046184313D06046D5
:102FD000194650407140084306D06046101AB3416C
:102FE00006D20122002306E000220123DB0702E0D3
:102FF0000122D2435310009874460105381C6141E8
:10300000029C039D00196941FFF72DFFBFE70000F7
:10301000FD0300004A0009030123090B1B051943A6
:103020000A4B10B5520D9A4202DA0020014610BD3B
:10303000064B34339A4203DC9A1AFFF725FE10BD83
:10304000034BD218FFF710FE10BD0000FF03000075
:10305000CDFBFFFF10B5002904DB0124E40740424B
:103060008C412146002B04DB1C460123DB07524226
:10307000A341994200D1904210BD0000064C0125A9
:10308000064E05E0E36807CC2B430C3C9847103410
:10309000B442F7D3FFF718F8284E0100484E01005C
:1030A00010B50F21C0B2490200F09EF910BD00001A
:1030B000F3B58DB000200A9001200B900026084641
:1030C0000C300C4609906269012109989047051E51
:1030D0002ED0252D2DD0216A8847002818D062696E
:1030E000012109989047216A88470028F7D1411E9D
:1030F00062690998904700E0761CA1690D9888479D
:10310000216A88470028F7D1E1690D988847DAE7F6
:10311000A1690D9888470746A84201D1761CD2E7DD
:10312000E1690D9888477F1C02D10A98002877D062
:1031300049E1002762693D463946099890472A28A7
:103140000CD16269012109989047012506E00A2106
:103150004F433F18303FEBD41020054362690121F3
:1031600009989047014630390A2903D29B498F427A
:10317000DEDCECE7E90600D4994F6C280AD04C2835
:1031800010D0682824D06A282ED074280CD07A2831
:103190000AD00DE062690121099890476C2823D07C
:1031A00004211CE020200543626901210998904711
:1031B000A760656065284FD026DC582839D01ADC16
:1031C000452849D012DC252834D04128B0D143E02D
:1031D0006269012109989047682802D008210D43AF
:1031E000E6E70120C002DEE70220DCE7462833D014
:1031F00047282CD130E05B2870D061282CD0632880
:103200006CD0642823D161E06F284FD009DC662898
:1032100022D0672820D0692826D06E2817D12EE02A
:10322000CDE070284DD073286FD075284ED0782807
:103230000DD154E0A1690D9888470546252800D195
:103240006CE7E1690D9888476D1C00D16DE7BAE025
:103250000A224CE00A2252E0012023466A46C0437B
:103260000D99C046C046A3E028464021084360604F
:10327000A807234601D5002239E000223FE0E807F5
:1032800000D020E72068011D21600068290501D5D4
:10329000067018E7290701D5068014E7A90703D5AA
:1032A000F117066041600EE706600CE728464021F2
:1032B00008436060A807234601D5082217E00822CA
:1032C0001DE0484928460840606016E02846402135
:1032D00008436060A8072346BCD5B9E715E0284637
:1032E000402108436060A80707D52346102201202B
:1032F000C0430D99C046C0465AE023461022012023
:10330000C0430D99FFF79AF952E000210C910B464A
:103310000091632802D05B2807D043E0E80601D47F
:103320000120A060012000903CE062690121099821
:1033300090475E2805D101200C90014662690998EA
:1033400090472169002906D10B4601AA8F00491C2C
:10335000D3510829FADB002835D0216900290ED184
:10336000C117C90E09184A11930001AA9A184909F0
:103370004901411A012013688840034313606269C0
:103380000121099890475D28E5D10C98002808D0C4
:10339000002001AB81005A58401CD2435A500828E3
:1033A000F8DB01AB01202246C0430D99FFF7EBF992
:1033B00000280ADA401C06D10B98002803D0002010
:1033C000C0430FB0F0BD0A98FBE7E90702D10A99A4
:1033D000491C0A91361800200B9074E6CCCCCC0C1A
:1033E000FFFFFF7FF1F7FFFF7F2801D9002207E0F1
:1033F000054B42089A5CC00700D112091207120F50
:103400000120904008407047383E010070B58C188C
:103410000578401C6B075B0F01D10378401C2A1113
:1034200006D10278401C03E006780E70401C491C4F
:103430005B1EF9D12B0705D40023521E0DD40B704F
:10344000491CFAE70378401CCB1A921C03E01D7854
:103450000D70491C5B1C521EF9D5A142D8D3002027
:1034600070BD7047FFB50478C37824066340447884
:10347000857824042D026C406340146863400293F5
:103480000479C379240663404479857924042D02A4
:103490006C406340546863400193047AC37A240605
:1034A0006340447A857A24042D026C40634094681A
:1034B00063400093047BC37B24066340447B807B92
:1034C000240400024440D06863404340F020805808
:1034D0009C46401003900298000E8300B748C358E2
:1034E00001980002000E8400B5480059434000983E
:1034F0000004000E8400B348005964462406A50D5C
:10350000B14C655968404340106943400198000E32
:103510008500AA484059009D2D022D0EAE00A84DF1
:10352000AD59684065462D042D0EAE00A54DAD5930
:10353000029E3606B60DA65975406840556968402A
:10354000009D2D0EAE009D4DAD5966463602360EDD
:10355000B7009B4EF6597540029E3604360EB700F2
:10356000984EF659019F3F06BF0DE7597E407540C2
:1035700096697540AE4665462D0EAE008F4DAD592D
:10358000029E3602360EB7008D4EF6597540019EEA
:103590003604360EB7008B4EF659009F3F06BF0D1E
:1035A000E4596640D46975406540039C2032641E2E
:1035B000AC460394002C68D01C0EA5007F4C6459C7
:1035C00005022D0EAE007E4DAD596C4075462D04A2
:1035D0002D0EAE007B4DAD5966463606B70D7A4EC0
:1035E000F65975406C4015686C400294040EA500B5
:1035F000724C645975462D022D0EAE00704DAD59BA
:103600006C4065462D042D0EAE006E4DAD591E0664
:10361000B70D6D4EF65975406C4055686C4001947D
:103620007446240EA500654C645965462D022D0E86
:10363000AE00634DAD596C401D042D0EAE00614DC2
:10364000AD590606B70D604EF65975406C40956849
:103650001B026C4000946446240EA500574C1B0EC0
:1036600064599D00564B00045B59000E5C4083007A
:103670005448C05873461B069D0D534B5B59584028
:103680004440D0684440A44625E71C0EA5004D4C9C
:10369000645905022D0EAE004B4D240EAD59FF2688
:1036A0003604240635406C4075462D042D0EAE00C0
:1036B000424DAE59FF252D022E4074406646360617
:1036C000B70D3F4EF65D744016687440260E0E70BE
:1036D000260C4E70260A8E70CC70040EA600394C53
:1036E000A45976463602360EB700374E240EF659E8
:1036F0002F0224063E40744066463604360EB7005C
:103700002E4EF6592E4074401E06B70D2C4EF65D17
:10371000744056687440260E0E71260C4E71260AAF
:103720008E71CC717446240EA600264CA4596646B0
:103730003602360EB700244E240EF6592F02240608
:103740003E4074401E04360EB7001C4E1B02F65954
:103750001B0E2E4074400606B70D194E0004F65D90
:10376000000E744096687440260E0E72260C4E723F
:10377000260A8E72CC726446240EA600114CA459FF
:103780009E00114B240E9B592E02240633405C40B0
:1037900083000A48C0582840444070460006830D04
:1037A0000748C05C4440D0684440200E0873200C99
:1037B0004873200A8873CC73FFBD0000D81C010039
:1037C000D8200100D8240100D8280100F0B500233A
:1037D00000280AD0002A08D0802909D0C02907D0A3
:1037E000CC1FF93C04D0981EF0BD0020C043F0BDB2
:1037F0001446803480297DD0C0297CD00E252567D1
:103800000578C4782D066C40457886782D043602FC
:1038100075406C4014600579C4792D066C4045797B
:1038200086792D04360275406C405460057AC47A5E
:103830002D066C40457A867A2D04360275406C4020
:103840009460057BC47B2D066C40457B867B2D04F4
:10385000360275406C40D46080297DD0067CC57CE2
:1038600036067540467C877C36043F027E407540B4
:103870001561067DC57D36067540467D877D36041B
:103880003F027E4075405561C02966D0067EC57EE8
:1038900036067540467E877E36043F027E40754080
:1038A0009561067FC57F36067540467F807F36046A
:1038B000000246407540C81FD561F9387ED1D169F4
:1038C00010680C02240EA500664C684E6459FF2750
:1038D000240E240660400C04240EA500624C64599A
:1038E000FF252D042C400D06AD0D75593F023D40BE
:1038F0006C4001E043E044E060400C0EA5005C4CED
:10390000645D9D0060405B4C5B1C645960401062CC
:10391000546844405462956865409562D068684038
:10392000D062072B4AD0050EAF004E4D1469ED59F9
:103930002D0E2D066C4005022D0EAF004A4DED599F
:10394000FF273F043D4007043F0EBF00F659FF2705
:103950003F023E40754001E015E048E06C40000643
:10396000850D4348405D4440146350696040506396
:103970009469444061409463D16320329FE70A25F3
:103980003DE70C253BE7394FFF252D02D068116834
:103990000402240EA600334CA459240E24066140D0
:1039A0000404240EA600304CA459FF2636043440EB
:1039B0000606B60DBE592E40744000E04FE061404F
:1039C000040EA6002A4CA45D9E006140294C5B1C9D
:1039D000A4596140116154684C4054619168614040
:1039E00048409161D0610A2B39D01032CEE71F4D8B
:1039F000FF273F02506911680402240EA600194CEB
:103A0000A459240E240661400404240EA600164C7A
:103A1000A459FF26360434400606B60DAE593E4082
:103A200074406140040EA600114CA45D9E006140EC
:103A3000104C5B1CA4596140916154684C40D461A6
:103A4000916861401162D4684C405462082B06D0E2
:103A50001169614048409162D0621832CAE7002083
:103A6000F0BD0000D8240100D8280100D81C0100B6
:103A7000D8200100D83D010002460021303A092A31
:103A800001D8D1B20BE00246413A052A01D83738B5
:103A900004E00246613A052A01D85738C1B2084607
:103AA0007047000070B586B016460C4605461422D5
:103AB00010A16846FEF73CFD00231846002C01D0FB
:103AC000002E02DC002006B070BD6A460BE0E15C0F
:103AD0000909515C2954E15C401C0907090F515C3C
:103AE0002954401C5B1CB342F1DB002129542846B9
:103AF000E9E7000030313233343536373839414266
:103B0000434445460000000008B51B4901204871A8
:103B100004F0F6FC09F0A0FB05F09CFD01469520A1
:103B2000C0000090154B16A216A00BF0ADFB05F0DF
:103B300029FB06F035F908F05FF90AF0C7F905F03E
:103B400089FD0146194800900C4B0DA218A00BF0FE
:103B50009BFB07F0A7FD05F07DFD01461348074BD1
:103B6000801C009006A21BA00BF08EFB01210846D2
:103B700006F09AFC08BD0000D4010020D516010013
:103B8000583600005B25735D5B25735D3A25732015
:103B900028256429204170706C69636174696F6EB7
:103BA0002073746172742E0A00000000AD040000DE
:103BB0005B25735D5B25735D3A2573202825642999
:103BC00020496E69745254432073746172742E0AD2
:103BD000000000005B25735D5B25735D3A25732053
:103BE0002825642920496E69745254432046696E21
:103BF000697368210A000000FFB5054669208649FF
:103C00006843441890206843D43146188BB08348E9
:103C100009964019203800907F4BC27FA800D4330A
:103C20000E99C718693C283E8A4205D105F0A2FDCD
:103C3000F96D401A78287DD905F09CFDF86500994A
:103C40000E98C87769212046FEF78BFC05F002FD2F
:103C5000014673480090734B73A2019573A00BF05B
:103C600013FB0A22201D0D99FEF762FC01206070F3
:103C7000A070784F2570787920743846203021461E
:103C8000C27D60310191CA70417E007E090201430C
:103C90002046633000900171090A417169205E4A33
:103CA00068438018797908380890022964D01E206A
:103CB000A0730020E07320463122B91D1130FEF7B9
:103CC00037FC05F057FD214643310291FEF78FFC8A
:103CD000074605F0BFFC2D22120101460092514B10
:103CE000019751A25CA00BF0CFFA05A9284605F078
:103CF000D7FC08980027077047702146473107987E
:103D0000FEF775FC21464B310798FEF770FC214603
:103D100042310C980874000A48740C204034207515
:103D20003D486775D430407BA075284606F0A2F860
:103D3000029800E013E0FEF750FC3849891E486005
:103D40003060B772F77237738036B7710998603098
:103D50000771477105F080F900200FB0F0BD05F044
:103D600079FC01462E482F4B083000902EA248A027
:103D70000BF08AFA0120F0E7F879BA7901021143D1
:103D8000787A3A7A000210430C9A5043FEF730FBDF
:103D9000A073000AE073F879B97900020843A075AE
:103DA000000AE075787A397A000208432076000A22
:103DB00060760198C078032813D100984179027980
:103DC00008021043797A3A7A090211434843F97993
:103DD000BA7909021143FEF721FB08990871000A1C
:103DE000487105F037FC01460898427903791002C2
:103DF0001843E27BA37B12021A4303900C9B0848F2
:103E000001931930029200900495064B06A22A48AD
:103E10000BF03AFA55E700008009002072000020FC
:103E2000AE020000781A0100583600005B25735D71
:103E30005B25735D3A2573202825642920BFAACA13
:103E4000BCB3E4B5E7202C67756E5F6964203D2044
:103E500025640A00A30200205B25735D5B25735D6A
:103E60003A2573202825642920BFAACABCB3E4B52B
:103E7000E7CAB1BCE47047756E496E666F2D3E733C
:103E8000746172745F74696D65203D2025640A0059
:103E90005B25735D5B25735D3A25732028256429B6
:103EA00020BFAACABCB3E4B5E7D0F2C1D0BAC5CF2F
:103EB000E0CDAC2E0A00000040470100FFB58BB0FA
:103EC0000024601E04901E4618461499FEF749FB14
:103ED0000025DEE032200CF0FFF9432718E06846A9
:103EE000007B002812D01499A14202DD3055641CD9
:103EF0000CE005F0AFFB01466846007B0290684B82
:103F000068A20097019468A00BF0BEF93E2C26D061
:103F100003A9704804F00EFC0028E0D030460C994C
:103F2000FEF72AFB00287BD06BA10B98FEF724FB41
:103F300000282FD0182104A8FEF713FB04AA69A1BA
:103F40003046FEF75DFB04A8FEF72AFB684C1428F8
:103F500011D3142204A92046FEF7EAFA0FE005F077
:103F600079FB0146482000904D4B4EA2019461A080
:103F70000BF08AF9D2E704A92046FEF725FB05F0ED
:103F800069FB01465F200090454B46A2019460A06A
:103F90000BF07AF966A10B98FEF7EEFA00282AD00A
:103FA00066A13046FEF7E8FA002824D065480A22C8
:103FB000F11D0446FEF7BCFA05F04CFB01467720E4
:103FC0000090374B37A201945FA00BF05DF96B4D69
:103FD0000521E81C0CF086F800280AD12146E81CCF
:103FE00009F0A8FC05F02EF80822294664A007F085
:103FF0007DF905F059F864A10B98FEF7BDFA002889
:1040000036D064A13046FEF7B7FA002830D005F06C
:1040100021FB01469B20224B22A20196009000E04A
:1040200035E05EA00BF030F9664C0521601D0CF008
:1040300059F800281CD1052120460CF053F800281F
:1040400016D1F11D601D09F075FC607A2070207A90
:104050006070E079A070A079E070607980098001DB
:10406000207105F00DF80522611D57A007F03EF9FB
:1040700059A10B98FEF780FA002804D0594A5AA19A
:104080003046FEF7BDFA002004900FB0F0BD323587
:10409000ADB20D98854200D21CE70498F5E7000008
:1040A000201C0100583600005B25735D5B25735DA5
:1040B0003A2573202825642920636E743D256420E9
:1040C0002C2063203D202564202C6572726F722E97
:1040D0000A0000008C0F002041542B564552533FDC
:1040E000000000002B564552533A20257300000073
:1040F000E70100205B25735D5B25735D3A25732026
:104100002825642920636E74203D2025640A000060
:104110005B25735D5B25735D3A2573202825642933
:1041200020626C7565207665723A25732E0A000050
:1041300041542B4E414D453F000000002B4E414D58
:10414000453A0000EE0B00205B25735D5B25735D37
:104150003A2573202825642920C0B6D1C0C3FBD7D7
:10416000D62067436867496E666F2E626C75655F1F
:104170006E616D65203A25732E0A00002300002031
:10418000C9E8B1B8BAC5000041542B475749443F6C
:10419000000000002B475749443A00005B25735D3F
:1041A0005B25735D3A257320282564292032344726
:1041B000CDF8B9D8B5D8D6B747574944203A257372
:1041C0002E0A00008D020020B1BEB5D8322E346711
:1041D000B5D8D6B70000000041542B444556543F93
:1041E000000000006C0100202B444556543A202565
:1041F000640000003EB5C41C05F02CFA014663784B
:104200002278FF205A306C460DC4034B03A204A051
:104210000BF03AF83EBD000084190100583600004A
:104220005B25735D5B25735D3A2573202825642922
:1042300020CAD6BBFAD3A6B4F0BCC6B7D1C4A3B0CB
:10424000E567756E69645B25645D2C20BDE1B9FB93
:10425000D6B55B25645D200A00000000F0B59DB076
:1042600003AD023570216846EE1EFEF77AF9264F3F
:10427000694638788873781CFEF7AFF9691CFEF739
:10428000B6F978796946C874022802D0012802D0AC
:1042900004E0042402E0B879C400641C2246B91D7D
:1042A000A81DFEF745F9184829192030C27D8A71EA
:1042B000427E037E12021A43CA71427E037E1002BE
:1042C0001843000A0872EE206A46D0720620107366
:1042D000E41DE1B251733046C91C03F071F86A461F
:1042E000527BF11C50546A46527B314607A0121D86
:1042F00006F0FCFF6A46527B69460020121D08F05A
:104300009FF81DB0F0BD0000A302002073656E642D
:1043100020436F73745F54656D706C6174652064C5
:104320006174613AB8F8CAD6BBFAB7A2CBCDBCC6A5
:10433000B7D1C4A3B0E5000070B50446C01C9EB060
:104340000678A17801F0E4FD0546702101A8FEF78A
:1043500008F9E01C002D3BD00021017046700220BE
:10436000A0700521204603F02BF8A278E11C5054E0
:10437000A2786B46121D5A73100A987303A821463F
:104380000330FEF7D5F86B46997B587B0A0202434F
:1043900001A9002008F054F8022D1BD12F2006F0AF
:1043A000EBFE05F057F90146FF20CC3000900A4B98
:1043B0000AA20BA00AF068FFFF20F5300BF08CFF7B
:1043C000BFF34F8F10490F48C860BFF34F8FFEE710
:1043D0000121C2E71EB070BDC019010058360000AF
:1043E0005B25735D5B25735D3A2573202825642961
:1043F00020426C7565D6D8C6F4CFB5CDB3A3A10A5B
:10440000000000000400FA0500ED00E0F0B5477B75
:104410000026C51C9DB00446062F0FD0281DFEF7B0
:10442000DCF800902846FEF7D8F8697A2A7A090263
:1044300011433B46009A0AF017FB0BE005F00AF91E
:104440000146FF209D300090144B15A215A00AF0E4
:104450001BFF0126702101A8FEF783F8E6700120FA
:10446000A0700421204602F0ABFFA278E11C50545A
:10447000A2786B46121D5A73100A987303A821463E
:104480000330FEF755F86B46997B587B0A020243CE
:1044900001A9002007F0D4FF1DB0F0BDAC19010048
:1044A000583600005B25735D5B25735D3A257320EC
:1044B000282564292066775F76657273696F6E20A0
:1044C000697320657175616C2C63616E6E27742051
:1044D000757067726164652E0A0000007CB50D4638
:1044E000044605F0B7F86278014640480192009012
:1044F0003F4B40A240A00AF0C7FE607803000AF0DC
:10450000FEFE16170C1718212A333C45545D171769
:10451000171766176A1717176E172A46214642A003
:1045200006F0E4FE204608F0FBFC1C2006F024FE0A
:104530007CBD2A46214642A006F0D8FE204600F067
:10454000ADFB7CBD2A46214643A006F0CFFE2046A7
:1045500000F0CCFC7CBD2A46214645A006F0C6FEF4
:10456000204600F05BFA7CBD2A46214646A006F0B4
:10457000BDFE2046FFF73EFE7CBD2A4621464BA0ED
:1045800006F0B4FE204600F017F97CBD06F0BAFB39
:1045900003F08AF806F07AFB2A4621464AA006F084
:1045A000A5FE2046FFF732FF7CBD2A4621464EA0DD
:1045B00006F09CFE2046FFF7BFFE7CBD2A46214642
:1045C0004FA006F093FE204600F0C0F87CBD2A46BE
:1045D000214652A006E0204600F06EFD7CBD2A4632
:1045E000214654A006F082FE7CBD00004902000076
:1045F000F2190100583600005B25735D5B25735D81
:104600003A2573202825642920BDD3CAD5B5BDC05D
:10461000B6D1C0CAFDBEDD202C20636D64203D20D4
:104620003078253032580A00BDD3CAD5B5BDCAD6B8
:10463000BBFAC0B6D1C0CED5CAD6B0FC00000000CF
:10464000BDD3CAD5B5BDCAD6BBFAC0B6D1C0BFAA04
:10465000C6F4B3E4B5E70000BDD3CAD5B5BDCAD62C
:10466000BBFAC0B6D1C0CDA3D6B9B3E4B5E700005C
:10467000BDD3CAD5B5BDCAD6BBFAC0B6D1C0D0C4A9
:10468000CCF8B0FC00000000BDD3CAD5B5BDCAD679
:10469000BBFAC0B6D1C0B5C4BCC6B7D1C4A3B0E5DF
:1046A000C9CFB4ABD3A6B4F000000000BDD3CAD5C7
:1046B000B5BDCAD6BBFAC0B6D1C0C7EBC7F3BCC63E
:1046C000B7D1C4A3B0E50000BDD3CAD5B5BDCAD625
:1046D000BBFAC0B6D1C0B9CCBCFEC9FDBCB6BFAA3E
:1046E000CABCCDA8D6AA0000BDD3CAD5B5BDCAD60E
:1046F000BBFAC0B6D1C0B9CCBCFECFC2B7A20000D5
:10470000BDD3CAD5B5BDCAD6BBFAC7EBC7F3C0B6D1
:10471000D1C0B6CFBFAAC1ACBDD30000BDD3CAD5EE
:10472000B5BDC9E8D6C3B3E4B5E7D7AEB1E0BAC505
:1047300000000000BDD3CAD5B5BDCAD6BBFAC0B60D
:10474000D1C0D4B6B3CCBFD8D6C6000030B59DB06A
:10475000044670216846FDF704FF0025E57001203E
:10476000A0700421204602F02BFEA278E11C5054D8
:10477000A2786946121D4A72100A887202A8214660
:104780000330FDF7D5FE6946887A497A02020A436A
:104790006946002007F054FEFF20F5300BF09CFD29
:1047A000012008F00BFB034885731D2006F0E4FC94
:1047B0001DB030BDD40B002038B5C41C001DFDF762
:1047C0000CFF05460A48FDF708FF85420FD0002878
:1047D0000DD004F03FFF0146FF208A300090054BCA
:1047E00005A206A00AF050FD2078FFF737FD38BD7E
:1047F000A402002096190100583600005B25735D65
:104800005B25735D3A2573202825642920D3EBCAE4
:10481000D6BBFABCC6B7D1C4A3B0E54944B2BBD23B
:10482000BBD1F92C20B8F8CAD6BBFAB7A2CBCDBC05
:10483000C6B7D1C4A3B0E5200A000000F7B5012433
:104840000E46A70392B015463946154805F063FC9D
:1048500002200BF041FD1298FDF7A2FE82B2114832
:10486000129909F0F6FE002E0CD0002D0AD040203F
:10487000009001AB2A4631461298FFF71FFB002833
:1048800007D007E03946064805F047FC002015B080
:10489000F0BD00243946024805F03FFC2046F6E70B
:1048A000001301408C0F0020F0B5A3B0012470214B
:1048B00002A8FDF756FE1EA9204604F0F1FE05AE43
:1048C0000236002069468875F51E04F0A1FE69468F
:1048D0003230C8750220087621AF69202146414355
:1048E000304808188038007E002806D0032804D0FD
:1048F000012812D0022810D01EE004F0ABFE0146C1
:1049000021200090284B29A2019429A00AF0BCFC88
:10491000002039192039C8770EE004F09BFE0146CB
:1049200026200090204B21A2019429A00AF0ACFC83
:10493000012138192038C1772D480179601E0918E6
:1049400060002018315439192039C97F801941700D
:1049500018A9097E002900D00121641CE4B28170ED
:10496000022CBAD9EE202870052068700920A870A2
:104970000C21284602F024FDAA78E91C5054AA789C
:1049800002A90020121D07F05BFD04F063FE014642
:1049900035200090044B05A216A00AF075FC23B048
:1049A000F0BD000080090020F71801005836000013
:1049B0005B25735D5B25735D3A257320282564298B
:1049C00020B2E5CDB75B25645DBFD5CFD00A20000E
:1049D0005B25735D5B25735D3A257320282564296B
:1049E00020B2E5CDB75B25645DD5BCD3C30A2000FA
:1049F000D40100205B25735D5B25735D3A25732030
:104A00002825642920B8F8CAD6BBFAB7A2CBCDC0F6
:104A1000B6D1C0D0C4CCF8B0FC0A20007CB5C51C0F
:104A2000C079002809D004F015FE0146FF20283087
:104A300000902A4B2AA22BA04DE02846FDF7CDFD81
:104A400000283FD004F096FE044604F003FE014621
:104A5000FF2017300090214B21A201942AA00AF0D8
:104A600013FC2846FDF7B9FD064604F0F3FD0146A8
:104A7000FF2018300090194B19A201962EA00AF0C1
:104A800003FC2846FDF7A9FDA04201D2201A00E050
:104A9000001B1E2821DD04F0B7FC00281DD128468C
:104AA000FDF79BFD401C08F0FDF92E4901204870E0
:104AB00004F0D0FD0146FF2020300090074B08A2F3
:104AC00029A008E004F0C6FD0146FF202430009034
:104AD000024B03A22CA00AF0D7FB7CBD6F1901008A
:104AE000583600005B25735D5B25735D3A257320A6
:104AF0002825642920BDD3CAD5C0B6D1C0D0C4CC26
:104B0000F8CAA7B0DC2E0A005B25735D5B25735DD8
:104B10003A2573202825642920D0C4CCF8BBF1C8DD
:104B2000A1B1BEB5D8CAB1BCE454696D65203D20C1
:104B30005B25645D0A0000005B25735D5B25735D8A
:104B40003A2573202825642920BDD3CAD5D0C4CCEA
:104B5000F8CAB1BCE454696D65203D205B25645DF5
:104B60000A000000540A00205B25735D5B25735D1D
:104B70003A25732028256429207365742072746394
:104B80002074696D652E0A005B25735D5B25735D7E
:104B90003A2573202825642920BDD3CAD5C0B6D1B3
:104BA000C0D0C4CCF8CAB1BCE4CEAAC1E32E0A007E
:104BB000FFB59FB00546C41C209869214843284989
:104BC00017464618702103A8693EFDF7CAFC2098D5
:104BD0002070002F01D0012000E000206070A7703D
:104BE00004F0C8FDE11CFDF702FD30464B30FDF737
:104BF000F4FCE071000A207230464330FDF7EDFC12
:104C00000646E01CFDF7E9FC044604F023FD0146DE
:104C1000FF2002306F4651C7124B13A213A00AF0B7
:104C200033FB0920A8700C21284602F0C9FBAA78A2
:104C3000E91C5054AA786B46121D5A75100A9875D3
:104C400005A829460330FDF773FC6B46997D587D16
:104C50000A02024303A9002007F0F2FB23B0F0BDD3
:104C60008009002056190100583600005B25735D4D
:104C70005B25735D3A2573202825642920BFAAC6C9
:104C8000F4B3E4B5E7D3A6B4F0CAB1BCE4205B2525
:104C9000645D2C205B25645D20000000F1B582B0CE
:104CA000029D5548E97800791222081A401CC4B2C6
:104CB0006920524960434618E91C51A0ED1C693E29
:104CC00006F014FBB07800280CD004F0C3FCB278D6
:104CD0000146534801920090524B53A253A00AF050
:104CE000D3FA81E004F0E8FCF02810D304F0E4FCEF
:104CF000054604F0AFFC014649484A4B0830009095
:104D000049A2019557A00AF0BFFAFBB210E0204675
:104D100002F094FA06000DD004F09CFC014611202C
:104D2000400100903F4B40A25BA00AF0ADFAF3B205
:104D300001225BE01220214641432F480E18B47532
:104D4000E87AF0753046183007460146687B2A7BC2
:104D500000021043FDF74BFC687B2A7B0102594897
:104D600011438160007B6921484324490A2241188C
:104D7000681C6539FDF71BFC002809D0304620303F
:104D800081790A220A318171001F691CFDF7D0FB6D
:104D9000194D3846FDF721FC01464A4881600473ED
:104DA000F27D42732620835D32461C322046FEF798
:104DB00023FF064604F04EFC01461948194B2830E3
:104DC000009019A2019640A00AF05EFA002E09D1C7
:104DD0002979601E0818C0B208F018FB4249AB20C0
:104DE0000919C87604F060F900231A462146029892
:104DF000FFF7DEFEFEBD0000D40100208009002088
:104E0000C9A8C2EBC0B6D1C0BFAAC6F4B3E4B5E727
:104E1000C7EBC7F3BDD3CAD5B1A8CEC4000000000C
:104E200011020000E0190100583600005B25735D97
:104E30005B25735D3A2573202825642920C7B9CDE9
:104E4000B7D5FDD4DAB3E4B5E77047756E496E6641
:104E50006F2D3E69735F6C6F61645F6F6E202564B8
:104E6000200A00005B25735D5B25735D3A25732086
:104E70002825642920486973746F72794F726465BC
:104E8000724E756D20697320746F206D616E793A72
:104E90002564200A000000005B25735D5B25735DBF
:104EA0003A257320282564292063616C6C204368AF
:104EB00065636B53746172745061726120666169DD
:104EC0006C2E0A00540A00205B25735D5B25735D20
:104ED0003A2573202825642920726573756C742027
:104EE0003D2025640A000000DD020020F0B50546E3
:104EF000A3B000201E90E81C1F90EF7869204B495A
:104F000078434618693E002F01D0022F0FD904F0D4
:104F1000A1FB1F9A01461278FF20DE30019200901B
:104F2000434B44A244A00AF0AFF901201E90702127
:104F300002A8FDF716FBEC1C20A9384604F0B0FBD4
:104F40001320A8701E98607004F014FCA11CFDF7DB
:104F50004EFB304643300746FDF73FFB2146093103
:104F6000FDF745FB30464B30FDF737FB01466173DB
:104F7000601C090A0246A173787B3B7B010219433E
:104F8000E173090A2174787D397D000208431074A9
:104F9000000A5074A01CFDF720FB074604F05AFBE2
:104FA0000146FF20F0300090214B22A201972BA058
:104FB0000AF06AF92299A171090AE17101202072AF
:104FC0001320A8701621284602F0FAF9AA78E91CE5
:104FD0005054AA786B46121D5A74100A987404A88B
:104FE00029460330FDF7A4FA6B46997C587C0A02E7
:104FF000024302A9002007F023FA1E98002813D1CB
:105000001620403630750620707504F023FB0146EB
:10501000FF20FF300090064B06A21EA00AF034F9D4
:105020001F98007806F0C4F923B0F0BD8009002075
:10503000CF190100583600005B25735D5B25735D59
:105040003A2573202825642920706F72743D2564E9
:105050002C6572726F722E0A000000005B25735D72
:105060005B25735D3A2573202825642920CAD6BBA9
:10507000FAC0B6D1C0BDE1CAF8B3E4B5E7C7EBC723
:10508000F3CAB1BCE454696D65203D205B25645DC5
:105090000A0000005B25735D5B25735D3A25732074
:1050A0002825642920CAD6BBFAC0B6D1C0BDE1CA42
:1050B000F8B3E4B5E70A0000F1B586B0069C69468E
:1050C000E0790873A0794873607988732079C87390
:1050D000E07808742B4D0026052203A9681DE41C06
:1050E000FDF765FA002831D00126052203A9681DC5
:1050F000FDF71EFA24490020FDF779FA2249002025
:10510000091FFDF774FA03F0B1FF2078287060786A
:105110006870A078A870E078E87020791B4F80094B
:105120008001287168798006400E401E387104F0B5
:1051300091FA01463A796B7994206F460DC7144B6A
:1051400014A215480AF0A0F803F09AFF05220D49B1
:1051500012A006F0CBF80522214616A006F0C6F8EC
:105160000021069800F034F87D20C0000BF046FDC9
:10517000002E05D015496022486A904320304862CD
:1051800007B0F0BD8D0200202F000020D4010020C8
:105190002E19010058360000B0440100C0B6D1C03D
:1051A000C9E8D6C3CDF8B9D8322E3467B5D8D6B74A
:1051B00000000000C0B6D1C0C9E8D6C3B1BEB5D8A2
:1051C000322E3467B5D8D6B700000000540A00204C
:1051D00038B50446C1700C202546A0700B3D0F2148
:1051E000204604F0ABFAA278E11C5054A27829467C
:1051F0000020121D07F024F904F02CFA0146742057
:105200000090034B03A204A00AF03EF838BD000052
:1052100016190100583600005B25735D5B25735D30
:105220003A2573202825642920C9E8D6C3322E34B4
:1052300067B5D8D6B7B7B5BBD8D3A6B4F00A2000A7
:10524000F8B500F015FC00241A4D1B4E7D273F01D8
:105250002878142148438019008918A182B218A027
:10526000FFF7ECFA002814D038460BF035F8641C30
:10527000022CEDDB04F0EEF90146FF2004300E4B6A
:105280000090D53310A211A009F0FEFF0020C0430A
:10529000F8BD04F0DFF90146FC20074B0090D53340
:1052A00009A213A009F0F0FF2878401C2870002004
:1052B000F8BD000068010020581B01004F4B0000A2
:1052C00041540D0A00000000583600005B25735D54
:1052D0005B25735D3A2573202825642920626C754F
:1052E00065207265736574206661696C2E0A000022
:1052F0005B25735D5B25735D3A2573202825642942
:1053000020626C75652074657374206F6B2E0A00C3
:1053100038B50C46054604F09DF90146FF20903053
:105320000090054B05A206A009F0AEFF0022214621
:10533000284601F09DFE38BD611C01005836000072
:105340005B25735D5B25735D3A25732028256429F1
:1053500020696E2E0A00000000B5002201F088FED0
:1053600000BD00B5002201F083FE00BD38B50C463B
:10537000054604F06FF90146FF2097300090054B79
:1053800005A206A009F080FF00222146284601F070
:105390006FFE38BD6E1C0100583600005B25735D42
:1053A0005B25735D3A257320282564292042756C9E
:1053B000654D6F64654765744E616D6520BBF1C8CE
:1053C000A1C0B6D1C0C3FBD7D60A000000B50022E9
:1053D00001F04EFE00BD00B5002201F049FE00BD07
:1053E000FEB50024254F264EFC75264D2046347010
:1053F000C0B2142148434019C0680A2148430AF04A
:105400006BFF3178142041436858002807D04919B0
:105410000A89496892B2FFF711FAC0B2029004F00B
:1054200019F901463278FF20AB3001920090164BFB
:1054300016A217A009F028FF30781421484340191C
:105440000269002A06D0214602989047002813D00E
:10545000641CE4B230780A28CAD104F0FBF8014693
:10546000FF20BA300090084B08A213A009F00CFFEF
:10547000A520F8750020FEBD0024EBE7740A00208B
:1054800068010020581B01007E1C010058360000F6
:105490005B25735D5B25735D3A25732028256429A0
:1054A0002067426C7565496E697453746570203D60
:1054B000202564200A0000005B25735D5B25735D79
:1054C0003A2573202825642920626C756520696E51
:1054D0006974206F6B2E0A00F8B5154D0E4668688A
:1054E000002814D0134F00243A4613A113A0FFF74D
:1054F000A5F9002816D0012E03D97D20C0000AF09E
:10550000EBFE641C032CEFDB0020C043F8BD04F06D
:10551000A1F80146FF20363000900B4B0BA20CA0E7
:1055200009F0B2FE2878401C28700020F8BD000069
:1055300068010020B80B00004F4B000041542B4481
:105540004556543D300D0A00491C010058360000F4
:105550005B25735D5B25735D3A25732028256429DF
:1055600020626C756520646576743D302C6E6F200A
:105570006E65657420746F2073657420646576743D
:105580003D312E0A000000007FB5274D0521681D22
:105590000AF0A8FD254C002821D020460522691DCF
:1055A0000830FDF704F8002823D00522691D01A862
:1055B000FEF778FA012101A807F02CFC002822D080
:1055C00004F048F80146FF202E300090184B19A235
:1055D00019A009F059FE0020C04304B070BD04F0CA
:1055E00039F80146FF201A300090114B11A21B48D8
:1055F00012E004F02FF80146FF20213000900C4B00
:105600000CA217A008E004F025F80146FF202A307C
:105610000090074B07A220A009F036FE2078401C1E
:1056200020700020D9E700008D02002068010020D2
:105630003C1C0100583600005B25735D5B25735DE3
:105640003A25732028256429207365742067776DB7
:105650006163206661696C2E0A000000984D0100AC
:105660005B25735D5B25735D3A25732028256429CE
:105670002067776D6163206973206F6B2C206E6FDC
:10568000206E65656420746F207365742067776D84
:1056900061632E0A000000005B25735D5B25735D6E
:1056A0003A25732028256429207365742067776D57
:1056B000616320737563636573732E0A00000000D5
:1056C00070B586B00020364C0290039004900521FE
:1056D000E01C0AF007FD334D002839D00522E11CFB
:1056E00002A8FEF7DFF903F0B5FF0146FF20733093
:1056F0002D4C00902D4B2EA201942EA009F0C4FD3C
:1057000003F0A8FF0146FF20743002AE0090274B43
:1057100027A201962FA009F0B7FD0A2202A9204670
:10572000FCF745FF00281DD002A807F01BFB00284E
:1057300024D003F08FFF0146FF20833000901B4BE5
:105740001BA22BA009F0A0FD0020C04306B070BD35
:1057500003F080FF0146FF206C300090134B14A231
:105760002C4808E003F076FF0146FF2077300090D8
:105770000E4B0FA228A009F087FD0BE003F06AFF93
:105780000146FF207E300090084B09A2019630A010
:1057900009F07AFD2878401C28700020D6E7000028
:1057A0002300002068010020EE0B0020551C0100A2
:1057B000583600005B25735D5B25735D3A257320C9
:1057C0002825642920C0B6D1C0C3FBD7D6203A25EE
:1057D000732E0A005B25735D5B25735D3A2573208C
:1057E00028256429206E616D65203A25732E0A00F4
:1057F0005B25735D5B25735D3A257320282564293D
:1058000020736574206E616D65206661696C2E0A77
:1058100000000000E04D01005B25735D5B25735DBA
:105820003A25732028256429206E616D65206973EF
:10583000206F6B2C206E6F206E65656420746F2066
:1058400073657420626C7565206E616D652E0A004B
:105850005B25735D5B25735D3A25732028256429DC
:1058600020736574206E616D653D2573206F6B2E0E
:105870000A00000010B50A2100200AF097FD0A4B2B
:1058800040221860002018775862194618622C319F
:10589000181D02F06BFF0449FF226C3108460132EB
:1058A0005C3802F063FF10BD7C07002008B50025BE
:1058B00000F0F4F8FFF7DEFF2F4E60273446FF3488
:1058C0008134FFF78DFD706AB843706264200AF07E
:1058D00003FDB08C4006800F01280ED026482030F2
:1058E000C07DA52815D003F0B5FE0146FF20CB30C2
:1058F0000090224B22A223A03AE003F0ABFE014627
:10590000FF20A83000901D4B1DA228A009F0BCFC70
:10591000D7E731488079002808D10BF081FD40009D
:10592000C82803D308F0B2FA0BF07AFD00F0BEF8F5
:1059300008F0AAFE06F07AF801F04EFDA07B0128DF
:10594000C4D10BF06DFD40002449401B8842BDD3FB
:105950000BF066FD45000020A073FEF7A5FF03F0E5
:1059600079FE0146FF20C5300090044B04A21CA024
:1059700009F08AFCAAE70000540A0020661701001B
:10598000583600005B25735D5B25735D3A257320F7
:10599000282564292042756C655265636F6E6E65BB
:1059A0006374206572726F722E0A00005B25735D4E
:1059B0005B25735D3A2573202825642920B8B4CE71
:1059C000BBC0B6D1C0C4A3BFE9B1EAD6BED2D1B480
:1059D000F2BFAA210A000000D401002070170000C5
:1059E0005B25735D5B25735D3A257320282564294B
:1059F00020426C756553656E6448656172744265DA
:105A000061742E0A000000007CB50024009403217C
:105A100068460194018001268670134D067169461F
:105A2000284604F07FFB0094B1036846019401808E
:105A3000867006710D4E6946304604F073FB0121F5
:105A40000094C9036846019401808470C47069465B
:105A5000304604F067FB0221284604F05EFB01217A
:105A6000284604F05AFB7CBD0011014000130140A0
:105A700070B5094C0221204604F04DFB7D252D0117
:105A800028460AF029FC0221204604F046FB28465D
:105A90000AF022FC70BD00000011014010B5FFF7B4
:105AA000B3FFE120400208F05FFD10BDF0B5C5B0C6
:105AB000002005AC0546A74E0490BCE0A749A648C7
:105AC00048600A200BF09AF8B078030009F017FC40
:105AD000080510273B4F7C8FBCB26846007BAB2883
:105AE000EBD10120B070AB2121707081F170A2E088
:105AF0006846007BCD2802D0AB280AD09AE002206D
:105B0000B070CD2060707089401C7081F078CD300D
:105B100003E00121AB2020707181F0708BE06846BA
:105B2000017B70892154401C7081B5816846007BDF
:105B3000002806D00321B170F1780918F170307196
:105B400079E00421F7E769467089097B2154401CFC
:105B500070816946F078097B4018F070B089401C6C
:105B600080B2B081062866D1B58104202AE069465A
:105B70007089097B2154401C80B270816946F2789B
:105B8000097B5118F170B189491C89B2B181022990
:105B900051D120181E38417F027F08021043B08186
:105BA000F0280ED9B57003F055FD0146B289FF20EB
:105BB0002C30019200906A4B6AA26BA009F064FB42
:105BC00039E00520B07036E069467089097B2154C0
:105BD000401C70816946F078097B4018F070B089EC
:105BE000401E0004000CB08125D10620EAE768467B
:105BF000017B70892154401C70816846007BF178DC
:105C0000884203D10720B070B58114E003F022FD73
:105C100001466B46FF201B7BF27844306F460DC770
:105C20004F4B50A25CA009F02FFB728921466AA05D
:105C300005F05CFBB57003A96A4802F07BFD002803
:105C400000D13BE745B0F0BDB089401C80B2B081C7
:105C50000228F0D13079012814D02179E0780A02A5
:105C60000243FF20E71C0130824243D903F0F2FCDB
:105C70000146FF2066300090394B3AA25AA009F045
:105C800003FBDFE7A07A617A00020843FF21671C6B
:105C90000131884209D903F0DDFC0146FF20523072
:105CA00000902F4B2FA25BA0E9E7B58164480190DB
:105CB00014E02018C17A019802F065FD002815D083
:105CC00003F0C8FC0146FF205D300090244B25A264
:105CD0005CA009F0D9FA02200AF090FF797A387AAC
:105CE00009020143B0898142E3D826E0B089401C13
:105CF000B081F3E7611D5FA005F0F8FAB58115E00A
:105D0000201841794E480C3802F03DFD00281DD086
:105D100003F0A0FC0146FF2071300090104B11A24F
:105D200059A009F0B1FA02200AF068FF79783878B2
:105D300009020143B0898142E2D8B5700498401C41
:105D40000006000E049000D175E77BE7B089401C87
:105D5000B081EBE7440000203EAA000000000140B3
:105D60005A170100583600005B25735D5B25735D93
:105D70003A25732028256429206C656E3D25642C06
:105D8000BDD3CAD5CAFDBEDDB0FCB5C4B3A4B6C888
:105D9000B4EDCEF3200A00005B25735D5B25735DD7
:105DA0003A2573202825642920BDD3CAD5CAFDBE53
:105DB000DDD0A3D1E9B4EDCEF32C73756D203D2079
:105DC000307825782C706B742073756D203D2030F1
:105DD0007825782E0A0000003234475265637654E5
:105DE00061736B008C0F00205B25735D5B25735D19
:105DF0003A2573202825642920C0B6D1C0CAFDBE2B
:105E0000DDB3A4B6C8BDD3CAD5B4EDCEF3A3A10A01
:105E1000000000005B25735D5B25735D3A257320F0
:105E20002825642920322E3447CAFDBEDDB3A4B62E
:105E3000C8BDD3CAD5B4EDCEF3A3A10A00000000BB
:105E40008C0700205B25735D5B25735D3A2573200D
:105E50002825642920322E34672062756666206FFB
:105E600076657220666C6F77206572726F722E0A8B
:105E700000000000426C75655461736B20627420F1
:105E800072656376000000005B25735D5B25735DC2
:105E90003A2573202825642920627420627566667D
:105EA000206F76657220666C6F77206572726F72F4
:105EB0002E0A000038B5044611341530FCF78DFB6E
:105EC00005462046FCF789FBA17A0091617A237A86
:105ED0000A021A4301462B460C4809F0D5F904F092
:105EE00011FF01F0D3FB04F005FF201DFCF775FB4B
:105EF00005462046FCF771FB617A227A09021143BC
:105F0000A37A2A4608F0B0FD38BD000054450100D0
:105F1000FEB5491E454D8EB2A97A6A7A0902044639
:105F200011432A460078641C6D1C012968D1202E7B
:105F300066D31146C8722078AA2802D16078552805
:105F400009D003F087FB0146FF2041300090384B19
:105F500038A239A011E027461037022235A1B81D1A
:105F6000FCF725FB00280CD003F074FB0146FF2052
:105F70003B3000902E4B2FA238A009F085F900206D
:105F8000FEBD3846FCF729FB2849FCF730FB787941
:105F9000397900020843254F32463871000A78717A
:105FA0002146203A2031002003F03CF901281DD081
:105FB000687A297A00020843401C2872000A687235
:105FC0003846FCF70AFB044603F044FB01467879A7
:105FD0003B7902021A43FF20363002920090144BA4
:105FE000019414A226A009F04FF917E003F032FB48
:105FF0000146FF20323000900D4B0EA22EA0BCE7D0
:10600000D17A81420CD103F025FB0146FF204830B4
:106010000090074B07A231A009F036F90120FEBD20
:10602000D0723146204608F04DFEFEBD380C0020EF
:106030003D1B0100583600005B25735D5B25735DD9
:106040003A257320282564292066772068656164D5
:10605000206572726F722E200A0000005B25735D4E
:106060005B25735D3A2573202825642920667720F7
:106070006E616D65206572726F722E200A000000DD
:106080005B25735D5B25735D3A25732028256429A4
:10609000206677206865616420696E666F3A73696F
:1060A0007A653D25642020636865636B53756D3D9B
:1060B0002558200A000000005B25735D5B25735D99
:1060C0003A2573202825642920666C617368322084
:1060D000D0B4CAFDBEDDB4ED2E200A005B25735D91
:1060E0005B25735D3A25732028256429206375722A
:1060F00072656E7420706163616B676520697320DF
:10610000726570656174207472616E736D6174651F
:106110002E2E0A00F8B5002605F05EFB34460C234F
:106120005C43B1004A4B494A0091E5185058EB884E
:10613000C0185050474988421AD34549F2001831D7
:1061400089180F684968381800235941404B3F4F60
:1061500018339A1803C2009B0022FA503D4A0023CC
:10616000FCF770F93A460099083A51584018A8606F
:10617000394900986B8840183849354A8B4209D311
:106180008178491CC9B28170052903D3115D0423AC
:10619000194311556B88192189018B4229D84178FF
:1061A000491CC9B24170052903D3135D08273B433D
:1061B00013556B88FF272D37BB4211D20178491C3C
:1061C000C9B20170052914D3115D08231943244F66
:1061D0001155FF23796A813399438031796208E050
:1061E000491CC9B24170052903D3115D0823194325
:1061F00011556B881B495B181B498B420CD200213F
:1062000081704170115DF3231940154F1155FF2323
:10621000796A813399437962AB8814498B420ED3F2
:10622000C178491CC9B2C170052903D3105D022190
:1062300008431055761C022E00D26FE7F8BD0021EE
:10624000C170105DFD210840F3E7000088000020C8
:10625000000C0020407E050078000020280A000085
:10626000540A0020BFF9FFFFE70300007017000089
:1062700070B59CB00D460446164670216846FCF782
:1062800070F968460474C5730222334669461046A5
:1062900006F02AFC1122694602A005F027F81CB07E
:1062A00070BD0000CAD5B5BD5236BAF3CCA8B5C48E
:1062B000BCF8C8A8BAF32C20B7B5BBD8BCF8C8A89E
:1062C000BDE1B9FBD3A6B4F000000000FEB5054661
:1062D000041D81781B481C4F80791C4E81420AD1D5
:1062E00003F048FA21783A79891A89008919896D69
:1062F000401A782825D903F03DFA014622783879EA
:10630000121A9200921991650E49AA788A71227820
:106310000021101A0E4A8018017504F0BFFC607845
:10632000AE2802D16B2004F0F5FC03F093F922783B
:106330000146084801920090074B08A2084808F05F
:10634000A3FFFEBD58000020D4010020540A002005
:10635000DD020020BF020000CE1701005836000009
:1063600038420100FEB50646041D18223146AFA092
:1063700004F0BCFFB34821780079B54D081A401CE1
:10638000C7B2B1490020C919C874B048B178C07902
:10639000814207D103F0EEF9B9004919C96B401ADF
:1063A000782877D903F0E6F9A949BA005118C863EB
:1063B000A648B278C2716078A54D0300283508F070
:1063C0009EFF0403EFC5F0EFE01CFCF706F9009018
:1063D00003F040F9009A01469E48019200909E4BBE
:1063E0009EA29FA008F050FFE01CFCF7F6F8984929
:1063F0006428086208D2284604F0EEFB092004F065
:10640000BBFE00202870FEBD03F056F9F02819D31A
:1064100003F052F9054603F01DF901468D488E4BF5
:106420000D3000908DA2019595A008F02DFF8548B4
:1064300021780079B278081A401CC1B20120FFF718
:1064400017FFFEBD8249012048737E4821780079FC
:106450007F4A091A491C11732178B278081A401C26
:10646000C1B20020FFF704FF284604F0B5FB7848CE
:10647000006A06F01BFF002028707448007801288D
:1064800010D003F0E7F801467248734B403073A216
:10649000009000E0BDE089A008F0F6FE6B49002006
:1064A0000870FEBD6A49086AC82800D9C8208860FB
:1064B00067486921007B8A4A414389188039097EEF
:1064C000002912D003F0C6F8014661486922007B1A
:1064D000614B5043824A80188038007E5D4A0190AB
:1064E000283200925DA27FA073E000F0A7FE002892
:1064F000D4D1284604F070FB207806F0B0FF0020CD
:1065000053492870087B12224E4B4243D518A87578
:10651000487BE875284618308A6801461046FCF723
:1065200066F8B1782620415528461C300A22E11D24
:10653000FBF7FEFF122047434248012438184475F8
:1065400002F0B2FD664840304474FEBD3D482178FB
:106550000079081A401CC1B20020FFF789FE2846C6
:1065600004F03AFB092004F007FE00202870A07810
:1065700000280BD003F06EF801463648364B5230F7
:10658000009036A262A008F07FFEFEBDE01CFCF782
:1065900024F82F490862092004F0EEFDFEBD00E05A
:1065A0001AE0284821780079081A401CC1B200205E
:1065B000FFF75EFE284604F00FFB0A2004F0DCFD26
:1065C0000020287003F046F80146224862785D30CA
:1065D00019E008F059FEE1E71A4821780079081A15
:1065E000401CC1B20020FFF743FE284604F0F4FA35
:1065F0000A2004F0C1FD0020287003F02BF80146AA
:10660000144862786A3001920090134B13A24CA098
:10661000DFE703F01FF80D4A0146D2790D480192D9
:10662000703000900C4B0DA254A0D2E7CAD5B5BD76
:106630005236BAF3CCA8B5C4BFA8BCF8C8A8CFECF2
:10664000D3A60000D4010020DD0200205800002065
:10665000540A0020DD020000E31701005836000054
:106660005B25735D5B25735D3A25732028256429BE
:1066700020BFA8C6ACD3E0B6EE5B25645D0A00007F
:106680005B25735D5B25735D3A257320282564299E
:1066900020C0FACAB7B6A9B5A5CCABB6E0B2BBD498
:1066A000CAD0EDB3E4B5E7486973746F72794F727D
:1066B0006465724E756D3A2564200A005B25735D32
:1066C0005B25735D3A257320282564292063617258
:1066D0006420726571206661696C2E0A00000000FA
:1066E000800900205B25735D5B25735D3A2573206F
:1066F0002825642920B2E5D7F9B1BBD5BCD3C3673F
:10670000756E5F73746174655B25645D200A0000BB
:106710005B25735D5B25735D3A257320282564290D
:10672000206D6F6E746820636172642063686172AB
:1067300067652074696D6573206572722E0A0000AA
:106740005B25735D5B25735D3A25732028256429DD
:106750002063617264206964656E7469667920667D
:1067600061696C7572652C20726573756C743D255A
:10677000642C6572726F722E0A0000005B25735DD7
:106780005B25735D3A2573202825642920D0F2C14A
:10679000D0BAC5CFE0CDAC2053657269616C4E753F
:1067A0006D203D2025642E0A0000000000262B4CA1
:1067B0002B4F00F025FF00F02BFF2A48807900289E
:1067C00008D10AF02DFE4000C82803D304F0DEFFF4
:1067D0000AF026FE02F0BEFF012803D109F0FCFCFE
:1067E000012810D002F0B6FF012808D102F0C2FF44
:1067F00005461D48FBF7F1FE281A0F2803D802F0C2
:10680000B1FF012805D11A2004F0B6FC002005F0E4
:1068100073FEE07BAE2803D0207CAE2807D00FE0CB
:1068200001220021104606F053FEE67305E0012226
:106830000021022006F04CFE26740CA008F024FD76
:1068400009F06AFC7869000704D40DA008F01CFD6B
:1068500001F01EFF642009F03FFDAAE7D40B0020E1
:1068600000F40040D4010020F5020020674368676F
:10687000496E666F2E67756E5F69645B305D0A00F6
:106880005BBDF8C8EB456E7465725F5374616E64EE
:1068900042792C2043617264417574685461736B52
:1068A0005D0A000070B505463E4885423FD83E4926
:1068B0002846FBF79DFD00063C4C000E38D01F30EB
:1068C000C0B204F059FCFA2009F006FD2B2004F0B8
:1068D00053FCFA2009F000FD21462846FBF788FD0D
:1068E0000A21FBF785FD002907D01F31C8B204F04B
:1068F00043FCFA2009F0F0FC23E064212846FBF772
:1069000077FD0A21FBF774FD0C002CD01F2004F04A
:1069100033FCFA2009F0E0FC1F34E0B204F02CFC58
:10692000FA2009F0D9FC1EE0142004F025FC70BD0B
:1069300021462846FBF75CFD0106090E2AD00129F5
:10694000D3D12C2004F018FCFA2009F0C5FC6421F6
:106950002846FBF74DFD0A21FBF74AFD002902D02E
:106960001F31C8B2DAE70A212846FBF741FD0A21A8
:10697000FBF73EFD0C00D7D02E2004F0FDFBFA20E3
:1069800009F0AAFC1F34E0B204F0F6FBFA2009F08B
:10699000A3FCC9E764212846FBF72AFD1F30C0B2DB
:1069A000BCE700009F86010010270000E8030000FC
:1069B00000B5B5B0D2236A460449032004F05AFF5B
:1069C000024806F089FB35B000BD000080090020B8
:1069D000F0B58DB00020CB4C0C90A0886421FBF763
:1069E00007FD0546208A6421FBF702FD2A1821468F
:1069F0000878097B642A234604D3102210431870B8
:106A0000114303E0EF221040187011401973012563
:106A10006920BD496843441890206843D431471821
:106A200009A92846693C283F02F03AFEA0780028D0
:106A30007DD008A8007900287AD0C10705D020466B
:106A40000A2140300175012162E0400707D5204648
:106A500013214030017541753B2004F08DFB08A8DF
:106A60000079800707D52046122140300175417515
:106A70003B2004F081FB08A80079C0063DD5A14861
:106A800064218088FBF7B4FC06469E486421008A96
:106A9000FBF7AEFC301864282FD33B2004F06CFBCE
:106AA0004B20C00001F01CFD02F0D4FD954A0146C8
:106AB000138AFF209288DD306E460DC6934B94A258
:106AC00094A008F0E1FB90484330FBF786FD0646B2
:106AD0008D48AC30FBF781FD864207D28A481221EF
:106AE000A03041775421095D817706E08648122164
:106AF000403001755421095D417508A800790007EF
:106B000007D593A008F0C0FB142120464030017542
:106B1000417502F09FFD014608A80079FF22F2327C
:106B200000920290794B019579A28C4801E0DEE059
:106B30001AE008F0A9FB3620894968434618314617
:106B400020314D76052088760020C87608A81C31B3
:106B50000079FBF74CFD31460120403108700220DE
:106B6000487002F0A1FA3FE0204647300390FBF75F
:106B700034FD0B9988421CD2091A20464330017615
:106B8000090A064641760398FBF727FD019002F0BB
:106B900061FD0146707E337E02021A430B9B714EEB
:106BA000029303920096594B59A26F4808F06CFB70
:106BB00014E0884212D9064602F04CFD0146694AAB
:106BC0000B98521D00920290504B019650A267A064
:106BD00008F05AFB03990B98FBF709FD6846418DB5
:106BE000E8B2224602F034FE26464036307D0C28BC
:106BF00011D002F02FFD01465A48337DA2780D30A6
:106C00006E460DC6414B42A2644808F03DFBE8B217
:106C100004F0CEFB1FE038890A21FBF7E9FB0C9951
:106C20005F4A4118914215D31520307507207075C1
:106C3000E8B204F0BDFBE8B205F0ACFB02F00AFDDF
:106C400001464848314B1C30009031A255A008F055
:106C50001BFB00E00C9002F08DFD3968401A3C28C7
:106C600042D902F087FD2646613638607078317867
:106C700000020843401C3070000A707002F07AFD78
:106C80000746204643300446FBF7A7FC381A3C2150
:106C9000FBF7AEFB074602F0DDFC01467078337867
:106CA00002021A43607E237E00021843637B267B28
:106CB0001B02334306900797059308926846038D9D
:106CC000428D64204243607D247D00022043642481
:106CD000604302AE01950DC622480C4B283000904F
:106CE0000BA23D4808F0D0FA0A2009F0F5FA6D1C15
:106CF000022D00DC8CE604490C98D43148800DB09C
:106D0000F0BD0000000C002080090020391A0100AD
:106D1000583600005B25735D5B25735D3A25732053
:106D2000282564292067756E5B305D2E637572724D
:106D3000656E74203D2025642C67756E5B315D2E79
:106D400063757272656E743D25642E0A0000000042
:106D5000C9E8B1B8C7B7D1B9210A0000284B010072
:106D6000D401002009020000C04501005B25735DCD
:106D70005B25735D3A25732028256429207374618F
:106D80007274456C65633D25642C656C65633D25B7
:106D9000642C6572726F722E0A000000604601005A
:106DA000980800005B25735D5B25735D3A257320B1
:106DB00028256429205361766520B7A2CBCDBDE19B
:106DC000CAF8B3E4B5E7CDA8D6AA20746F20666CE4
:106DD000617368372E0A00003C4A0100F0B50020BC
:106DE0008DB001240B906920854960434518693DA9
:106DF000A87800287ED090206043D43146185836B9
:106E0000B079002815D002F0B5FCB168401A3C28D2
:106E10000FD902F01FFC0146FF2052300090794B41
:106E200079A27AA008F030FAE0B203F023F800204B
:106E3000B07101200B90287C022805D0012859D17F
:106E40004220405D0028D5D02E464036B07EC0009E
:106E500047192846613009900A9041780278080263
:106E60001043F97DBA7D090211434843797E3A7E89
:106E7000090211431237FBF7D1FAF21C0592069270
:106E80001073000A507302F0E5FB42350146079586
:106E90000895687C2A7C03021343069A507B157B75
:106EA00002020A982A43457800782D020543FF2004
:106EB0005F300393029200900195524B52A25A48C0
:106EC00008F0E2F9069A089D507B117B0002084306
:106ED000697C2A7C09021143884244D302F04AFCAF
:106EE00005460598FBF779FB281A3C21FBF780FA49
:106EF000054600E06CE002F0ADFB01460798427CDD
:106F0000007C120202430598437B007B1B02034373
:106F1000FF20653001930292009003950494394B51
:106F200039A2424808F0B0F90798417C027C080277
:106F3000059910430873000A487300203075032038
:106F40007075E0B204F034FAE0B205F023FA02F012
:106F500081FB0146FF206C3000902A4B2AA234A00E
:106F600008F092F934E009984178027808022D215E
:106F70001043090188422BD9F879BA7901021143EB
:106F80003C20414378793A7900021043354A504316
:106F9000FBF744FA05990873000A48730C20307512
:106FA000052070750598FBF718FB054602F052FBAB
:106FB0000146FF2088306E4631C6124B12A22A4885
:106FC00008F062F9E0B204F0F3F9E0B205F0E2F99A
:106FD000641C022C00DC06E70B9800280DD002F0A0
:106FE000C9FB224C6168401A4B210901884204D92F
:106FF00002F0C0FB606002F02FF80DB0F0BD0000A1
:10700000800900202C1A0100583600005B25735DB2
:107010005B25735D3A2573202825642920B4F2BFCF
:10702000AABCCCB5E7C6F700844B0100A04701001D
:107030005B25735D5B25735D3A25732028256429E4
:10704000205361766520B7A2CBCDBDE1CAF8B3E489
:10705000B5E7CDA8D6AA20746F20666C617368333B
:107060002E0A0000C0A80000D84A010070000020CD
:10707000074A002806D00A2901D9002010700020F4
:10708000C04370471078401C10700020704700000B
:107090006801002070B50AF0C3F90D4C4000A168EA
:1070A0000C4D884205D90AF0BBF9A1684000401A8E
:1070B00005E00AF0B5F9A1684000401A401EA84258
:1070C00001D305F0E7FE0AF0ABF94000A06070BD07
:1070D000040000208813000010B586B002A902F059
:1070E000DFFA0024E44300280AD002F0B3FA014694
:1070F0000E4800900E4B0FA20FA008F0C5F811E04B
:107100006846007A00280ED002F0A4FA6A460146CA
:10711000127A4920C00001920090054B05A211A0EF
:1071200008F0B2F8204606B010BD00004202000090
:107130004A1A0100583600005B25735D5B25735DBC
:107140003A257320282564292063616C6C204765EB
:107150007447756E537461747573206661696C2E23
:107160000A0000005B25735D5B25735D3A25732083
:1071700028256429207374617475733D25642C651A
:1071800072726F722E0A0000F8B57D270024FF008E
:107190000125ED03184E0AE00A2009F02FFD641CBA
:1071A000BC4204D302F056FA01464B2013E02946B4
:1071B000304602F0ADFF0028EED1322009F01EFD6E
:1071C00012E00A2009F01AFD641CBC420CD302F044
:1071D00041FA014656200090084B09A2094808F0E0
:1071E00053F80020C043F8BD2946304602F090FF16
:1071F0000028E6D1F8BD0000001301402617010069
:1072000058360000483F010070B50646002002468F
:107210000446034609E0B55C002D02D0FF2D02D0E4
:1072200002E0641C00E05B1C521C8A42F3D38B42D8
:1072300001D08C4200D1012070BD00003EB5044653
:1072400069202D4960434518601E693D02280FD30F
:1072500002F000FA014629480090294B29A2019426
:1072600029A008F011F8662003F054FD05203EBD6A
:107270006878002814D0032812D002F0EBF90146F8
:1072800068781E4A0290D21D00921D4B01941DA2E7
:1072900026A007F0F9FF0E2003F06EFF03203EBD8D
:1072A00030484579012D12D0022D10D002F0D2F9CC
:1072B00001461248124B0F30009012A201952AA0ED
:1072C00007F0E2FF682003F025FD02203EBD2046C6
:1072D000FFF702FF0028F9D002F0BCF90146074889
:1072E000074B1630009007A22AA007F0CDFF6920B7
:1072F00003F010FD01203EBD800900206702000060
:10730000581A0100583600005B25735D5B25735DDC
:107310003A257320282564292067756E5F69643DCE
:1073200025642C6572726F722E0A00005B25735DF6
:107330005B25735D3A2573202825642920B2E5D7A3
:10734000F9B1BBD5BCD3C367756E202564206275C7
:1073500073792C67756E5F73746174653D25642E57
:107360000A000000A30200205B25735D5B25735DAE
:107370003A2573202825642920476574436F737468
:107380004D6F646528293D25642C6572726F722EDD
:107390000A0000005B25735D5B25735D3A25732051
:1073A0002825642920436865636B47756E537461B3
:1073B0007475206661696C2C6572726F722E0A009A
:1073C000034610B50020024603E09C5C2018C0B2C2
:1073D000521C8A42F9DB10BD70B502F005FA012893
:1073E00013D10AF01DF80E4C4000216B0D4D884260
:1073F0000CD30AF015F8216B4000401A0CE003F0A2
:1074000081FC0AF00DF84000206370BD0AF008F816
:10741000216B4000401A401EA842F0D270BD00000F
:10742000540A00203075000010B5D2B051AA12A93C
:1074300050A806F02FFE00285FD1042212A947A011
:1074400003F054FF022250A947A003F04FFF12ABF4
:10745000484A0221002003F035FB002820D00024F8
:107460000E940F941094F42113A81194FBF779F85B
:10747000404813AA80211630FCF7A8F90D94129801
:107480000A900B940C9413AA0EA90AA8FBF7EAFF22
:1074900051AA12A950A806F0FDFD00280FD02AE03D
:1074A00002F0D8F80146FF20AD300090324B33A2F5
:1074B00033A007F0E9FE1A2003F05EFE1BE00694FD
:1074C00007940894022250A937A0099403F00EFFF4
:1074D00012AB0EAA0221002003F0F4FA00280ED00D
:1074E00002F0B8F80146FF20D7300090224B23A2CB
:1074F00030A007F0C9FE06F0EAFD52B010BD06A9A3
:10750000092003F01BFB0028F5D108AC22786C465B
:10751000A07FE17F6B4607C3637F227F2FA13548A1
:1075200007F0C2FE02F096F808AC23786C460146DC
:10753000E27FA07F647F029403AC0DC46C46227F7F
:10754000FF20CC30019200900B4B0CA22A4807F090
:107550009BFE2A48A5218174CDE700005049434392
:107560005F5549443A000000504943435F4154513C
:1075700041313A001D000020491601005836000034
:107580005B25735D5B25735D3A257320282564298F
:10759000207468697320697320536563726574434E
:1075A0006172642E0A000000504943435F41545108
:1075B00041323A005B25735D5B25735D3A2573208C
:1075C00028256429204D69666172655F417574687C
:1075D000206572726F722E0A00000000253032782A
:1075E000253032782530327825303278253032789F
:1075F00000000000620A0020783E0100D40B002049
:107600000248416A4908490041627047540A002013
:1076100002480222416A914341627047540A0020A5
:10762000034A002140008018C173084670470000DB
:10763000DD020020034A00214000801881730846C3
:1076400070470000DD02002010B509F0E9FE024994
:107650004000086310BD0000540A002070B50D46BC
:10766000044604F0DFF9A8430146204607F02FFC4A
:1076700070BD10B580210A2005F01FFC0A2004F01F
:10768000D1F9002800D0012010BD000002480822D6
:10769000416A914341627047540A00200149002029
:1076A00008707047540A002002481022416A914332
:1076B00041627047540A002002480422416A114383
:1076C00041627047540A00201FB54B20744C0002E1
:1076D00006F09EFE0127734E00257348406900079F
:1076E00004D472A007F0D0FD00F0D2FF78497748AB
:1076F000486002F081F804F057FE03F033FE04F016
:1077000063FBC2E03078030007F0F9FD0C070FBF00
:10771000BF1A2A39606D7A92A5BF6846007BAA28F5
:10772000EFD1207077803770AFE06846017B552934
:10773000E7D10420307070882154401C70800DE027
:107740006846017B70882154401C7080B088401CC2
:1077500080B2B0800528D4D305200EE0B58094E037
:107760006846017B70882154401C7080B088401CA2
:1077700080B2B0800528C4D306203070EEE768469A
:10778000017B70882154401C80B27080B188491CF4
:1077900089B2B180022978D321181E39487F097F28
:1077A00000020843B08096280CD301F053FFB28842
:1077B00001466A2001920090464B47A247A007F07D
:1077C00063FD61E00720307075705EE06946708887
:1077D000097B2154401C708069467078097B4018F1
:1077E0007070082022E069467088097B2154401C93
:1077F000708069467078097B40187070092015E028
:107800006846017B70882154401C708068467178FE
:10781000007B08187070B088042801D3001F00E0B6
:1078200000200004000CB08013D00A2030702CE03F
:107830006846017B70882154401C708068467178CE
:10784000007B08187070B088401E0004000CB080E7
:107850001BD10B20EAE769467078097B884204D186
:107860007188204600F064FA0EE001F0F3FE6B46EA
:107870001B7B727801469A20029301920090154B6F
:1078800015A21EA007F000FD357003A9294800F0DD
:1078900051FF002800D135E7642008F01DFD1CE7EA
:1078A000E80800205200002000F400405BBDF8C84A
:1078B000EB456E7465725F5374616E6442792C207F
:1078C000436F6D5461736B5D0A0000003EAA0000B7
:1078D0000000014072170100583600005B25735DFF
:1078E0005B25735D3A25732028256429206C656E1D
:1078F0003D25642C6572726F722E0A005B25735DE4
:107900005B25735D3A257320282564292073756DE6
:107910003D253032782C706B742073756D3D2530A9
:1079200032782C6572726F722C64726F7020706B7B
:10793000742E0A00A40F002030B59DB00D460446F9
:1079400070216846FAF70DFE6846C473057408484E
:107950000222017A491CCBB203726946082005F065
:10796000C3F81122694603A003F0C0FC1DB030BD6E
:10797000DD0200202F2FBCC6B7D1C4A3B0E5CFC213
:10798000B7A2D3A6B4F00000F0B589B000210691EB
:107990009249041D007909790026401A401CC0B2A2
:1079A000079001F057FE627901468D4801920090E0
:1079B0008C4B8DA28DA007F067FC6079012813D055
:1079C000022874D001F046FE01466279BF20C00053
:1079D00001920090834B84A28EA007F055FCCD202D
:1079E00003F098F904206AE001F034FE0146627A5F
:1079F0007B480192401D00907A4B7BA28FA007F03C
:107A000043FC607A062811D901F024FE0146627A0F
:107A10007348019208300090724B73A296A007F051
:107A200033FCCB2003F076F9012048E0002629E062
:107A3000F00005190A3501F00DFE8446E879A979B0
:107A40000002084369792A7909021143EA78AB7880
:107A500012021A436B782F78059061481B023B4352
:107A6000113002930392049100905E4B5EA2614636
:107A700001968B4807F008FCE879A97900020843D1
:107A800007D0761C607AB042D2DC0698002818D065
:107A900088E001F0DFFD0146E879AA790002104391
:107AA0004F4A504B1432009201904FA200E018E070
:107AB0007CA007F0E9FBCC2003F02CF90220069013
:107AC00070E0824D214631220931A81DFAF730FDC0
:107AD00001206871601CFAF780FD691CFAF787FDC8
