:020000040000FA
:040FC000F2FFFFFF3E
:020000040000FA
:1020000030550020CD230000D52300001FBA00006A
:1020100000000000000000000000000000000000C0
:1020200000000000000000000000000015DA0000C1
:1020300000000000000000008B23000079FA00007F
:102040005DC400005B340000F193000015940000B3
:102050003B9400006194000087940000AD94000060
:10206000D394000081020100E9020100190301007C
:1020700049030100A5040100090601007DFB0000E1
:10208000D9FB000031FC000075FC000019FB0000CA
:102090008DCE000089BE00007DD90000DF23000046
:1020A000DF230000DF230000DF230000DF23000028
:1020B000DF230000DF230000DF230000DF23000018
:1020C0000348854600F0D6FF00480047212701005D
:1020D0003055002040BA7047C0BA704770B40F4EF8
:1020E00001250D4B1C682C4000D034001E600C4EA6
:1020F0009E635D63002A09D0057800BF0D705D6B9B
:102100006D07FCD4401C491C521EF5D100205863B9
:1021100098631C6070BC704700F000405AA5000036
:10212000687A000070B4104E01250E4B1C682C40DC
:1021300000D034001E600D4E9E635D63002A0BD0FC
:102140000125A943058800BF0D805D6B6D07FCD498
:10215000801C891C521EF5D10020586398631C60B6
:1021600070BC704700F000405AA50000687A00007B
:1021700070B4104E01250E4B1C682C4000D034006A
:102180001E600D4E9E635D63002A0BD00325A9439C
:10219000056800BF0D605D6B6D07FCD4001D091D57
:1021A000521EF5D10020586398631C6070BC7047C4
:1021B00000F000405AA50000687A000010B40E4BF1
:1021C0000C490A68D20701D51A0000E000220B6012
:1021D0000A4B8B6302234B63FF230324A04300BFFE
:1021E0000360486B4007FCD40020486388630A60A2
:1021F00010BC704700F000405AA50000687A00004B
:1022000070B4114E01250F4B1C682C4000D03400D7
:102210001E600E4E9E630E4E1E655D63002A09D041
:10222000057800BF0D705D6B6D07FCD4401C491C28
:10223000521EF5D100205863186598631C6070BC6D
:10224000704700BF00F000405AA50000687A000007
:1022500098F9000070B4124E0125104B1C682C40F8
:1022600000D034001E600F4E9E630F4E1E655D63EE
:10227000002A0BD00125A943058800BF0D805D6BA6
:102280006D07FCD4801C891C521EF5D100205863B8
:10229000186598631C6070BC704700BF00F0004078
:1022A0005AA50000687A000098F9000070B4124E38
:1022B0000125104B1C682C4000D034001E600F4ECE
:1022C0009E630F4E1E655D63002A0BD00325A94354
:1022D000056800BF0D605D6B6D07FCD4001D091D16
:1022E000521EF5D100205863186598631C6070BCBD
:1022F000704700BF00F000405AA50000687A000057
:1023000098F9000010B4104B0E490A68D20701D5A5
:102310001A0000E000220B600C4B8B630C4B0B652A
:1023200002234B63FF230324A04300BF0360486BD9
:102330004007FCD400204863086588630A6010BC2D
:10234000704700BF00F000405AA50000687A000006
:1023500098F90000084B19680868203080F3098854
:10236000022080F31488BFF36F8F3FBCAE4608BCD9
:1023700004BC62B61847000090010020EFF3108003
:1023800072B6704780F310887047EFF309800E4BE8
:102390001A6820381060F0C044464D4656465F46E5
:1023A000F0C008B572B611F02FF962B60CBC116816
:1023B00008681030F0C8A046A946B246BB4680F374
:1023C00009882038F0C81847900100200448804749
:1023D00004480047FEE7FEE7FEE7FEE7FEE7FEE70C
:1023E000D9FA0000C120000030B50B46014600209C
:1023F0002022012409E00D46D5409D4205D31D460B
:102400009540491B2546954040191546521E002D02
:10241000F1DC30BD70B500242546002801DA012426
:102420004042002901DA01254942FFF7DDFFAC42B5
:1024300000D04042002C00D0494270BDF0B51FB41E
:102440000646002082B005464024019100901BE022
:10245000019922460F46304600F012FC049A059B73
:10246000801A994110D310461946224600F0F8FB15
:10247000361A8F410197224601200021009F00F06B
:10248000EFFB38184D4100902046641E0028DFDC29
:10249000019B00982946324607B0F0BD38B5044686
:1024A000C0681821401E4843A16840183C21484399
:1024B000616840183C2148432168451860690C2137
:1024C0004843216940186921C900401A3021FFF7AB
:1024D000A1FF114A50434219084600921A2902DB13
:1024E0000E49511800910C21FFF794FF0C4A5043FC
:1024F000009A801800900B4806E0491E425C074B8A
:102500005A43009BD21800920029F6DC2146684607
:1025100000F0E2FB009838BD801F86078051010063
:102520008033E101D468010003460B439B0703D0CD
:1025300009E008C9121F08C0042AFAD203E00B7888
:102540000370401C491C521EF9D27047D2B201E000
:102550000270401C491EFBD270470022F6E710B5FE
:1025600013460A4604461946FFF7F0FF204610BD01
:1025700030B505462A460B4610781C78521C5B1C69
:10258000002801D0A042F7D0002C03D0002802D0B0
:102590006D1CEFE7284630BD421C0178401C002925
:1025A000FBD1801A704730B504460020034600E096
:1025B0005B1C934203D2E05CCD5C401BF8D030BD85
:1025C00003460A780270401C491C002AF9D11846BB
:1025D00070470321001D401E037812021A43491E52
:1025E000F9D510467047034603220870000A491CBB
:1025F000521EFAD5184670470FB400B58DB0099039
:102600000B9010A900200091C0430A9000200C906C
:1026100006480690064807906A4609A80F9900F0F8
:10262000ABFB0DB008BC04B018470000992D0000AA
:10263000B92D0000FFB50027FF4383B000205C6880
:1026400001909E681D46A9697F1C049888470090E8
:10265000296A88470028F6D10098401C0CD0032036
:1026600040028443002E19DD600614D500982B2803
:1026700009D02D280FD103E00020C04307B0F0BDE2
:10268000012080020443A9697F1C04988847761EB4
:102690000090002E02DD0098302803D00598002815
:1026A00025D035E0012040020443A969761E7F1C35
:1026B000049888470090002E03DD782805D058281C
:1026C00003D00598002810D022E00598002801D0FA
:1026D00010281DD1012040028443A969761E7F1C69
:1026E000049888470090102002E0082000E00A20AB
:1026F00005900DE0012149020C43059A0199761ECF
:10270000514308180190A9697F1C049888470090DC
:10271000002E05DD0599009800F018FB0028E9DA85
:10272000E96904988847A00502D40120C043A5E7C1
:10273000E00722D1600611D56005019800D540421E
:1027400029680A1D2A600968220501D5087014E06D
:10275000220701D5088010E008600EE02868011DFE
:1027600029600068210502D50199017005E0210763
:10277000019901D5018000E0016038467EE7FFB590
:10278000002083B0009050680190916914460026A3
:1027900097680498884705460C990698084305D021
:1027A00009E0A169761C049888470546216A2846F5
:1027B00088470028F5D1681C03D00198C00704D0D1
:1027C00017E00020C04307B0F0BD2068011D216064
:1027D000006800900DE00198C00704D100980570D2
:1027E0000098401C0090A169761C7F1E04988847C1
:1027F0000546002F1CDD681C1AD0069800280FD053
:10280000E817C00E401941118A0006994009511875
:1028100040012A1A0968012090400142DBD107E0FB
:102820000C980028D7D1216A284688470028D2D0A2
:10283000E169049888470C98002807D1002E05DD2F
:102840000198C00702D1009800210170A068B84229
:1028500004DD0C98002804D0002F02D00120C043D2
:10286000B1E73046AFE7024670B54A40D30FDB0709
:1028700040002DD04A002AD0010E140E0002120290
:102880000919400A520A8418E50104465443000A13
:10289000120A2E045043A4194219200CC543AA1849
:1028A000120C0125AD03521C521912047F39240465
:1028B00000D0521C104301D44000491EC2B20C0685
:1028C000C0092018401C4008802A02D003E00020E4
:1028D00070BD40084000002900DA0020184370BD98
:1028E00070B502464A40D50F40004A00ED07400847
:1028F0005208002814D0002A12D0C40DD30D410272
:102900000120C0055202490A520AE41A0918121895
:102910007D34914201D3641C00E04900002C01DAAF
:10292000002070BD0023914201D3891A034340085F
:1029300049000028F7D100290AD0914202D1012193
:10294000C90705E0914201D2012101E00121C943FB
:10295000E005C018401900F041FA70BDF0B5074617
:102960000846584087B0C00F049048000E465900F2
:1029700040084908BC1A884105D2384631461E46EF
:1029800017460B4602465800400810434CD0300D05
:10299000039040055900400D490D0590401A0290E2
:1029A000402872DA18030121000B09050843019041
:1029B00004980092002805D00199524200208841D5
:1029C00000920190029840210A1A0199009800F0A3
:1029D00047F905460C466B4607CB00F062F9C01973
:1029E0007141039A0E0D0023D71756401A467A40BC
:1029F000164344D0049A002A2DD0029A012A039A41
:102A000015DC1205C01A914101263605001C7141E2
:102A1000D20F059ED2070093019202962A462346C2
:102A200000F02AFA07B0F0BD38463146FAE716053D
:102A3000224A0F46B218C01AB74101210905001CED
:102A40004F4100187F41114618187941E20F104399
:102A50006D19644113E0E2076D0815436408C2076D
:102A60001443039A01261205C01A91413605001C31
:102A70007141CE07400830434908C01851412A46E9
:102A8000234600F0ECF9CDE7FFE70498012240006F
:102A9000C117121A00238B4104983146C417381A03
:102AA000A141EEE730B40124E407634030BC55E7B0
:102AB00030B40124E407614030BC4FE70000E0FF80
:102AC000F0B51FB488B00B990998002448400999C3
:102AD000C00F490049080991C0070B9900904900AF
:102AE00049080B9109990898A64608431CD00B99F0
:102AF0000A98084318D0099801244000420D480064
:102B0000410D099824050003000B204309900B9800
:102B10000003000B20430B9050181C494018002262
:102B200001901446104605E0002001460DB0F0BDAE
:102B3000032801DA034600E003239C46C11A0AAECB
:102B40000AE05F0008ADED5B4F00F75B7D430027B7
:102B5000AA187C41491C5B1E6145F2DD410004ABB3
:102B60005A522104120C0A43240C401C0828DFDBB3
:102B7000019802900099704601910090059B049A7B
:102B80000799069800F078F9D0E700000DFCFFFFE8
:102B900010B500229623114600F028F910BD000060
:102BA0000EB5C217C10F5040CA0740180021054B8F
:102BB0000293019200910A460B4600F05DF903B0C2
:102BC00000BD000033040000410040020122400A21
:102BD000D205090E80187F2901DA00207047962956
:102BE00003DC9622511AC8407047963988407047D6
:102BF00070B5CD0F4A0009030123090B1B051943CA
:102C00000B4BED070024520D9A4201DA002070BDF3
:102C1000074B34339A4203DC9A1A00F031F802E091
:102C20000449511888402C43F1D0404270BD000047
:102C3000FF030000CDFBFFFFC20FD207400040089A
:102C40000BD0C10D0723DB01C91840020905400A5A
:102C50001143C208400711437047002001467047E6
:102C600010B5202A04DB0146203A9140002010BD17
:102C7000914020239C1A0346E3401943904010BD25
:102C800010B5202A04DB0846203AD040002110BDB0
:102C90000B46D340D0402024A21A91400843194645
:102CA00010BD10B5202A06DBCB170846203A10418C
:102CB000C1170B4306E00B461341D0402024A21A53
:102CC00091400843194610BD10B5024900F004F8C0
:102CD00010BD00000451002070B50C4600683C2176
:102CE000FFF782FB21603C21FFF77EFB616018212A
:102CF000FFF77AFB0546A1600721001DFFF774FB73
:102D0000A1610F48A90008180E49FFF76DFB0246A4
:102D1000443288086261E0613B2802D3910700D009
:102D2000401C0021084B0A462161995C814203D86E
:102D3000401A521C2261F8E7401CE060204670BD3A
:102D40006C0B0000B5050000E06801003A2800D2D5
:102D50003038202302469A43412A01D3104637389F
:102D6000884201D30020C0437047000002681378F6
:102D7000511801601846704710B5D160044951617F
:102D80000449116200211161114600F08DF910BD56
:102D90006D2D0000993000004268002A08D00168BB
:102DA0000B78491C002B03D0521E06C018467047F2
:102DB0000121C160881E70474268002A0BD0C36899
:102DC0000168002B07D183688B4204D0491E521C36
:102DD00006C0002070470020C0437047002904DA75
:102DE000401C490001D140084000704770B40024E5
:102DF000050C05D11024000402D1002921D0112492
:102E0000050E01D100020834050F01D10001241D77
:102E1000850F01D18000A41C002801DB4000641C48
:102E2000002908D020252E1B0D46F540A14000D0DA
:102E300001212943084301061B1B000ADB1D02D5A3
:102E4000002070BC7047DB05181880180029F8DADC
:102E5000401C4900F5D170BC40084000704710B5D7
:102E6000002B08DA0024401C614192185B411A4390
:102E700001D14008400010BDF0B51FB482B0054636
:102E80000C0003D008460EF013FB02E00EF010FB1E
:102E900020300246009021462846FFF7E1FE049BC1
:102EA000059A04460F4618431143084314D01846A8
:102EB00010431BD0009840210A1A18460599FFF7C5
:102EC000DFFE05460E46009A05990498FFF7C8FEF6
:102ED000084305D0012004E02046394607B0F0BD84
:102EE0000020C11705430E432C43374300990E9829
:102EF0006305401A7905E40A00220C43FD0A0A30F2
:102F000002D500200146E9E70105101969410C9C32
:102F10000D9D00196941FFF7A2FFDFE7F0B50C46F0
:102F20005C4085B0E40FE40703944C00002664087D
:102F300059009446490802460296224321D062462F
:102F40000A431ED06200570D4A000E032303550D9D
:102F5000012402462C492405781B1B0B360B401814
:102F600023432643614600901C46501AB44103D3C4
:102F70000098401C009002E0921800985B410028E5
:102F800003DA0020014605B0F0BD0020012109054B
:102F90000746864611E064461D46141BB54106D31C
:102FA0006546521BB341744607430C43A646CD0702
:102FB00040084908284392185B4105460D43EAD171
:102FC0001046184313D060461946504071400843DC
:102FD00006D06046101AB34106D20122002306E053
:102FE00000220123DB0702E00122D24353100098A4
:102FF00074460105381C6141029C039D001969411A
:10300000FFF72DFFBFE70000FD0300004A000903A2
:103010000123090B1B0519430A4B10B5520D9A42A7
:1030200002DA0020014610BD064B34339A4203DC1D
:103030009A1AFFF725FE10BD034BD218FFF710FEBA
:1030400010BD0000FF030000CDFBFFFF10B50029FD
:1030500004DB0124E40740428C412146002B04DBC1
:103060001C460123DB075242A341994200D1904202
:1030700010BD0000064C0125064E05E0E36807CCB4
:103080002B430C3C98471034B442F7D3FFF71CF89D
:10309000DC780100FC78010010B50F21C0B24902B4
:1030A00000F09EF910BD0000F3B58DB000200A902D
:1030B00001200B90002608460C300C4609906269EE
:1030C000012109989047051E2ED0252D2DD0216A6B
:1030D0008847002818D06269012109989047216A21
:1030E00088470028F7D1411E62690998904700E09F
:1030F000761CA1690D988847216A88470028F7D176
:10310000E1690D988847DAE7A1690D988847074675
:10311000A84201D1761CD2E7E1690D9888477F1C4F
:1031200002D10A98002877D049E1002762693D461C
:103130003946099890472A280CD1626901210998DB
:103140009047012506E00A214F433F18303FEBD45A
:1031500010200543626901210998904701463039E2
:103160000A2903D29B498F42DEDCECE7E90600D452
:10317000994F6C280AD04C2810D0682824D06A288F
:103180002ED074280CD07A280AD00DE06269012173
:10319000099890476C2823D004211CE02020054387
:1031A0006269012109989047A760656065284FD042
:1031B00026DC582839D01ADC452849D012DC2528CD
:1031C00034D04128B0D143E0626901210998904789
:1031D000682802D008210D43E6E70120C002DEE79F
:1031E0000220DCE7462833D047282CD130E05B288A
:1031F00070D061282CD063286CD0642823D161E082
:103200006F284FD009DC662822D0672820D0692893
:1032100026D06E2817D12EE0CDE070284DD073282F
:103220006FD075284ED078280DD154E0A1690D9843
:1032300088470546252800D16CE7E1690D98884745
:103240006D1C00D16DE7BAE00A224CE00A2252E080
:10325000012023466A46C0430D99C046C046A3E0FC
:103260002846402108436060A807234601D5002274
:1032700039E000223FE0E80700D020E72068011D88
:1032800021600068290501D5067018E7290701D5D6
:10329000068014E7A90703D5F117066041600EE721
:1032A00006600CE72846402108436060A8072346D3
:1032B00001D5082217E008221DE0484928460840A9
:1032C000606016E02846402108436060A807234656
:1032D000BCD5B9E715E02846402108436060A8073F
:1032E00007D5234610220120C0430D99C046C04691
:1032F0005AE0234610220120C0430D99FFF79AF9A6
:1033000052E000210C910B460091632802D05B280B
:1033100007D043E0E80601D40120A060012000901E
:103320003CE062690121099890475E2805D101209F
:103330000C9001466269099890472169002906D1DD
:103340000B4601AA8F00491CD3510829FADB00283B
:1033500035D0216900290ED1C117C90E09184A11AB
:10336000930001AA9A1849094901411A01201368DA
:1033700088400343136062690121099890475D28E2
:10338000E5D10C98002808D0002001AB81005A58E4
:10339000401CD2435A500828F8DB01AB01202246DA
:1033A000C0430D99FFF7EBF900280ADA401C06D15B
:1033B0000B98002803D00020C0430FB0F0BD0A983E
:1033C000FBE7E90702D10A99491C0A913618002047
:1033D0000B9074E6CCCCCC0CFFFFFF7FF1F7FFFF26
:1033E0007F2801D9002207E0054B42089A5CC007FC
:1033F00000D112091207120F0120904008407047B7
:10340000EC68010070B58C180578401C6B075B0FE9
:1034100001D10378401C2A1106D10278401C03E038
:1034200006780E70401C491C5B1EF9D12B0705D491
:103430000023521E0DD40B70491CFAE70378401C80
:10344000CB1A921C03E01D780D70491C5B1C521EA8
:10345000F9D5A142D8D3002070BD7047F7B587B029
:10346000034609981D782D065E78360475409E78CF
:1034700036027540DE7875400668754006951D7900
:103480002D065E79360475409E7936027540DE79E8
:1034900075404668754005951D7A2D065E7A36049E
:1034A00075409E7A36027540DE7A754086687540B2
:1034B00004951D7B2D065E7B360475409E7B36028F
:1034C0007540DE7B7540C66875400395F025099808
:1034D0002D586D10009500BF069D2D0EAD00CE4EEF
:1034E0007559059E3602360EB600CC4FBE59754052
:1034F000049E3604360EB600C94FBE597540039E71
:103500003606B60DC74FBE5975402A460669724049
:10351000059D2D0EAD00C04E7559049E3602360E27
:10352000B600BE4FBE597540039E3604360EB60037
:10353000BB4FBE597540069E3606B60DB94FBE59F3
:1035400075402C4646697440049D2D0EAD00B24E68
:103550007559039E3602360EB600B04FBE597540FF
:10356000069E3604360EB600AD4FBE597540059E18
:103570003606B60DAB4FBE5975408669754002954B
:10358000039D2D0EAD00A44E7559069E3602360ED3
:10359000B600A24FBE597540059E3604360EB600E1
:1035A0009F4FBE597540049E3606B60D9D4FBE59BD
:1035B0007540C669754001952030009D6D1E0095CF
:1035C000002D00D168E0150EAD00934E755926020E
:1035D000360EB600914FBE597540029E3604360E27
:1035E000B6008F4FBE597540019E3606B60D8D4F01
:1035F000BE597540066875400695250EAD00864E8D
:103600007559029E3602360EB600844FBE5975407B
:10361000019E3604360EB600814FBE59754016061F
:10362000B60D804FBE597540466875400595029DA0
:103630002D0EAD00784E7559019E3602360EB6003D
:10364000764FBE5975401604360EB600744FBE59FB
:1036500075402606B60D734FBE5975408668754095
:103660000495019D2D0EAD006B4E75591602360E58
:10367000B6006A4FBE5975402604360EB600684F34
:10368000BE597540029E3606B60D664FBE5975404E
:10369000C668754003951FE700BF150EAD00604E6C
:1036A00075592D0E2D062602360EB6005D4FBE59F9
:1036B000FF273F043E407540029E3604360EB6009A
:1036C000554FBE59FF273F023E407540019E3606CA
:1036D000B60D524FBE5D7540066875400695069D55
:1036E0002D0E0D70069D2D022D0E4D70069D2D0484
:1036F0002D0E8D70069DCD70250EAD00484E75596E
:103700002D0E2D06029E3602360EB600454FBE59CE
:10371000FF273F043E407540019E3604360EB6003A
:103720003D4FBE59FF273F023E4075401606B60D7D
:103730003A4FBE5D7540466875400595059D2D0E56
:103740000D71059D2D022E0E4E71059D2D042E0E20
:103750008E71059DCD71029D2D0EAD00304E7559B7
:103760002D0E2D06019E3602360EB6002D4FBE5987
:10377000FF273F043E4075401604360EB600264F24
:10378000BE59FF273F023E4075402606B60D234F27
:10379000BE5D7540866875400495049D2D0E0D72C2
:1037A000049D2D022E0E4E72049D2D042E0E8E723F
:1037B000049DCD72019D2D0EAD00194E75592D0E33
:1037C0002D061602360EB600164FBE59FF273F04CF
:1037D0003E4075402604360EB6000F4FBE59FF27F7
:1037E0003F023E407540029E3606B60D0B4FBE5D51
:1037F0007540C66875400395039D2D0E0D73039D9E
:103800002D022E0E4E73039D2D042E0E8E73039DDE
:10381000CD730AB0F0BD00008C4701008C4B010055
:103820008C4F01008C530100F7B503460C46002570
:10383000002B02D00298002802D10020C043FEBD18
:10384000802C08D0C02C06D0FF200130844202D04A
:103850000120C043F3E70299802C04D10A26029884
:10386000803006670AE0C02C04D10C260298803014
:10387000066703E00E260298803006671878000677
:103880005E78360470409E7836027040DE78704074
:103890000860187900065E79360470409E79360219
:1038A0007040DE7970404860187A00065E7A36040F
:1038B00070409E7A36027040DE7A70408860187BD5
:1038C00000065E7B360470409E7B36027040DE7BD5
:1038D0007040C860802C39D137E0CA681602360EB5
:1038E000B600894FBE59360E360608687040160479
:1038F000360EB600854FBE59FF273F043E4070404C
:103900001606B60D824FBE59FF273F023E4070405B
:10391000160EB6007F4FBE5D7040AE007E4FBE59A2
:10392000704008610E694868704048614E69886857
:10393000704088618E69C8687040C861681C05461F
:103940000A2801D100207AE71031C6E7187C00066A
:103950005E7C360470409E7C36027040DE7C704097
:103960000861187D00065E7D360470409E7D36023B
:103970007040DE7D70404861C02C41D13FE04A6913
:103980001602360EB600604FBE59360E360608686F
:1039900070401604360EB6005C4FBE59FF273F0438
:1039A0003E4070401606B60D594FBE59FF273F02E4
:1039B0003E407040160EB600564FBE5D7040AE00E1
:1039C000554FBE59704088618E6948687040C86123
:1039D000CE698868704008620E6AC86870404862A4
:1039E000681C0546082801D1002028E74E6A0869AE
:1039F000704088628E6A48697040C8621831BEE7BC
:103A0000187E00065E7E360470409E7E3602704050
:103A1000DE7E70408861187F00065E7F360470404D
:103A20009E7F36027040DE7F7040C861FF2001300B
:103A3000844266D164E0CA691602360EB600324F7F
:103A4000BE59360E3606086870401604360EB600AB
:103A50002E4FBE59FF273F043E4070401606B60D5C
:103A60002B4FBE59FF273F023E407040160EB60056
:103A7000284FBE5D7040AE00274FBE5970400862AF
:103A80000E6A4868704048624E6A88687040886272
:103A90008E6AC8687040C862681C0546072801D154
:103AA0000020CCE6CA6A160EB600174FBE59360E75
:103AB0003606086970401602360EB600134FBE591E
:103AC000FF273F043E4070401604360EB600104FEC
:103AD000BE59FF273F023E4070401606B60D0D4FFF
:103AE000BE5D704008630E6B4869704048634E6B62
:103AF0008869704088638E6BC8697040C8632031E4
:103B000099E700209BE600008C4F01008C530100D8
:103B10008C4701008C4B01008C680100014600209D
:103B2000302905DB392903DC0A46303AD0B20EE0F1
:103B3000412905DB462903DC0A46373AD0B206E0C4
:103B4000612904DB662902DC0A46573AD0B2704785
:103B5000F7B586B004460D46142213A101A8FEF75E
:103B6000E3FC00260027002D02D00898002802DC84
:103B7000002009B0F0BD00260EE0A85D001101A9EB
:103B80000A5C38467F1C2254A85D0007000F0A5CBF
:103B900038467F1C2254761C08988642EDDB0020B4
:103BA000E0552046E5E70000303132333435363712
:103BB00038394142434445460000000038B50120F1
:103BC0001E49487105F0D2FB0BF090F900BF06F0DA
:103BD00083FD04461A481B4B1BA2214600901BA0E4
:103BE0000DF042FC00BF06F0A9FA07F00FFA09F049
:103BF000BDFD0CF003F900BF06F06EFD0446104851
:103C0000401D104B10A2214600901AA00DF02CFC74
:103C100000BF09F045F900BF06F05EFD0446084804
:103C2000C01D084B08A2214600901BA00DF01CFCF3
:103C300000BF0121084607F059FE38BDE801002009
:103C4000A704000089410100583600005B25735D20
:103C50005B25735D3A257320282564292041707007
:103C60006C69636174696F6E2073746172742E0A7B
:103C7000000000005B25735D5B25735D3A257320B2
:103C80002825642920496E69745254432073746155
:103C900072742E0A000000005B25735D5B25735D66
:103CA0003A2573202825642920496E6974525443AB
:103CB0002046696E697368210A000000FFB589B06B
:103CC00005460F46681E692148439A494418681EF4
:103CD0009021484398494618681E9849095C0C98F9
:103CE000814209D106F0A2FD691E8A009249083975
:103CF0008958401A782825D906F098FD691E8A004F
:103D00008D4908398850691E8C4A0C985054692195
:103D10002046FEF722FC00BF06F0DEFC0590884836
:103D2000884B89A20195009088A005990DF09CFB15
:103D300000BF0A22201D0B99FEF7F6FB01206070E0
:103D4000A07010E000BF06F0C7FC05907C4808306A
:103D50007C4B7DA2009087A005990DF085FB00BFEC
:103D600001200DB0F0BD25708C48407920748B483F
:103D70002030C17D6320015588482030417E027E7D
:103D800008021043214663310871000A48718348D4
:103D9000407902285ED1814BDA799B7912021A436D
:103DA00011467E4A537A127A1B021A437A4310460E
:103DB000FEF71AFB80B2A073000AE0737749C87956
:103DC0008A7901021143A175090AE1757348417AA4
:103DD000007A090201432176090A61766320005DB9
:103DE00003281BD12046633042790379100218431F
:103DF0006A4A537A127A1B0213435843674A059062
:103E0000D07992790002104301460598FEF702FB33
:103E100081B2204661300171090A417100BF06F08C
:103E20005BFC05902046613041790279080210431D
:103E30000146E07BA27B00021043019702AA23C245
:103E40003F4819303F4B40A20090554805990DF06E
:103E50000BFB0AE01E20A0730020E07331224F49C3
:103E6000891D20461130FEF75FFB06F0DFFC21467E
:103E700043310590FEF7B7FB00BF20464330FEF705
:103E8000A8FB059006F028FC04902D210901059857
:103E90002C4B2DA20091019042A004990DF0E4FA60
:103EA00000BF06A9284606F03DFC002120466130EF
:103EB00001704170214647310898FEF794FB214676
:103EC0004B310898FEF78FFBB9B22046423001749F
:103ED000090A41740C215420015500215520015537
:103EE00015486038C17956200155284607F002F977
:103EF00020464330FEF76DFB3849086008460068ED
:103F000030600020B072F07230730021862081553D
:103F1000681E90225043084A801880300173681E42
:103F200090225043044A80188030417306F062F8B2
:103F3000002016E7D4090020080B00208A0000208A
:103F4000AE0200002C450100583600005B25735D71
:103F50005B25735D3A2573202825642920BFAACAF2
:103F6000BCB3E4B5E7202C67756E5F6964203D2023
:103F700025640A005B25735D5B25735D3A2573201C
:103F80002825642920BFAACABCB3E4B5E7D0F2C192
:103F9000D0BAC5CFE0CDAC2E0A000000B702002099
:103FA000F47101005B25735D5B25735D3A25732019
:103FB0002825642920BFAACABCB3E4B5E7CAB1BCAE
:103FC000E47047756E496E666F2D3E73746172744E
:103FD0005F74696D65203D2025640A00840000201F
:103FE000FFB58DB017461C4600260025681E0B90B5
:103FF00020461699FEF7B1FA00200A9005E132201A
:104000000EF0CEFB2EE008A8007C002819D01698F0
:10401000A84205DD08A8027C28466D1C225410E049
:1040200000BF06F059FB099008A8007C43217B4B98
:104030007BA20195009102907AA009990DF014FAE3
:1040400000BF3E2D0ED100BF06F046FB0990482070
:10405000724B73A2019500907DA009990DF004FAAE
:1040600000BF05E00CA9814805F0A0FA0028CAD0DD
:1040700000BF20460E99FEF77BFA0646002E7DD043
:104080007BA10D98FEF774FA002827D0182104A808
:10409000FEF763FA04AA79A12046FEF7ADFA04A858
:1040A000FEF77AFA142805D3142204A97648FEF7FD
:1040B0003BFA03E004A97448FEF782FA00BF06F059
:1040C0000BFB039070485F21544B55A20091019067
:1040D0006EA003990DF0C8F900BF00BF73A10D9841
:1040E000FEF746FA002831D073A12046FEF740FAC9
:1040F0000646002E2AD00A22E11D63480C38FEF73E
:1041000013FA00BF06F0E8FA09905F480C387721EF
:10411000424B43A20091019069A009990DF0A4F9C6
:1041200000BF052174480EF0F2F900280CD1564961
:104130000C3971480BF070FB05F052FF08226E49F4
:10414000C91E6EA008F094FC05F07CFF6DA10D98CF
:10415000FEF70EFA002846D0072009906CA12046F1
:10416000FEF706FA0646002E3CD000BF06F0B4FA71
:1041700008909B20294B2AA2019400E041E0009086
:1041800065A008990DF070F900BF05216C480EF08C
:10419000BEF9002826D105216948401F0EF0B7F965
:1041A00000281FD10998211865480BF035FB644899
:1041B000401F407A6249491F08700846007A4870DB
:1041C0000846C079887008468079C87008464079EA
:1041D00080098001087105F021FF0522584959A086
:1041E00008F046FC00BF5BA10D98FEF7C1F900285E
:1041F00004D05B4A5BA12046FEF7FEF900200B903D
:1042000007E00A98323080B20A900A98B84200DA81
:10421000F5E600BF0B9811B0F0BD0000D4460100D8
:10422000583600005B25735D5B25735D3A2573206E
:104230002825642920636E743D2564202C2063208A
:104240003D202564202C6572726F722E0A000000DA
:104250005B25735D5B25735D3A25732028256429F2
:1042600020636E74203D2025640A0000500D00205C
:1042700041542B564552533F000000002B564552E7
:10428000533A202573000000FB0100205B25735D7D
:104290005B25735D3A2573202825642920626C759F
:1042A00065207665723A25732E0A000041542B4E24
:1042B000414D453F000000002B4E414D453A000066
:1042C0005B25735D5B25735D3A2573202825642982
:1042D00020C0B6D1C0C3FBD7D62073797374656D87
:1042E0005F696E666F2E626C75655F6E616D6520CD
:1042F0003A25732E0A00000007000020C9E8B1B873
:10430000BAC5000041542B475749443F0000000004
:104310002B475749443A00005B25735D5B25735D6D
:104320003A2573202825642920323447CDF8B9D89E
:10433000B5D8D6B747574944203A25732E0A00000E
:10434000A6020020B1BEB5D8322E3467B5D8D6B794
:104350000000000041542B444556543F000000002B
:10436000800100202B444556543A2025640000006B
:10437000FEB50446E51C00BF06F0AEF906466878B7
:104380002978FF225A32054B00920191029004A233
:10439000314604A00DF068F800BFFEBD38440100AE
:1043A000583600005B25735D5B25735D3A257320ED
:1043B0002825642920CAD6BBFAD3A6B4F0BCC6B758
:1043C000D1C4A3B0E567756E69645B25645D2C207C
:1043D000BDE1B9FBD6B55B25645D200A0000000095
:1043E000F0B59DB003AC0334E61C0627702101A88C
:1043F000FEF7B3F82C48007830702B48401CFEF7CD
:10440000E8F8711C0090FEF7EEF8274840797071CB
:1044100025484079022801D1042507E02248407947
:10442000012803D120488079C000451C2A461E4936
:10443000891DB01DFEF778F81B482030C17DB01DE6
:10444000415519482030417E027E08021043C1B216
:10445000B01D6A1C815414482030417E027E08023F
:1044600010430112B01DAA1C8154681C3F18EE2095
:10447000207006206070A770A078C11C204603F051
:104480006BFDC1B2A278E01C8154A078021D2146C8
:1044900006A008F0EDFAA078021D01A9002009F09D
:1044A000EDFC1DB0F0BD0000B702002073656E6426
:1044B00020436F73745F54656D706C617465206424
:1044C0006174613AB8F8CAD6BBFAB7A2CBCDBCC604
:1044D000B7D1C4A3B0E50000F0B59FB00446E51C19
:1044E00028781E90A178284602F054F806467021DC
:1044F00002A8FEF732F8E71C002E01D1012000E0EF
:10450000002038701E9878700220A070A078C11C1E
:10451000204603F021FDC1B2A278E01C8154A078AE
:10452000001D69464874010A68468174817C437C99
:10453000080218430246214604A80330FDF7F4FFA1
:104540006846817C437C08021843024602A9002089
:1045500009F094FC022E1FD12F2008F0A9F900BF0A
:1045600006F0BAF80190FF20CC300C4B0CA2009062
:104570000CA001990CF078FF00BFFF20F5300EF081
:104580000FF900BFBFF34F8F0F481049C860BFF34A
:104590004F8F00BF00BFFEE71FB0F0BD74440100A5
:1045A000583600005B25735D5B25735D3A257320EB
:1045B0002825642920426C7565D6D8C6F4CFB5CDC0
:1045C000B3A3A10A000000000400FA0500ED00E01A
:1045D000F0B59FB004460027E51CA87A052812D044
:1045E000281DFDF7F6FF02902846FDF7F2FF019027
:1045F000AB7A687A2A7A000210430146029A01983F
:104600000CF090FA0EE000BF06F066F80290FF2072
:104610009D301B4B1BA200901BA002990CF024FFA5
:1046200000BF0127702103A8FDF797FFE61C377034
:104630000120A070A078C11C204603F08DFCC1B2FF
:10464000A278E01C8154A078001D69464875010AD3
:1046500068468175817D437D0802184302462146E4
:1046600005A80330FDF760FF6846817D437D0802A1
:104670001843024603A9002009F000FC1FB0F0BD5A
:1046800060440100583600005B25735D5B25735D57
:104690003A257320282564292066775F7665727332
:1046A000696F6E20697320657175616C2C63616E32
:1046B0006E277420757067726164652E0A000000B1
:1046C0007CB504460D4600BF06F006F80646607845
:1046D0004921C900424B43A200910190314642A0BA
:1046E0000CF0C2FE00BF607803000CF0F8FE1676F6
:1046F0000C7618212A333C45545D767676766676BC
:104700006C76767670762A46214643A008F0B0F99A
:1047100020460AF02BFA1C2008F0CAF85DE02A4671
:10472000214643A008F0A4F9204600F021FC54E003
:104730002A46214644A008F09BF9204600F09CFD43
:104740004BE02A46214646A008F092F9204600F0A8
:104750009BFA42E02A46214647A008F089F9204604
:10476000FFF706FE39E02A4621464CA008F080F902
:10477000204600F025F930E007F002FE03F08EFD40
:1047800007F0BAFD2A4621464BA008F071F92046F1
:10479000FFF71EFF21E02A4621464FA008F068F9E6
:1047A0002046FFF799FE18E02A46214650A008F05F
:1047B0005FF9204600F0C2F80FE02A46214653A0D8
:1047C00008F056F909E0204600F058FE05E02A46B8
:1047D000214654A008F04CF900BF00BF7CBD00008A
:1047E000A6440100583600005B25735D5B25735DB0
:1047F0003A2573202825642920BDD3CAD5B5BDC06C
:10480000B6D1C0CAFDBEDD202C20636D64203D20E2
:104810003078253032580A00BDD3CAD5B5BDCAD6C6
:10482000BBFAC0B6D1C0CED5CAD6B0FC00000000DD
:10483000BDD3CAD5B5BDCAD6BBFAC0B6D1C0BFAA12
:10484000C6F4B3E4B5E70000BDD3CAD5B5BDCAD63A
:10485000BBFAC0B6D1C0CDA3D6B9B3E4B5E700006A
:10486000BDD3CAD5B5BDCAD6BBFAC0B6D1C0D0C4B7
:10487000CCF8B0FC00000000BDD3CAD5B5BDCAD687
:10488000BBFAC0B6D1C0B5C4BCC6B7D1C4A3B0E5ED
:10489000C9CFB4ABD3A6B4F000000000BDD3CAD5D5
:1048A000B5BDCAD6BBFAC0B6D1C0C7EBC7F3BCC64C
:1048B000B7D1C4A3B0E50000BDD3CAD5B5BDCAD633
:1048C000BBFAC0B6D1C0B9CCBCFEC9FDBCB6BFAA4C
:1048D000CABCCDA8D6AA0000BDD3CAD5B5BDCAD61C
:1048E000BBFAC0B6D1C0B9CCBCFECFC2B7A20000E3
:1048F000BDD3CAD5B5BDCAD6BBFAC7EBC7F3C0B6E0
:10490000D1C0B6CFBFAAC1ACBDD30000BDD3CAD5FC
:10491000B5BDC9E8D6C3B3E4B5E7D7AEB1E0BAC513
:1049200000000000BDD3CAD5B5BDCAD6BBFAC0B61B
:10493000D1C0D4B6B3CCBFD8D6C6000030B59DB078
:104940000446702101A8FDF708FEE51C0020287030
:104950000120A070A078C11C204603F0FDFAC1B26E
:10496000A278E01C8154A078001D69464873010AB2
:1049700068468173817B437B0802184302462146C7
:1049800003A80330FDF7D0FD6846817B437B080216
:104990001843024601A9002009F070FAFF20F53003
:1049A0000DF0FEFE01200AF01BF800210348817182
:1049B0001D2007F07DFF1DB030BD0000280C002039
:1049C000F8B50446E51C681CFDF703FE06460E48D4
:1049D000FDF7FFFD864215D00B48FDF7FAFD0028D4
:1049E00010D000BF05F078FE0646FF208A30074B46
:1049F00007A23146009007A00CF036FD00BF2878D2
:104A0000FFF7EEFCF8BD0000B80200204A440100A8
:104A1000583600005B25735D5B25735D3A25732076
:104A20002825642920D3EBCAD6BBFABCC6B7D1C4AB
:104A3000A3B0E54944B2BBD2BBD1F92C20B8F8CA27
:104A4000D6BBFAB7A2CBCDBCC6B7D1C4A3B0E520C4
:104A50000A000000F0B593B004460D46164601204A
:104A600002908103164806F0E7FC02200DF098FE44
:104A70002046FDF791FD87B23A46214611480BF0DA
:104A8000E5FD002D01D0002E07D1012189030C483E
:104A900006F0D4FC002013B0F0BD402003AB32463A
:104AA000294600902046FFF79BFA002800D102908B
:104AB00001218903024806F0C1FC0298EBE70000DF
:104AC00000130140500D0020F0B5A3B00124702167
:104AD00004A8FDF742FD20A9204605F023FE06ADFF
:104AE0000335EE1C0020307005F0C8FD32307070C8
:104AF0000220B07000BF65E0601E69214843444950
:104B000040184078002807D0601E6921484340497A
:104B100040184078032812D100BF05F0DDFD07469C
:104B200021203C4B3CA23946019400903BA00CF064
:104B30009BFC00BF0021601E03AA115421E0601EEF
:104B400069214843324940184078012807D0601E47
:104B5000692148432E4940184078022811D100BFEE
:104B600005F0BAFD074626202A4B2BA239460194B0
:104B7000009032A00CF078FC00BF0121601E03AA57
:104B80001154364800790019401EC1B2601E42001F
:104B90008218F01C8154601E03A9095C420082182F
:104BA000F01C1018417020A80078002801D00121C5
:104BB00000E00021601E42008218F01C1018817075
:104BC000601CC4B2022C97DDEE20287005206870AE
:104BD0000920A870A878C11C284603F0BDF9C1B20D
:104BE000AA78E81C8154A878021D04A9002009F0C5
:104BF00045F900BF05F070FD07463520054B06A2BC
:104C00003946009016A00CF02FFC00BF23B0F0BD79
:104C1000D4090020AB430100583600005B25735DCA
:104C20005B25735D3A2573202825642920B2E5CDE4
:104C3000B75B25645DBFD5CFD00A20005B25735DCF
:104C40005B25735D3A2573202825642920B2E5CDC4
:104C5000B75B25645DD5BCD3C30A2000E801002002
:104C60005B25735D5B25735D3A25732028256429D8
:104C700020B8F8CAD6BBFAB7A2CBCDC0B6D1C0D047
:104C8000C4CCF8B0FC0A2000F0B585B00546EE1C97
:104C90003079002866D13046FDF79BFC002853D0C0
:104CA00005F0C4FD044600BF05F016FD0746FF20D1
:104CB0001730344B34A239460194009033A00CF0E5
:104CC000D3FB00BF00BF3046FDF783FC074605F06D
:104CD00003FD0290FF2018302A4B2BA20197009071
:104CE00036A002990CF0C0FB00BF3046FDF771FC06
:104CF000A04204D23046FDF76CFC201A03E0304697
:104D0000FDF767FC001B039003981E281BDD05F0D0
:104D100081FB002817D13046FDF75BFC471C384665
:104D200009F0DCFE01203049487000BF05F0D4FCDA
:104D30000746FF202030134B13A2394600902BA0CA
:104D40000CF092FB00BF1BE000BF05F0C5FC044661
:104D5000FF2024300B4B0CA2214600902BA00CF01E
:104D600083FB0DE000BF05F0B7FC0446FF202830B0
:104D7000044B05A2214600902EA00CF075FB00BF4D
:104D800005B0F0BD23440100583600005B25735D7B
:104D90005B25735D3A2573202825642920D0C4CC77
:104DA000F8BBF1C8A1B1BEB5D8CAB1BCE454696DB5
:104DB00065203D205B25645D0A0000005B25735D76
:104DC0005B25735D3A2573202825642920BDD3CA4D
:104DD000D5D0C4CCF8CAB1BCE454696D65203D207F
:104DE0005B25645D0A000000A80A00205B25735D56
:104DF0005B25735D3A25732028256429207365742B
:104E0000207274632074696D652E0A005B25735DE2
:104E10005B25735D3A2573202825642920BDD3CAFC
:104E2000D5C0B6D1C0D0C4CCF8CAB1BCE4CEAAC1FA
:104E3000E32E0A005B25735D5B25735D3A257320C5
:104E40002825642920BDD3CAD5C0B6D1C0D0C4CCD2
:104E5000F8CAA7B0DC2E0A00F0B5A3B004460E468F
:104E60001746E51C701E69214843324940180690D8
:104E7000702107A8FDF771FB2E70002F01D00120D3
:104E800000E000206870002F01D1002000E03846CB
:104E9000A87005F0CBFCE91C0590FDF7A4FB069873
:104EA0004B30FDF796FB81B2E971090A297200BF08
:104EB00006984330FDF78DFB0590E81CFDF789FB54
:104EC000049005F009FC0390FF2202320499059832
:104ED000194B00920191029018A219A003990CF0AD
:104EE000C3FA00BF0920A070A078C11C204603F0BF
:104EF00033F8C1B2A278E01C8154A078001D08A943
:104F00004871010A08A88171817943790802184320
:104F10000246214609A80330FDF706FB08A881795F
:104F2000437908021843024607A9002008F0A6FFAB
:104F300023B0F0BDD40900200A4401005836000017
:104F40005B25735D5B25735D3A25732028256429F5
:104F500020BFAAC6F4B3E4B5E7D3A6B4F0CAB1BC87
:104F6000E4205B25645D2C205B25645D200000004F
:104F7000F1B586B00698C51C0027287881490979C3
:104F8000401A401CC4B2601E692148437E49401843
:104F9000059012220699C91C7CA007F069FD0598AE
:104FA0008078002818D000BF05F096FB0490059883
:104FB0008078212109017D4B7DA2009101907DA087
:104FC00004990CF051FA00BF00231A4621460698B6
:104FD000FFF742FF07B0F0BD05F0B2FBF02819D390
:104FE00000BF05F0ADFB049005F076FB0390432174
:104FF000C90004986D4B6EA2009101907BA00399AB
:105000000CF032FA00BFF3B2012221460698FFF7F6
:1050100023FFDFE7204602F0C9FE061E13D000BFC3
:1050200005F05AFB04907E48604B61A200907DA081
:1050300004990CF019FA00BFF3B201222146069838
:10504000FFF70AFFC6E7601E122148434D4927318A
:1050500040184470E97A601E12225043494A2732B0
:1050600080188170621E12235A43464B2733D21890
:10507000D11C6A7B2B7B12021A431046FDF7B3FA50
:10508000687B297B00020843714948710846807992
:10509000401E692250433C4A8018011D0A22681CA8
:1050A000FDF781FA00281AD0601E122148433549C5
:1050B00027314018407C0A30C1B2601E1222504392
:1050C000304A273280184174611E122251432D4A02
:1050D00027328918C81D0A22691CFDF725FA611EAE
:1050E00012225143274A27328918C81CFDF771FA4A
:1050F0005749487108468471601E1221484321496E
:105100002731401880785249C871601E12214843E7
:105110001C4927314018437C601E1221484319491D
:1051200027314018C21D4A48407901460490204664
:10513000FEF7C4FD074600BF05F0CEFA04904720F5
:10514000C0001A4B1AA20197009042A004990CF0DB
:105150008BF900BF002F0AD10A4909790919491EA4
:10516000C8B20AF025F8AB22601E42490A5404F086
:1051700069FF00231A4621460698FFF76DFE00BF1F
:1051800028E70000E8010020D4090020C9A8C2EBEC
:10519000C0B6D1C0BFAAC6F4B3E4B5E7C7EBC7F346
:1051A000BDD3CAD5B1A8CEC400000000944401000C
:1051B000583600005B25735D5B25735D3A257320CF
:1051C0002825642920C7B9CDB7D5FDD4DAB3E4B515
:1051D000E77047756E496E666F2D3E69735F6C6F41
:1051E00061645F6F6E202564200A00005B25735D9B
:1051F0005B25735D3A25732028256429204869734F
:10520000746F72794F726465724E756D2069732088
:10521000746F206D616E793A2564200A00000000E9
:105220001F0200005B25735D5B25735D3A257320CB
:10523000282564292063616C6C20436865636B5387
:105240007461727450617261206661696C2E0A002B
:10525000A80A00205B25735D5B25735D3A257320EA
:105260002825642920726573756C74203D2025649F
:105270000A0000000D030020F0B5A5B0054600208F
:105280002490EF1C387823902398401E69214843CE
:10529000574946182398002802D02398022811DD88
:1052A00000BF05F019FA03903878FF21DE31514B29
:1052B00051A20091019051A003990CF0D5F800BFC4
:1052C00001202490702107A8FDF747F9EC1C04A9E0
:1052D000239805F027FA1320A870387820702498B6
:1052E000607005F0A3FAA11C0390FDF77CF930462D
:1052F0004330FDF76EF9214609310390FDF773F94C
:1053000030464B30FDF765F981B26173090AA1732C
:1053100030464330417B027B08021043E073000AB1
:10532000207430464330417D027D08021043607492
:10533000000AA07400BFA01CFDF74BF9039005F014
:10534000CBF90290FF21F03103982A4B2AA2009159
:10535000019033A002990CF087F800BF069880B244
:10536000A071000AE071012020721320A870A878B3
:10537000C11C284602F0F0FDC1B2AA78E81C815495
:10538000A878001D08A94871010A08A881718179CF
:105390004379080218430246294609A80330FDF75D
:1053A000C3F808A88179437908021843024607A97F
:1053B000002008F063FD2498002816D10021542015
:1053C000815506215520815500BF05F085F90390D0
:1053D000FF20FE30074B08A200901FA003990CF09D
:1053E00043F800BF387807F0B7FB25B0F0BD0000E8
:1053F000D409002083440100583600005B25735D0A
:105400005B25735D3A2573202825642920706F720F
:10541000743D25642C6572726F722E0A00000000C4
:105420005B25735D5B25735D3A2573202825642910
:1054300020CAD6BBFAC0B6D1C0BDE1CAF8B3E4B544
:10544000E7C7EBC7F3CAB1BCE454696D65203D20E2
:105450005B25645D0A0000005B25735D5B25735D61
:105460003A2573202825642920CAD6BBFAC0B6D1B4
:10547000C0BDE1CAF8B3E4B5E70A0000F0B585B0F5
:105480000546EC1C0026217968460173E1784173DA
:10549000A17881736178C17321780174052203A911
:1054A0002F48FDF780F800283BD00126052203A9EC
:1054B0002B48FDF739F82B490020FDF794F82949CE
:1054C000091F0020FDF78FF804F09EFD2078244985
:1054D000491F087060784870A0788870E078C870BC
:1054E0002079800980010871084640798006400EC5
:1054F000401E1D49087100BF05F0EEF80746184828
:10550000401F4079184909799422184B0092019163
:10551000029017A2394617480BF0A6FF00BF04F00F
:105520007DFD05220E49491F13A007F0A1FA0522AF
:10553000214617A007F09CFA0021284600F036F813
:105540007D20C0000DF076FF012E06D11648C069FF
:105550006021884320301449C86105B0F0BD0000C7
:10556000A602002010000020E8010020E243010014
:1055700058360000646F0100C0B6D1C0C9E8D6C378
:10558000CDF8B9D8322E3467B5D8D6B700000000B0
:10559000C0B6D1C0C9E8D6C3B1BEB5D8322E3467C3
:1055A000B5D8D6B700000000A80A0020FEB5044612
:1055B0000D46E61C27460B3F0020307035700C204E
:1055C000A070A078C11C204605F012F9C1B2A278E3
:1055D000E01C8154A078021D3946002008F04EFCE2
:1055E00000BF05F079F801907420044B04A20090EC
:1055F00004A001990BF038FF00BFFEBDCA430100B3
:10560000583600005B25735D5B25735D3A2573207A
:105610002825642920C9E8D6C3322E3467B5D8D6E8
:10562000B7B7B5BBD8D3A6B4F00A2000F8B5054685
:105630000E4600F0C7FC002426E01D480078142127
:1056400048431C494018008982B21BA11BA0FFF7E8
:1056500001FA002813D100BF05F03EF80746FC20F0
:10566000184B19A23946009018A00BF0FDFE00BFA0
:105670000F480078401C0E4908700020F8BD7D20BE
:1056800000010DF08DF8641C022CD6DB00BF05F084
:1056900023F80446FF2004300A4B0BA22146009059
:1056A00012A00BF0E1FE00BF0020C043E6E70000BF
:1056B0007C0100200C4601004F4B000041540D0AB4
:1056C00000000000E1460100583600005B25735DD4
:1056D0005B25735D3A2573202825642920626C754B
:1056E000652074657374206F6B2E0A005B25735DF3
:1056F0005B25735D3A2573202825642920626C752B
:1057000065207265736574206661696C2E0A0000FD
:10571000F8B504460D4600BF04F0DEFF0646FF2044
:105720009030074B07A23146009007A00BF09CFE7B
:1057300000BF00222946204602F028FAF8BD0000EA
:1057400015470100583600005B25735D5B25735DCE
:105750003A2573202825642920696E2E0A0000004E
:1057600030B504460D4600222946204602F00EFAC6
:1057700030BD30B504460D4600222946204602F0D1
:1057800005FA30BDF8B504460D4600BF04F0A4FF8D
:105790000646FF209730074B07A23146009007A02E
:1057A0000BF062FE00BF00222946204602F0EEF90F
:1057B000F8BD000022470100583600005B25735DEC
:1057C0005B25735D3A257320282564292042756C7A
:1057D000654D6F64654765744E616D6520BBF1C8AA
:1057E000A1C0B6D1C0C3FBD7D60A000030B504466D
:1057F0000D4600222946204602F0C8F930BD30B5DA
:1058000004460D4600222946204602F0BFF930BD6D
:105810007CB5002500213A48C17300203949087041
:105820006CE03849097814225143374A8918C9680D
:105830000A22514308460CF0B3FF32480078142185
:10584000484331490858002817D02E4B1B7814269E
:1058500073430E469B191B899AB22A4B1B78142658
:1058600073430E469B195968264B1B7814267343C5
:10587000254EF058FFF7EEF8C4B200BF04F02CFF3D
:10588000064620480078FF21AB31204B20A2009132
:10589000019031461FA00BF0E7FD00BF19480078CA
:1058A0001421484318494018006900280FD01548B2
:1058B00000781421484314494018294602692046BB
:1058C0009047002801D1002501E0681CC5B20D48B1
:1058D00000780A2812D100BF04F0FEFE0646FF2021
:1058E000BA300A4B0AA23146009014A00BF0BCFD5E
:1058F00000BFA5210248C17300207CBD91E70000D4
:10590000C80A00207C0100200C460100324701003B
:10591000583600005B25735D5B25735D3A25732067
:10592000282564292067426C7565496E6974537433
:105930006570203D202564200A0000005B25735D12
:105940005B25735D3A2573202825642920626C75D8
:105950006520696E6974206F6B2E0A00F8B50646E3
:105960000C461A480068002814D100BF04F0B4FEA9
:105970000546FF203630164B16A22946009016A089
:105980000BF072FD00BF22480078401C20490870CF
:105990000020F8BD002514E01E4A1FA11FA0FFF73C
:1059A00059F8002806D11A480078401C1849087098
:1059B0000020EEE7012C03DD7D20C0000CF0F0FE9E
:1059C0006D1C032DE8DB0020C043E2E780010020CE
:1059D000FD460100583600005B25735D5B25735D55
:1059E0003A2573202825642920626C75652064653A
:1059F00076743D302C6E6F206E65657420746F2058
:105A000073657420646576743D312E0A00000000D1
:105A10007C010020B80B00004F4B000041542B4488
:105A20004556543D300D0A007FB505460E4605210A
:105A300033480CF06CFD002815D100BF04F04CFE7B
:105A40000446FF201A302F4B2FA2214600902F48EA
:105A50000BF00AFD00BF2E480078401C2C4908704E
:105A6000002004B070BD052225492A48FCF79BFDA3
:105A7000002814D100BF04F02FFE0446FF2021307F
:105A8000204B21A22146009023A00BF0EDFC00BF8B
:105A90001F480078401C1E4908700020E1E70522DD
:105AA000174901A8FEF754F8012101A808F0C4FF26
:105AB000002814D100BF04F00FFE0446FF202A3056
:105AC000104B11A22146009021A00BF0CDFC00BF8D
:105AD0000F480078401C0E4908700020C1E700BF45
:105AE00004F0FAFD0446FF202E30064B06A22146A4
:105AF000009021A00BF0B8FC00BF0020C043B0E72D
:105B0000A6020020F0460100583600004C78010043
:105B10007C010020840100205B25735D5B25735DA3
:105B20003A257320282564292067776D61632069F1
:105B300073206F6B2C206E6F206E65656420746F10
:105B4000207365742067776D61632E0A0000000082
:105B50005B25735D5B25735D3A25732028256429D9
:105B6000207365742067776D616320737563636567
:105B700073732E0A000000005B25735D5B25735D67
:105B80003A25732028256429207365742067776D72
:105B90006163206661696C2E0A00000070B586B0F2
:105BA00005460E46002003900490059005214448C8
:105BB0000CF0ADFC002815D100BF04F08DFD0446AB
:105BC000FF206C303F4B40A2214600903F480BF035
:105BD0004BFC00BF3E480078401C3D490870002047
:105BE00006B070BD0522364903A8FDF7B1FF00BF1E
:105BF00004F072FD04463748FF217331314B32A265
:105C000000910190214634A00BF02EFC00BF00BF94
:105C100004F062FD044603A8FF217431294B2AA237
:105C200000910190214634A00BF01EFC00BF0A2217
:105C300003A92848FCF7B7FC002814D100BF04F0E2
:105C40004BFD0446FF2077301E4B1FA221460090DB
:105C500030A00BF009FC00BF1D480078401C1C4917
:105C600008700020BCE703A808F08EFE002816D1BB
:105C700000BF04F031FD044603A8FF217E31114B23
:105C800011A200910190214630A00BF0EDFB00BF66
:105C90000F480078401C0E4908700020A0E700BFA4
:105CA00004F01AFD0446FF208330064B06A221466D
:105CB00000902FA00BF0D8FB00BF0020C0438FE75F
:105CC00007000020094701005836000094780100C1
:105CD0007C010020EF0100205B25735D5B25735D77
:105CE0003A2573202825642920C0B6D1C0C3FBD72C
:105CF000D6203A25732E0A005B25735D5B25735D04
:105D00003A25732028256429206E616D65203A2587
:105D1000732E0A005B25735D5B25735D3A25732046
:105D200028256429206E616D65206973206F6B2CB6
:105D3000206E6F206E65656420746F20736574201B
:105D4000626C7565206E616D652E0A005B25735D62
:105D50005B25735D3A2573202825642920736574BB
:105D6000206E616D653D2573206F6B2E0A0000006B
:105D70005B25735D5B25735D3A25732028256429B7
:105D800020736574206E616D65206661696C2E0AF2
:105D90000000000010B50A2100200CF073FD0A4934
:105DA00008600020087748620862402207490648D8
:105DB000001D03F017FCFF22013205490248103094
:105DC00003F010FC10BD000090070020FC0700202D
:105DD0003C08002008B5002400F008F9FFF7DAFFBE
:105DE0006CE0FFF715FD3648C069602188433449EF
:105DF000C86161E064200CF0D3FC3148007F4006AC
:105E0000800F01280ED100BF04F066FC0546FF207C
:105E1000A8302C4B2CA2294600902CA00BF024FB80
:105E200000BF4AE026482030C07BA52836D1002597
:105E30003148807900280AD10DF0D4FF4000401B82
:105E4000C82804D309F0B6FF0DF0CCFF450000F0E0
:105E5000D5F80AF013FC07F03FFA02F08BF8274858
:105E60008079012819D10DF0BDFF4000001B2449A5
:105E7000884212D30DF0B6FF4400FEF725FE00BFA6
:105E800004F02AFC0646FF20C4300E4B0EA2314619
:105E900000901CA00BF0E8FA00BF0DE000BF04F07A
:105EA0001BFC0546FF20CA30064B07A2294600907E
:105EB0001EA00BF0D9FA00BF9CE700BF91E70000DD
:105EC000A80A00201A420100583600005B25735DC5
:105ED0005B25735D3A2573202825642920B8B4CE4C
:105EE000BBC0B6D1C0C4A3BFE9B1EAD6BED2D1B45B
:105EF000F2BFAA210A000000E8010020280C0020BF
:105F0000701700005B25735D5B25735D3A25732078
:105F10002825642920426C756553656E6448656167
:105F20007274426561742E0A000000005B25735D87
:105F30005B25735D3A257320282564292042756C02
:105F4000655265636F6E6E656374206572726F7201
:105F50002E0A00001CB50020009001900321684625
:105F600001800121817001716946144805F06AFAC7
:105F700000200090019001218903684601800121E1
:105F80008170017169460E4805F05CFA00200090AE
:105F900001900121C9036846018000218170C17010
:105FA0006946074805F04EFA0221044805F046FA12
:105FB0000121024805F042FA1CBD00000011014019
:105FC0000013014010B50221074805F035FA7D2085
:105FD00000010CF0E5FB0221034805F02FFA7D20BB
:105FE00000010CF0DDFB10BD0011014010B5FFF702
:105FF000B1FFE12040020AF0A7FA10BDF0B5C5B02C
:1060000005AC002700260025CEE1EC48EC494860AD
:106010000A200DF00FFAEB48007803000BF05FFA4E
:106020000805153F6280C0DCF3F26846007CAB28AF
:106030000AD10120E3490870AB2020700120E24919
:106040000880AB20E1490870ADE16846007CCD28AE
:1060500011D10220DB490870CD206070DA48008839
:10606000401CD9490880D94800786946097C401805
:10607000D649087012E06846007CAB280BD101209D
:10608000D0490870AB2020700120CF490880AB2098
:10609000CE49087002E00020CA49087083E16846D2
:1060A000017CC94802880088401CC74B1880A15455
:1060B0000020C74908806846007C002803D10420DE
:1060C000C049087002E00320BE490870BF4801784B
:1060D0006846007C0818BD4908706846007CBD49C8
:1060E000087060E16846017CB74802880088401C5F
:1060F000B54B1880A154B54801786846007C081853
:10610000B2490870B2480088401C80B2B04908808B
:10611000062804D1002008800420AA49087042E122
:106120006846017CA84802880088401CA64B18805D
:10613000A154A64801786846007C0818A349087055
:10614000A3480088401C80B2A1490880022826D1BB
:1061500018460088401E205C000219460988891EE6
:10616000615C08439A49088008460088F02813DDDE
:1061700000209449087000BF04F0AEFA03909448E0
:106180000088FF212C31944B94A20091019094A09F
:1061900003990BF069F902E005208A49087002E1D1
:1061A0006846017C884802880088401C864B18801D
:1061B000A154864801786846007C08188349087015
:1061C00083480088401E80B281490880002802D19F
:1061D00006207C490870E6E06846017C7A4802881F
:1061E0000088401C784B1880A1546846007C774991
:1061F0000978884208D10720724908700020744944
:1062000008801EE0CBE01DE000BF04F065FA0390BB
:106210006846007C6D490978FF2244326E4B00923B
:10622000019102906DA27AA003990BF01DF900BFB5
:1062300065480288214686A006F01AFC00206149C4
:106240000870B0E062480088401C80B26049088055
:1062500002286FD15F480078012846D12646B17ADE
:10626000727A08021043FF21013188420FDD00BF1E
:1062700004F032FA0390FF205230574B57A200909F
:1062800076A003990BF0F0F800BF45B0F0BD0020F8
:106290004F49088020E030460B304D4A1288815C1F
:1062A000794803F0B6F9002805D149480088401C18
:1062B0004749088010E000BF04F00EFA0390FF2069
:1062C0005D30454B45A2009070A003990BF0CCF8CF
:1062D00000BF02200DF0AEF8B17A727A08021043C6
:1062E0003B4909888842D6DC4EE025462979EA7880
:1062F00008021043FF21013188420EDD00BF04F087
:10630000EBF90390FF206630334B34A200906BA072
:1063100003990BF0A9F800BFB7E72979EB780802D9
:1063200018430246691D70A006F0A2FB0020284910
:10633000088021E032E0681D254A1288815C5248BD
:106340000C3803F066F9002805D121480088401C6C
:106350001F49088010E000BF04F0BEF90390FF2041
:1063600071301D4B1DA2009064A003990BF07CF8C6
:1063700000BF02200DF05EF82979EA780802104388
:10638000134909888842D6DC00200E490870781C21
:10639000C0B20746012801DB002776E703E00020B2
:1063A0000849087000BF00BF04A95F4803F0FEF869
:1063B000002800D129E600BF67E700003EAA0000E0
:1063C000000001405E000020600000205F0000200F
:1063D00062000020640000200E42010058360000D8
:1063E0005B25735D5B25735D3A2573202825642941
:1063F000206C656E3D25642CBDD3CAD5CAFDBEDDBB
:10640000B0FCB5C4B3A4B6C8B4EDCEF3200A000006
:106410005B25735D5B25735D3A2573202825642910
:1064200020BDD3CAD5CAFDBEDDD0A3D1E9B4EDCE1F
:10643000F32C73756D203D20307825782C706B74AB
:106440002073756D203D20307825782E0A000000DD
:10645000323447526563765461736B005B25735D1C
:106460005B25735D3A2573202825642920322E345C
:1064700047CAFDBEDDB3A4B6C8BDD3CAD5B4EDCE00
:10648000F3A3A10A00000000A00700205B25735DB4
:106490005B25735D3A2573202825642920322E342C
:1064A000672062756666206F76657220666C6F770E
:1064B000206572726F722E0A000000005B25735D0A
:1064C0005B25735D3A2573202825642920C0B6D149
:1064D000C0CAFDBEDDB3A4B6C8BDD3CAD5B4EDCE27
:1064E000F3A3A10A00000000426C75655461736B50
:1064F0002062742072656376000000005B25735D86
:106500005B25735D3A257320282564292062742059
:1065100062756666206F76657220666C6F7720659F
:1065200072726F722E0A0000500D0020F8B50546F9
:106530002C461134201DFCF74CF806462046FCF78B
:1065400048F80746A07A0090607A217A0002084352
:106550000246334639460E480AF086FF05F010FF22
:1065600001F08CFE05F002FF201DFCF732F8064614
:106570002046FCF72EF80746A37A607A227A0002BA
:1065800010430146324638460AF0CCFAF8BD000006
:1065900008700100F3B587B005462E786C1C08988A
:1065A000401E87B25448817A427A0802104301287B
:1065B00074D1202F72DB5048C6722078AA286FD180
:1065C000607855286CD120461030069002224BA1ED
:1065D0000698801DFBF7E7FF00284FD10698FBF7D0
:1065E000F8FF45490590FBF7FEFF069841790279CF
:1065F0000802104340490871000A48713A46203A9F
:1066000021462031002003F0F9FD012810D100BF00
:1066100004F062F80590FF203230394B37A2009029
:1066200038A005990AF020FF00BF002009B0F0BD96
:106630003148817A427A08021043401C81B22E48C8
:106640004172090A817200BFFBF7C3FF059004F095
:1066500043F8294904904879097900020843FF2248
:1066600036320599264B00920191029023A22EA06A
:1066700004990AF0F9FE00BF0120D7E700BF04F03B
:106680002BF80590FF203B301D4B1CA2009034A03E
:1066900005990AF0E9FE00BF0020C7E710E0FFE718
:1066A00000BF04F019F80690FF204130144B13A2EC
:1066B000009034A006990AF0D7FE00BF0020B5E78D
:1066C0000D48C07AB0420FD100BF04F005F8069023
:1066D000FF2048300A4B09A2009033A006990AF027
:1066E000C3FE00BF0120A1E70348C6723946204619
:1066F0000AF072FB9AE70000780C00205836000080
:10670000F14501005B25735D5B25735D3A257320C0
:106710002825642920666C6173683220D0B4CAFDD4
:10672000BEDDB4ED2E200A005B25735D5B25735D35
:106730003A257320282564292066772068656164DE
:1067400020696E666F3A73697A653D25642020631F
:106750006865636B53756D3D2558200A0000000085
:106760005B25735D5B25735D3A25732028256429BD
:10677000206677206E616D65206572726F722E20C3
:106780000A0000005B25735D5B25735D3A2573206D
:106790002825642920667720686561642065727207
:1067A0006F722E200A0000005B25735D5B25735D10
:1067B0003A257320282564292063757272656E74EA
:1067C00020706163616B6765206973207265706515
:1067D0006174207472616E736D6174652E2E0A008F
:1067E000F8B5002406F00AFC00BFF0E0A0007A49EA
:1067F00009580C206043794A8018C0880818A10005
:10680000754A5050A000114608587549884224D353
:10681000E0007449081803684168A000105800227D
:1068200018185141E2006F4B9A1803C20020A100D2
:10683000694A5050E00019460818694A0023056863
:1068400041682846FBF7FAFDA100674A51584018F5
:106850000C216143614A89188860A0006349471888
:106860000C2060435D4940184088614988420FDB35
:10687000B878401CC0B2B870052809DB0C20604312
:106880005649085C042108430C216143534A505483
:106890000C206043514940184088192189018842E1
:1068A00041DC7878401CC0B27870052809DB0C20E8
:1068B00060434A49085C082108430C216143474A68
:1068C00050540C206043454940184088FF212D3129
:1068D000884218DA3878401CC0B23870052822DBAC
:1068E0000C2060433D49085C082108430C216143AA
:1068F0003A4A50543F48C069FF2181318843803073
:106900003C49C8610FE07878401CC0B27870052817
:1069100009DB0C2060433149085C082108430C2145
:1069200061432E4A50540C2060432C494018408843
:1069300019218901884224DD0C2060432749401831
:1069400040882B4988421CDA0020B87078700C20EF
:1069500060432249085C042188430C2161431F4A9B
:1069600050540C2060431146085C082188430C21D8
:10697000614350541F48C069FF21813188431D493C
:10698000C8610C2060431549401880881A49884224
:1069900010DBF878401CC0B2F870052816DB0C201C
:1069A00060430E49085C022108430C2161430B4AF5
:1069B00050540BE00020F8700C2060430749085C3D
:1069C000022188430C216143044A5054641C022C68
:1069D00000D20BE7F8BD00009C000020400C002016
:1069E000407E0500580C0020940000208C00002000
:1069F000280A0000A80A002070170000F0B59DB01A
:106A000004460D461646702101A8FBF7A6FD03A813
:106A1000033000900098071D7C703D7033460222C1
:106A200001A9104607F02CFE112201A902A006F0D0
:106A30001FF81DB0F0BD0000CAD5B5BD5236BAF37F
:106A4000CCA8B5C4BCF8C8A8BAF32C20B7B5BBD83D
:106A5000BCF8C8A8BDE1B9FBD3A6B4F000000000A3
:106A60007CB505462C1DA8781D49097888420BD1B4
:106A700003F0DCFE21781B4A1279891A8A001A4930
:106A80008958401A782829D903F0D0FE2178154A70
:106A90001279891A8A0014498850A8781049087018
:106AA000002120780F4A1279821A1048815405F08B
:106AB0002DFC6078AE2802D16B2005F06BFC00BF86
:106AC00003F00AFE0646207809490A4B0AA2009103
:106AD0000190314609480AF0C7FC00BF7CBD0000A8
:106AE00075000020E8010020F80A002005030020BE
:106AF000BF0200008242010058360000EC6C010029
:106B0000FEB505462C1D18222946EFA005F0B0FF62
:106B10002078F3490979401A401CC6B20022701E41
:106B2000F0490A54A878F0490978884208D103F05E
:106B30007DFE711E8A00ED498958401A78287DD95A
:106B400003F074FE711E8A00E8498850A878E6496F
:106B50000870607803000AF0C2FC0604FBFAF9F83A
:106B6000F7F600BFE01CFBF734FD074603F0B4FD69
:106B70000290DF48DF4BE0A201970090DFA002996E
:106B80000AF072FC00BFE01CFBF723FDD74938393F
:106B900088610846806964280BD20846203005F0D9
:106BA000C3FA092005F084FED048183805F0B8FA79
:106BB00075E103F0C5FDF0281CD300BF03F0C0FD54
:106BC000074603F089FD0290C9480D30C94BCAA29F
:106BD00001970090D1A002990AF046FC00BF2078EE
:106BE000BF4B1B79C01A401CC1B2AA780120FFF725
:106BF00005FFFEBD0120BD493839C8712078B8496C
:106C00000979401A401CB949383988712078B44B49
:106C10001B79C01A401CC1B2AA780020FFF7EEFE13
:106C2000B248183805F080FAB0493839886908F058
:106C300089F9AE48183805F073FA00E030E1C6482B
:106C4000007801287ED1A94838388069C82804D93D
:106C5000C820A6493839487105E0A4483838007E74
:106C6000A24938394871A14838388079401E6921D5
:106C70004843BA4940184078002818D000BF03F0B4
:106C80002BFD0746994838388079401E69214843D2
:106C9000B2494018407896492831964B96A2009107
:106CA00001903946AEA00AF0DFFB00BFA1E78F4993
:106CB0003839887901F07AF800286CD18B48183877
:106CC00005F032FA207808F0B2FA8848183805F052
:106CD00027FA8648383882798079401E1221484345
:106CE0007F4927314018427080483838C27980790E
:106CF000401E122141437A482730081882707B4A8F
:106D0000383A9279521E12235A43754B2733D218C0
:106D1000D11C764A383A5079FBF765FCAA7873485B
:106D200038388079401E122148436D492731401878
:106D300042746E4938398979491E12225143684A92
:106D4000273206E019E081E083E081E058E026E0A8
:106D50007DE08918C81D0A22E11DFBF7E5FB012231
:106D6000701E122148435E4927310A5403F06AF924
:106D700001217A48403041743BE700BF03F0ACFC8E
:106D800007465B4840305B4B5BA2394600907FA0D2
:106D90000AF06AFB00BF00206F4908707FE020788E
:106DA0004F4B1B79C01A401CC1B2AA780020FFF7D4
:106DB00025FE4E48183805F0B7F9092005F078FD92
:106DC0004A48183805F0ACF9A078002809D1E01C31
:106DD000FBF7FFFB454938398861092005F068FD5C
:106DE0000DE000BF03F078FC074641485230414BAC
:106DF00041A2394600906EA00AF036FB00BF4EE07B
:106E00002078374B1B79C01A401CC1B2AA780020E9
:106E1000FFF7F4FD3548183805F086F90A2005F02B
:106E200047FD3248183805F07BF900BF03F054FCE9
:106E3000074660782E495D312E4B2FA200910190BC
:106E4000394667A00AF010FB00BF28E000BF00BF72
:106E500000BF2078224B1B79C01A401CC1B2AA780F
:106E60000020FFF7CBFD2148183805F05DF90A2016
:106E700005F01EFD1D48183805F052F900BF03F05B
:106E80002BFC074660781A496A311A4B1AA2009106
:106E90000190394652A00AF0E7FA00BFA9E610E0D7
:106EA00000BF03F019FC07460F4800781049703105
:106EB000104B11A200910190394658A00AF0D4FA63
:106EC00000BF00BF95E60000CAD5B5BD5236BAF383
:106ED000CCA8B5C4BFA8BCF8C8A8CFECD3A6000006
:106EE000E80100200503002076000020E00A0020D1
:106EF000DD02000097420100583600005B25735DFB
:106F00005B25735D3A2573202825642920BFA8C618
:106F1000ACD3E0B6EE5B25645D0A00005B25735DD3
:106F20005B25735D3A2573202825642920C0FACAA1
:106F3000B7B6A9B5A5CCABB6E0B2BBD4CAD0EDB359
:106F4000E4B5E7486973746F72794F726465724E85
:106F5000756D3A2564200A006D000020D4090020D8
:106F60005B25735D5B25735D3A25732028256429B5
:106F700020B2E5D7F9B1BBD5BCD3C367756E5F73DB
:106F8000746174655B25645D200A00005B25735D98
:106F90005B25735D3A25732028256429206361727F
:106FA0006420726571206661696C2E0A0000000021
:106FB0005B25735D5B25735D3A2573202825642965
:106FC000206D6F6E74682063617264206368617203
:106FD00067652074696D6573206572722E0A000002
:106FE0005B25735D5B25735D3A2573202825642935
:106FF0002063617264206964656E746966792066D5
:1070000061696C7572652C20726573756C743D25B1
:10701000642C6572726F722E0A0000005B25735D2E
:107020005B25735D3A2573202825642920D0F2C1A1
:10703000D0BAC5CFE0CDAC2053657269616C4E7596
:107040006D203D2025642E0A0000000064E000242D
:1070500001F0C4F801F0CCF83048807900280AD15A
:107060000CF0C0FE4000001BC82804D305F09AFFB6
:107070000CF0B8FE440003F0C9FB012803D10BF06B
:10708000F1FA012810D003F0C1FB012808D103F068
:10709000CDFB05462248FBF79CFA281A0F2803D897
:1070A00003F0BCFB012805D11A2005F001FC0020EB
:1070B00006F044FF1B48C079AE280BD10122002105
:1070C000104608F01FF900211648C17116A00AF0F9
:1070D000CBF910E01348C01D4078AE280BD1012237
:1070E0000021022008F00EF900210E48C01D417059
:1070F0000DA00AF0B9F90BF025FA104840690821F3
:107100000840002804D10EA00AF0AEF902F0F4F90C
:1071100064200BF045FB00BF99E70000E801002068
:1071200009030020280C002067436867496E666FDA
:107130002E67756E5F69645B305D0A0000F4004085
:107140005BBDF8C8EB456E7465725F5374616E6425
:1071500042792C2043617264417574685461736B89
:107160005D0A000070B5054600247848854200D9C4
:1071700070BD77492846FBF737F9C4B2002C72D0AE
:1071800021461F31C8B205F093FBFA200BF008FB33
:107190002B2005F08DFBFA200BF002FB7D21C900AE
:1071A0002846FBF721F906460A21FBF71DF90C4694
:1071B000002C21D021461F31C8B205F079FBFA20FE
:1071C0000BF0EEFA2C2005F073FBFA200BF0E8FA36
:1071D00064212846FBF708F906460A21FBF704F963
:1071E0000C46002C21D021461F31C8B205F060FBAF
:1071F000FA200BF0D5FA18E064212846FBF7F4F8E2
:1072000006460A21FBF7F0F80C46002C0DD01F2093
:1072100005F04EFBFA200BF0C3FA21461F31C8B22D
:1072200005F046FBFA200BF0BBFA0A212846FBF7D3
:10723000DBF806460A21FBF7D7F80C46002C0DD0E8
:107240002E2005F035FBFA200BF0AAFA21461F315B
:10725000C8B205F02DFBFA200BF0A2FA142005F0BD
:1072600027FB71E0FFE77D21C9002846FBF7BCF84A
:10727000C4B2002C3FD0012C07D021461F31C8B228
:1072800005F016FBFA200BF08BFA2C2005F010FB12
:10729000FA200BF085FA64212846FBF7A5F806468C
:1072A0000A21FBF7A1F80C46002C07D021461F311C
:1072B000C8B205F0FDFAFA200BF072FA0A2128464E
:1072C000FBF792F806460A21FBF78EF80C46002CD5
:1072D0000DD02E2005F0ECFAFA200BF061FA2146D1
:1072E0001F31C8B205F0E4FAFA200BF059FA142065
:1072F00005F0DEFA28E064212846FBF775F8C4B2F1
:1073000021461F31C8B205F0D3FAFA200BF048FA33
:107310000A212846FBF768F806460A21FBF764F8BD
:107320000C46002C0DD02E2005F0C2FAFA200BF0EE
:1073300037FA21461F31C8B205F0BAFAFA200BF02D
:107340002FFA142005F0B4FA00BF11E79F86010060
:107350001027000000B5B5B0D2236A4604490320C7
:1073600005F0B0FE024807F0EDFC35B000BD0000AE
:10737000D4090020F0B58FB00024002600200B9027
:10738000FE4988886421FBF72FF80746FB49088AE5
:107390006421FBF729F8381864280CD3F7480078E3
:1073A00010210843F54908700846007B1021084366
:1073B000F24908730BE0F148007810218843EF4947
:1073C00008700846007B10218843EC4908730125AA
:1073D0004BE2681E69214843E9494418681E902120
:1073E0004843E84946180CA9284603F09BF9A078C1
:1073F000002872D008A8007C00286FD008A8007C64
:10740000C007C00F002806D00A21542001550121D1
:10741000552001557BE008A8007C04210840002885
:1074200008D0132154200155015D552001553B2002
:1074300005F03EFA08A8007C02210840002808D088
:10744000122154200155015D552001553B2005F0C6
:107450002FFA08A8007C10210840002848D0C7490E
:1074600088886421FAF7C0FF0746C449088A642166
:10747000FAF7BAFF381864283AD33B2005F018FA17
:107480004B20C00001F05EFF00BF03F025F9074666
:10749000BA48008AB9498988FF22DD32BA4B009286
:1074A00001910290B9A23946B9A009F0DDFF00BFF1
:1074B000B3484330FBF78DF80746B148AC30FBF7D3
:1074C00088F887420BD21221AD48A93001755420AB
:1074D000015DAB48A93041750AE0C5E15EE01221CB
:1074E000A748403001755420015DA54840304175E2
:1074F00008A8007C08210840002808D0B3A009F0A3
:10750000B3FF142154200155015D5520015500BFE2
:1075100003F0E2F8074608A8007CFF21F2319A4BFD
:107520009AA20195009102903946AB4809F09CFF60
:1075300000BF681E36214843A84940182030057115
:107540000522681E36214843A44940182430427061
:107550000022681E36214843A0494018243082701A
:107560006A1E36235A430B46D2181146273108AA01
:10757000107CFBF738F80122681E362148439749F2
:1075800040182430C2710222681E362148439349B4
:1075900040182430027202F055FD55E02046473075
:1075A000FBF717F80E99884226D220464730FBF7A2
:1075B00010F80E99081A81B2204643300176090A64
:1075C000417600BF001DFBF704F8074603F084F87E
:1075D0000A9020464330417E027E08021043804AD2
:1075E0000E99694B019700920291039067A27D4822
:1075F0000A9909F039FF21E020464730FAF7E9FF00
:107600000E9988421AD900BF20464730FAF7E1FFA9
:10761000074603F061F80A907149491D0E985A4BCC
:107620005AA20197009102906FA00A9909F01CFFDD
:1076300000BF214647310E98FAF7D5FF6A46D18E32
:10764000E8B2224603F066F95420005D0C2816D0FB
:1076500000BF03F041F807465420005DA178604A5E
:107660000D32494B00920191029048A239466A4876
:1076700009F0FAFE00BFE8B205F06EFA28E03089A2
:107680000A21FAF7C7FE0B9940186449884219DBB2
:10769000152154200155072155200155E8B205F068
:1076A0005BFAE8B206F092FB00BF03F015F807465C
:1076B0004B481C30344B35A23946009058A009F095
:1076C000D3FE05E030890A21FAF7A4FE80B20B90C0
:1076D00003F0ACF83168401A3C284DD903F0A6F805
:1076E0003060204661304178027808021043401C27
:1076F00081B2204661300170090A417000BF03F079
:1077000095F8074620464330FAF763FF381A3C21C4
:107710000890FAF769FE0A9002F0DEFF0990204611
:107720006130417800780902014320464330437EAE
:10773000077E18023843034620464330477B007BD0
:107740003F0238430A9A06930792089105906846CB
:10775000818EC08E6422424320464330437D077DA4
:107760001802384364235843019503920491029010
:107770001B482830044B6DE073E00000400C0020F3
:10778000D4090020080B0020ED4401005836000009
:107790005B25735D5B25735D3A257320282564297D
:1077A0002067756E5B305D2E63757272656E742036
:1077B0003D2025642C67756E5B315D2E637572729A
:1077C000656E743D25642E0A00000000C9E8B1B85A
:1077D000C7B7D1B9210A0000DC75010033020020CF
:1077E00009020000747001005B25735D5B25735D09
:1077F0003A25732028256429207374617274456CBE
:1078000065633D25642C656C65633D25642C65725C
:10781000726F722E0A0000001471010098080000B7
:107820005B25735D5B25735D3A25732028256429EC
:10783000205361766520B7A2CBCDBDE1CAF8B3E491
:10784000B5E7CDA8D6AA20746F20666C617368373F
:107850002E0A000009A200900948099909F004FEC7
:1078600000BF0A200AF09CFF6D1C022D00DCB0E571
:1078700004490B9848800FB0F0BD00005836000056
:10788000F0740100A80A0020F0B589B0002008902B
:10789000002600240790012527E1681E692148433E
:1078A0009D494418A07800287ED0681E9021484346
:1078B0009A494018079007988030807900281DD099
:1078C00002F0B4FF0146079880308068081A3C280F
:1078D00014D900BF02F000FF0746FF205230904B42
:1078E00090A23946009090A009F0BEFD00BFE8B21A
:1078F00003F000FC0021079880308171012008907E
:10790000207C022806D0207C01284DD14220005D39
:107910000028C9D05A20005DC100204612300E1840
:1079200022466132537817781A023A4373793779CD
:107930001B023B435A431046F279B37912021A43B1
:107940001146FAF767FD81B2204643300173090AF8
:10795000417300BF02F0C0FE074620464230417C22
:10796000027C08021043014620464330427B037BE1
:1079700010021843024620466130437800781B020B
:107980001843FF235F330093029203910190644BED
:1079900064A239466B4809F067FD00BF20464330BA
:1079A000417B027B080200E09DE01043214642310A
:1079B0004A7C0B7C11021943884252DB00BF02F063
:1079C00035FF074620464330FAF703FE381A3C21BC
:1079D0000490FAF709FD069002F07EFE059020461D
:1079E0004230427C037C100218430246204643305A
:1079F000437B007B1B021843069904950292039176
:107A00000190FF206530464B46A200904E480599F4
:107A100009F02AFD00BF20464230417C027C08026A
:107A20001043214643310873000A48730021542053
:107A30000155032155200155E8B205F08DF8E8B253
:107A400006F0C4F900BF02F047FE0746FF206C3085
:107A5000334B34A2394600903CA009F005FD00BF2D
:107A600042E02046613041780278080210432D211F
:107A70000901884237DDF279B37912021A431146BF
:107A80007279337912021A433D4B5A431046FAF782
:107A9000C1FC07463C21FAF7BDFC81B220464330C9
:107AA0000173090A41730C21542001550521552009
:107AB000015500BF20464330FAF78BFD074602F020
:107AC0000BFE0690FF208830154B16A26946A1C117
