:020000040000FA
:040FC000A2FFFFF796
:020000040000FA
:10200000C86900204D2100005521000075800000A6
:1020100000000000000000000000000000000000C0
:102020000000000000000000000000005921000036
:1020300000000000000000000B210000D50201009C
:102040005F2100005F2100005F2100005F21000090
:102050005F2100005F2100005F2100005F21000080
:102060005F2100000D0401006D040100CD0401009A
:102070002D050100A9050100090601005F210000EE
:102080005F2100005F2100005F2100003F0301008D
:102090005DB000005F2100005F2100005F210000B3
:1020A0005F2100005F2100005F2100006906010040
:1020B0005F2100005F2100005F2100005F21000020
:1020C0000348854600F01AFE00480047411A010007
:1020D000C8690020084B19680868203080F3098817
:1020E000022080F31488BFF36F8F3FBCAE4608BC5C
:1020F00004BC62B618470000A0000020EFF3108077
:1021000072B6704780F310887047EFF309800E4B6A
:102110001A6820381060F0C044464D4656465F4667
:10212000F0C008B572B610F00BFC62B60CBC1168BA
:1021300008681030F0C8A046A946B246BB4680F3F6
:1021400009882038F0C81847A000002004488047BC
:1021500004480047FEE7FEE7FEE7FEE7FEE7FEE78E
:102160003D030100C120000030B50B4601460020B0
:102170002022012409E00D46D5409D4205D31D468D
:102180009540491B2546954040191546521E002D85
:10219000F1DC30BD70B500242546002801DA0124A9
:1021A0004042002901DA01254942FFF7DDFFAC4238
:1021B00000D04042002C00D0494270BD38B50446E2
:1021C000C0681821401E4843A16840183C2148437C
:1021D000616840183C2148432168451860690C211A
:1021E0004843216940186921C900401A3021FFF78E
:1021F000D1FF114A50434219084600921A2902DBC6
:102200000E49511800910C21FFF7C4FF0C4A5043AE
:10221000009A801800900B4806E0491E425C074B6C
:102220005A43009BD21800920029F6DC21466846EA
:1022300000F09EFB009838BD801F8607805101008A
:102240008033E101973A010003460B439B0703D01B
:1022500009E008C9121F08C0042AFAD203E00B786B
:102260000370401C491C521EF9D27047D2B201E0E3
:102270000270401C491EFBD270470022F6E710B5E1
:1022800013460A4604461946FFF7F0FF204610BDE4
:10229000421E5378521C002BFBD10B781370491C43
:1022A000521C002BF9D1704730B505462A460B4623
:1022B00010781C78521C5B1C002801D0A042F7D07B
:1022C000002C03D0002802D06D1CEFE7284630BD5B
:1022D00010B5044605E00B780370401C002B00D0BD
:1022E000491C521EF7D2204610BDCAB2401E41788A
:1022F000401C8A4202D00029F9D100207047421CBC
:102300000178401C0029FBD1801A704730B5044683
:102310000020034600E05B1C934203D2E05CCD5CEE
:10232000401BF8D030BD30B505460020034600E024
:102330005B1C934205D2EC5CC85C201A01D1002CD6
:10234000F6D130BD0321001D401E037812021A434E
:10235000491EF9D510467047034603220870000A4B
:10236000491C521EFAD51846704700000FB400B53C
:102370008DB009900B9010A900200091C0430A90E5
:1023800000200C9006480690064807906A4609A867
:102390000F9900F03DFB0DB008BC04B018470000D9
:1023A000312A0000512A0000FFB50027FF4383B007
:1023B00000205C6801909E681D46A9697F1C0498F6
:1023C00088470090296A88470028F6D10098401C69
:1023D0000CD0032040028443002E19DD600614D582
:1023E00000982B2809D02D280FD103E00020C043EE
:1023F00007B0F0BD012080020443A9697F1C049846
:102400008847761E0090002E02DD0098302803D009
:102410000598002825D035E0012040020443A96931
:10242000761E7F1C049888470090002E03DD7828D4
:1024300005D0582803D00598002810D022E0059830
:10244000002801D010281DD1012040028443A96931
:10245000761E7F1C049888470090102002E0082018
:1024600000E00A2005900DE0012149020C43059A85
:102470000199761E514308180190A9697F1C0498A0
:1024800088470090002E05DD0599009800F0AAFA13
:102490000028E9DAE96904988847A00502D40120F8
:1024A000C043A5E7E00722D1600611D56005019879
:1024B00000D5404229680A1D2A600968220501D515
:1024C000087014E0220701D5088010E008600EE0D3
:1024D0002868011D29600068210502D50199017055
:1024E00005E02107019901D5018000E0016038462F
:1024F0007EE7FFB5002083B000905068019091699D
:102500001446002697680498884705460C99069853
:10251000084305D009E0A169761C04988847054660
:10252000216A284688470028F5D1681C03D0019805
:10253000C00704D017E00020C04307B0F0BD2068FA
:10254000011D2160006800900DE00198C00704D1D2
:10255000009805700098401C0090A169761C7F1EB1
:10256000049888470546002F1CDD681C1AD0069881
:1025700000280FD0E817C00E401941118A000699B3
:102580004009511840012A1A09680120904001426F
:10259000DBD107E00C980028D7D1216A284688476C
:1025A0000028D2D0E169049888470C98002807D108
:1025B000002E05DD0198C00702D1009800210170AE
:1025C000A068B84204DD0C98002804D0002F02D087
:1025D0000120C043B1E73046AFE770B506460EF0C4
:1025E00021FD046805460A220021304600F042FA27
:1025F0002C6070BDF0B507460846584087B0C00F44
:10260000049048000E46590040084908BC1A884109
:1026100005D2384631461E4617460B46024658003C
:10262000400810434CD0300D039040055900400D38
:10263000490D0590401A0290402872DA18030121D2
:10264000000B09050843019004980092002805D06A
:102650000199524200208841009201900298402145
:102660000A1A0199009800F047F905460C466B4696
:1026700007CB00F062F9C0197141039A0E0D0023D7
:10268000D71756401A467A40164344D0049A002A77
:102690002DD0029A012A039A15DC1205C01A914125
:1026A00001263605001C7141D20F059ED20700930A
:1026B000019202962A46234600F021FA07B0F0BDA7
:1026C00038463146FAE71605224A0F46B218C01AB4
:1026D000B74101210905001C4F4100187F411146F7
:1026E00018187941E20F10436D19644113E0E207B5
:1026F0006D0815436408C2071443039A01261205A6
:10270000C01A91413605001C7141CE074008304384
:102710004908C01851412A46234600F0E3F9CDE7A5
:10272000FFE7049801224000C117121A00238B41D1
:1027300004983146C417381AA141EEE730B4012499
:10274000E407634030BC55E730B40124E40761403E
:1027500030BC4FE70000E0FFF0B51FB488B00B9924
:102760000998002448400999C00F49004908099177
:10277000C0070B990090490049080B9109990898E6
:10278000A64608431CD00B990A98084318D009980C
:1027900001244000420D4800410D09982405000322
:1027A000000B204309900B980003000B20430B9073
:1027B00050181C494018002201901446104605E0AC
:1027C000002001460DB0F0BD032801DA034600E009
:1027D00003239C46C11A0AAE0AE05F0008ADED5B18
:1027E0004F00F75B7D430027AA187C41491C5B1E04
:1027F0006145F2DD410004AB5A522104120C0A4338
:10280000240C401C0828DFDB0198029000997046D8
:1028100001910090059B049A0799069800F06FF9C2
:10282000D0E700000DFCFFFF0EB5C217C10F5040EE
:10283000CA0740180021054B0293019200910A46F5
:102840000B4600F05CF903B000BD0000330400004B
:1028500070B5CD0F4A0009030123090B1B0519436D
:102860000B4BED070024520D9A4201DA002070BD97
:10287000074B34339A4203DC9A1A00F04DF802E019
:102880000449511888402C43F1D0404270BD0000EB
:10289000FF030000CDFBFFFFF0B51FB4064600208C
:1028A00082B005464024019100901BE00199224628
:1028B0000F46304600F030F8049A059B801A994183
:1028C00010D310461946224600F016F8361A8F41EA
:1028D0000197224601200021009F00F00DF83818D2
:1028E0004D4100902046641E0028DFDC019B0098CB
:1028F0002946324607B0F0BD10B5202A04DB014658
:10290000203A9140002010BD914020239C1A03469C
:10291000E3401943904010BD10B5202A04DB08465F
:10292000203AD040002110BD0B46D340D040202497
:10293000A21A91400843194610BD10B5202A06DBA3
:10294000CB170846203A1041C1170B4306E00B464F
:102950001341D0402024A21A91400843194610BDCB
:1029600010B5024900F004F810BD00009C59002089
:1029700070B50C4600683C21FFF7F6FB21603C2156
:10298000FFF7F2FB61601821FFF7EEFB0546A1603F
:102990000721001DFFF7E8FBA1610F48A9000818F7
:1029A0000E49FFF7E1FB0246443288086261E061AC
:1029B0003B2802D3910700D0401C0021084B0A4657
:1029C0002161995C814203D8401A521C2261F8E7C8
:1029D000401CE060204670BD6C0B0000B505000097
:1029E000A33A01003A2800D23038202302469A4305
:1029F000412A01D310463738884201D30020C04312
:102A0000704700000268137851180160184670473B
:102A100010B5D1600449516104491162002111616E
:102A2000114600F08BF910BD052A0000292D000089
:102A30004268002A08D001680B78491C002B03D09B
:102A4000521E06C0184670470121C160881E70479B
:102A50004268002A0BD0C3680168002B07D1836845
:102A60008B4204D0491E521C06C000207047002033
:102A7000C0437047F7B5009C0F4600262578641CBC
:102A8000002D05D000F04CF90068405DC007F5D17D
:102A90002B2D02D02D2D18D0641E39462046029AC7
:102AA00000F0E8FA002F04D03968A14201D1009962
:102AB00039607105022400290BDA4042002803DD49
:102AC0000EF0B0FA0460A007FEBD012080020643AC
:102AD000E3E70028F8DA0EF0A5FA04600048FEBD2E
:102AE000FFFFFF7F10B5002B08DA0024401C614176
:102AF00092185B411A4301D14008400010BDF0B567
:102B00001FB482B005460C0003D008460EF064FAEC
:102B100002E00EF061FA203002460090214628467D
:102B2000FFF7EAFE049B059A04460F46184311433B
:102B3000084314D0184610431BD0009840210A1AAD
:102B400018460599FFF7E8FE05460E46009A0599D6
:102B50000498FFF7D1FE084305D0012004E0204689
:102B6000394607B0F0BD0020C11705430E432C4382
:102B7000374300990E986305401A7905E40A00224C
:102B80000C43FD0A0A3002D500200146E9E70105A1
:102B9000101969410C9C0D9D00196941FFF7A2FFB6
:102BA000DFE70000F0B50C465C4085B0E40FE407B9
:102BB00003944C00002664085900944649080246D4
:102BC0000296224321D062460A431ED06200570D6E
:102BD0004A000E032303550D012402462C49240507
:102BE000781B1B0B360B401823432643614600908D
:102BF0001C46501AB44103D30098401C009002E0D8
:102C0000921800985B41002803DA0020014605B0C5
:102C1000F0BD0020012109050746864611E0644603
:102C20001D46141BB54106D36546521BB34174467D
:102C300007430C43A646CD0740084908284392188D
:102C40005B4105460D43EAD11046184313D0604658
:102C5000194650407140084306D06046101AB341EF
:102C600006D20122002306E000220123DB0702E056
:102C70000122D2435310009874460105381C61416B
:102C8000029C039D00196941FFF72CFFBFE700007C
:102C9000FD0300004A0009030123090B1B0519432A
:102CA0000A4B10B5520D9A4202DA0020014610BDBF
:102CB000064B34339A4203DC9A1AFFF72DFE10BDFF
:102CC000034BD218FFF718FE10BD0000FF030000F1
:102CD000CDFBFFFF10B5002904DB0124E4074042CF
:102CE0008C412146002B04DB1C460123DB075242AA
:102CF000A341994200D1904210BD0000064C01252D
:102D0000064E05E0E36807CC2B430C3C9847103493
:102D1000B442F7D3FFF7D8F92C4601004C46010026
:102D200000487047303B010010B50446FFF7F8FF3C
:102D30000068005DC007C00F10BD0000F3B58DB086
:102D400000200A9001200B90002608460C300C460B
:102D500009906269012109989047051E2ED0252D02
:102D60002DD0216A8847002818D06269012109986E
:102D70009047216A88470028F7D1411E6269099867
:102D8000904700E0761CA1690D988847216A884722
:102D90000028F7D1E1690D988847DAE7A1690D9815
:102DA00088470746A84201D1761CD2E7E1690D9811
:102DB00088477F1C02D10A98002877D049E1002774
:102DC00062693D463946099890472A280CD16269C4
:102DD000012109989047012506E00A214F433F1839
:102DE000303FEBD4102005436269012109989047D8
:102DF000014630390A2903D29B498F42DEDCECE7D9
:102E0000E90600D4994F6C280AD04C2810D06828C5
:102E100024D06A282ED074280CD07A280AD00DE04D
:102E200062690121099890476C2823D004211CE095
:102E3000202005436269012109989047A7606560D9
:102E400065284FD026DC582839D01ADC452849D0CF
:102E500012DC252834D04128B0D143E06269012139
:102E600009989047682802D008210D43E6E7012021
:102E7000C002DEE70220DCE7462833D047282CD109
:102E800030E05B2870D061282CD063286CD0642897
:102E900023D161E06F284FD009DC662822D0672853
:102EA00020D0692826D06E2817D12EE0CDE07028DA
:102EB0004DD073286FD075284ED078280DD154E0AE
:102EC000A1690D9888470546252800D16CE7E1697E
:102ED0000D9888476D1C00D16DE7BAE00A224CE0DE
:102EE0000A2252E0012023466A46C0430D99C0469B
:102EF000C046A3E02846402108436060A807234657
:102F000001D5002239E000223FE0E80700D020E7A9
:102F10002068011D21600068290501D5067018E7A9
:102F2000290701D5068014E7A90703D5F117066024
:102F300041600EE706600CE72846402108436060C8
:102F4000A807234601D5082217E008221DE04849BA
:102F500028460840606016E028464021084360602B
:102F6000A8072346BCD5B9E715E028464021084309
:102F70006060A80707D5234610220120C0430D99A1
:102F8000C046C0465AE0234610220120C0430D9996
:102F9000FFF70AFA52E000210C910B4600916328DA
:102FA00002D05B2807D043E0E80601D40120A060EE
:102FB000012000903CE062690121099890475E2859
:102FC00005D101200C90014662690998904721695A
:102FD000002906D10B4601AA8F00491CD3510829AC
:102FE000FADB002835D0216900290ED1C117C90E9E
:102FF00009184A11930001AA9A1849094901411A6E
:103000000120136888400343136062690121099815
:1030100090475D28E5D10C98002808D0002001AB2E
:1030200081005A58401CD2435A500828F8DB01ABA3
:1030300001202246C0430D99FFF75BFA00280ADA07
:10304000401C06D10B98002803D00020C0430FB0CD
:10305000F0BD0A98FBE7E90702D10A99491C0A91D9
:10306000361800200B9074E6CCCCCC0CFFFFFF7F11
:10307000F1F7FFFFF7B582B0029C00272078641CAF
:1030800015460197302802D0002D15D015E0207884
:103090000127641C782804D0582802D0002D09D0BC
:1030A0000BE0002D01D0102D07D10027102520782E
:1030B000641C02E0082500E00A250026009610E0C6
:1030C0000099012769430818020C294680B2714310
:1030D00000908E183804864201D301200190207898
:1030E000641C2946FFF77EFC0028E9DA03980028D3
:1030F00005D0002F01D0641E00E0029C04600198FE
:10310000002806D00DF08EFF02210160C81E05B018
:10311000F0BD009930040843F9E70000F7B586B028
:1031200004460D46142213A101A8FFF78DF80026CE
:103130000027002D02D00898002802DC002009B0EA
:10314000F0BD00260EE0A85D001101A90A5C38461A
:103150007F1C2254A85D0007000F0A5C38467F1CC4
:103160002254761C08988642EDDB0020E05520466C
:10317000E5E70000303132333435363738394142F3
:103180004344454600000000F8B506463446113475
:10319000002500BF2B48C07B00280BD004F0A8F806
:1031A000074620786723DB00274A3946009027A08E
:1031B0000DF0EEFE00BF20780C2815DD00BF214881
:1031C000C07B00280AD004F093F807462078274BEC
:1031D0001D4A3946009026A00DF0DAFE00BF0121FD
:1031E00030460AF017F9F8BD002508E0A8002A18B3
:1031F000601C111805222DA007F072FD6D1C2078AF
:10320000A842F3D8207881004218611C0D4828306C
:10321000FFF71AF821780B482030C17100213046A1
:103220000AF0F8F80122FF2160310648C03803F0A7
:1032300033F9FF20F5300FF023FB30460AF0A6FAF1
:1032400000BFD0E7A4020020E23001005236202562
:10325000732025733A28256429205836B8F6CAFD0C
:10326000CEAA20636E743D25642E0A003B03000045
:1032700052362025732025733A2825642920746549
:10328000726D696E616C20636E743D25642CC5E4BB
:10329000D6C3D6D5B6CBCAFDC4BFB4F3D3DAD7EE06
:1032A000B4F3D6B56572726F722E0A0042696E640D
:1032B00052656C6174696F6E00000000F0B5C7B0B4
:1032C00007462E4C207804F00FF9C6B220780A2168
:1032D0004843E11C45182A484078022801D047B0ED
:1032E000F0BD2848C079002803D02648C0790C28B2
:1032F00000DDF4E705213846FEF736FF00293BD113
:1033000000BF20482038C07B002809D003F0F0FF20
:10331000D9231D4A0146009602901CA00DF038FEEC
:1033200000BF314605A803300BF0F2FA6888401C54
:1033300068806888C82815DD0120287000BF114802
:103340002038C07B00280AD003F0D2FF02902078FA
:10335000DF230D4A009018A002990DF019FE00BF5E
:10336000002068800748C1792078401CC0B22070D6
:10337000814201DC0020207000BFB0E76F07002011
:10338000BC0E0020C40200207634010052362025F5
:10339000732025733A2825642920323467B7A2CBDD
:1033A000CDD0C4CCF8B0FC2067756E4964203D20B8
:1033B0002564200A00000000523620257320257362
:1033C0003A28256429207465726D696E616C202528
:1033D00064206368616E676520746F206572726F28
:1033E000722E0A00FFB585B01C4600260027701E0D
:1033F000039020460E99FEF740FF00200290E0E384
:1034000032200FF03DFA27E06846017CFEA00DF067
:10341000BFFD6846007C00281ED00E98B84205DD2E
:103420006846027C38467F1C225415E0F849C8687B
:10343000FF210131FEF721FF00BFF648C07B0028C5
:1034400009D003F055FF0546D523F34A2946F3A0DA
:1034500000970DF09DFD00BF04A900200DF064F958
:103460000028D1D020460699FEF71EFF0646002E02
:103470006FD0F2A10598FEF717FF00286AD0F2A1DD
:103480002046FEF711FF0646002EF7D000BFE148A8
:10349000C07B00280AD003F02BFF0546E079E32328
:1034A000DD4A29460090EAA00DF072FD00BF00BF82
:1034B000D848C07B00280AD003F01AFF0546207ABE
:1034C000E423D54A29460090EAA00DF061FD00BF33
:1034D00000BFD048C07B00280AD003F009FF054692
:1034E000607AE523CC4A29460090EBA00DF050FD10
:1034F00000BF00BFC748C07B00280AD003F0F8FE19
:103500000546A07AE623C44A29460090EBA00DF0B8
:103510003FFD00BF00BFBF48C07B00280AD003F0BA
:10352000E7FE0546E07AE723BB4A29460090ECA077
:103530000DF02EFD00BF00BFB648C07B00280DD0A7
:1035400003F0D6FE0546207BE823B34A29460090C7
:1035500001E032E379E0EBA00DF01AFD00BF00BFFF
:10356000AC48C07B00280AD003F0C2FE0546607B51
:10357000E923A94A29460090EBA00DF009FD00BF00
:1035800000BFA448C07B00280AD003F0B1FE054666
:10359000A07BEA23A04A29460090ECA00DF0F8FC9D
:1035A00000BF00BF9B48C07B00280AD003F0A0FEEC
:1035B0000546E07BEB23984A29460090ECA00DF0ED
:1035C000E7FC00BF00BF9348C07B00280AD003F08F
:1035D0008FFE0546207CEC238F4A29460090EDA003
:1035E0000DF0D6FC00BF00BF8A48C07B00280AD07F
:1035F00003F07EFE0546607CED23874A2946009055
:10360000EDA00DF0C5FC00BF00BF8248C07B0028C4
:103610000AD003F06DFE0546A07CEE237E4A2946C3
:103620000090EEA00DF0B4FC00BF00BF7948C07B55
:10363000002809D003F05CFE0546EF23764A2946B0
:10364000EFA000940DF0A4FC00BFF7A10598FEF7D1
:103650002BFE002874D00725F6A12046FEF724FE95
:103660000646002E6DD000BF6A48C07B00280BD0F4
:1036700003F03EFE0190605DFF230533664A009033
:10368000EEA001990DF084FC00BF00BF6148C07B33
:1036900000280CD003F02CFE0190681C205CFF2356
:1036A00006335D4A0090EEA001990DF071FC00BF59
:1036B00000BF5848C07B00280CD003F019FE0190D1
:1036C000A81C205CFF230733534A0090EDA001990A
:1036D0000DF05EFC00BF00BF4E48C07B00280CD040
:1036E00003F006FE0190E81C205CFF2308334A4AE1
:1036F0000090EDA001990DF04BFC00BF00BF4548C4
:10370000C07B00280CD003F0F3FD0190281D205C45
:10371000FF230933404A0090ECA001990DF038FCDA
:1037200000BF00BF3B48C07B00280FD003F0E0FD86
:103730000190681D205CFF230A33374A009001E0A6
:1037400038E236E2EAA001990DF022FC00BF00BF8A
:103750003048C07B00280CD003F0CAFD0190A81DA2
:10376000205CFF230B332C4A0090EAA001990DF056
:103770000FFC00BF00BF2748C07B00280CD003F01F
:10378000B7FD0190E81D205CFF230C33224A009016
:10379000E9A001990DF0FCFB00BF00BF1D48C07BF4
:1037A00000280DD003F0A4FD019028460830205CCD
:1037B000FF230D33184A0090E8A001990DF0E8FBB3
:1037C00000BF00BF1348C07B00280DD003F090FD60
:1037D000019028460930205CFF230E330E4A0090EA
:1037E000E7A001990DF0D4FB00BF00BF0948C07BE2
:1037F000002807D003F07CFDFF231033064A014662
:103800000094D1E1D4E1000025303278200000009E
:10381000B4270020A40200209E3901005236202542
:10382000732025733A2825642920636E743D25642E
:103830002C6572726F722E0A0000000041542B4EEC
:10384000414D453F000000002B4E414D453A0000E0
:1038500052362025732025733A2825642920C0B6C6
:10386000D1C0C3FBD7D631203D20307825782E0A31
:103870000000000052362025732025733A28256465
:103880002920C0B6D1C0C3FBD7D632203D20307826
:1038900025782E0A0000000052362025732025735B
:1038A0003A2825642920C0B6D1C0C3FBD7D633201F
:1038B0003D20307825782E0A000000005236202561
:1038C000732025733A2825642920C0B6D1C0C3FBD4
:1038D000D7D634203D20307825782E0A000000000D
:1038E00052362025732025733A2825642920C0B636
:1038F000D1C0C3FBD7D635203D20307825782E0A9D
:103900000000000052362025732025733A282564D4
:103910002920C0B6D1C0C3FBD7D636203D20307891
:1039200025782E0A000000005236202573202573CA
:103930003A2825642920C0B6D1C0C3FBD7D637208A
:103940003D20307825782E0A0000000052362025D0
:10395000732025733A2825642920C0B6D1C0C3FB43
:10396000D7D638203D20307825782E0A0000000078
:1039700052362025732025733A2825642920C0B6A5
:10398000D1C0C3FBD7D639203D20307825782E0A08
:103990000000000052362025732025733A28256444
:1039A0002920C0B6D1C0C3FBD7D63130203D20304E
:1039B0007825782E0A0000005236202573202573C2
:1039C0003A2825642920C0B6D1C0C3FBD7D63131EF
:1039D000203D20307825782E0A0000005236202520
:1039E000732025733A2825642920C0B6D1C0C3FBB3
:1039F000D7D63132203D20307825782E0A000000BD
:103A000052362025732025733A2825642920C0B614
:103A1000D1C0C3FBD7D620626C7565206E616D6521
:103A20003A25732E0A00000041542B475749443F62
:103A3000000000002B475749443A00005236202529
:103A4000732025733A2825642920323447CDF8B9EC
:103A5000D8B5D8D6B731203D20307825782E0A0049
:103A600052362025732025733A28256429203234C4
:103A700047CDF8B9D8B5D8D6B732203D2030782513
:103A8000782E0A0052362025732025733A282564A3
:103A90002920323447CDF8B9D8B5D8D6B733203D30
:103AA00020307825782E0A00523620257320257381
:103AB0003A2825642920323447CDF8B9D8B5D8D66C
:103AC000B734203D20307825782E0A005236202544
:103AD000732025733A2825642920323447CDF8B95C
:103AE000D8B5D8D6B735203D20307825782E0A00B5
:103AF00052362025732025733A2825642920323434
:103B000047CDF8B9D8B5D8D6B736203D203078257E
:103B1000782E0A0052362025732025733A28256412
:103B20002920323447CDF8B9D8B5D8D6B737203D9B
:103B300020307825782E0A005236202573202573F0
:103B40003A2825642920323447CDF8B9D8B5D8D6DB
:103B5000B738203D20307825782E0A0052362025AF
:103B6000732025733A2825642920323447CDF8B9CB
:103B7000D8B5D8D6B739203D20307825782E0A0020
:103B800052362025732025733A28256429203234A3
:103B900047CDF8B9D8B5D8D6B73130203D203078E8
:103BA00025782E0A00000000019013A00DF0F0F916
:103BB00000BF00BF0020039008E00298323080B2BE
:103BC000029007990298884200DA19E400BF00BF0A
:103BD0001148C07B00280AD003F08AFB0546FF236A
:103BE0001C330E4A29460EA000940DF0D1F900BFF7
:103BF000039809B0F0BD00005236202573202573CC
:103C00003A2825642920323447CDF8B9D8B5D8D61A
:103C1000B7203A25732E0A00A40200209E39010025
:103C200052362025732025733A28256429203C3CF0
:103C30003C205B25735D2E0A0000000008B5302192
:103C40001348FEF71AFBFF220132124910481830C0
:103C500002F041FA402210490D480C3002F03BFAC4
:103C60000120002302460521490200900B4803F081
:103C70007DFA012000231A4681020090074803F0D4
:103C800075FA0121C902054803F08BFA002008BD2E
:103C9000BC0E0020EC100020EC11002000130140AD
:103CA000F8B504460E4600BF3648C07B00280BD04E
:103CB00003F01EFB05466078FF23E333324A2946B2
:103CC000009032A00DF064F900BF607810284BD04E
:103CD00006DC01280BD00A280DD00F284FD11BE09D
:103CE00011282DD0142842D0152848D143E0204671
:103CF0000BF032FE43E000BF2248C07B002809D011
:103D000003F0F6FA0546FF23EA331F4A29462DA0A1
:103D10000DF03EF900BF32E0204600F0ADFC00BFE0
:103D20001848C07B002809D003F0E2FA0546FF23BB
:103D3000EE33154A29462AA00DF02AF900BF1EE0ED
:103D4000204600F0FBFC00BF0E48C07B002809D0D5
:103D500003F0CEFA0546FF23F2330B4A294627A08B
:103D60000DF016F900BF0AE0204600F025FC2046C1
:103D700000F0D8FB03E0204608F092FF00BF00BF30
:103D8000F8BD0000A4020020C634010052362025F0
:103D9000732025733A2825642920C0B6D1C0BDD32D
:103DA000CAD5CAFDBEDDC3FCC1EE2070506B742DB8
:103DB0003E686561642E636D64203D20307825780F
:103DC0000A00000052362025732025733A28256406
:103DD000292072657120627265616B2E0A000000F5
:103DE00052362025732025733A2825642920C9E8F6
:103DF000D6C3C9E8B1B8BAC52E0A0000523620258C
:103E0000732025733A2825642920C9E8D6C3CDF844
:103E1000B9D8B5D8D6B72E0A00000000F0B585B0E5
:103E2000F74C002600250027F6480078002819D016
:103E300003F052FDF4490968401A042812D900BF62
:103E4000F248C07B002809D003F052FAA1239B005E
:103E5000EF4A01460290EFA00DF09AF800BF002053
:103E6000E84908708CE26846017BF8A00DF090F8F4
:103E700003F032FDE4490860E248007803000DF0E9
:103E8000C2F80805155D809EE2FDFCFB6846007BDC
:103E9000AB280AD10120DB490870AB20207001203B
:103EA000ED490880AB20ED49087068E26846007B68
:103EB000CD2811D10220D3490870CD206070E6488A
:103EC0000088401CE4490880E44800786946097B82
:103ED0004018E249087030E06846007BAB2819D1F1
:103EE0000120C8490870AB2020700120DA49088001
:103EF000AB20DA49087000BFC448C07B002808D056
:103F000003F0F6F9D64BC24A01460290D5A00DF057
:103F10003FF812E00020BB49087000BFBB48C07BDF
:103F2000002809D003F0E4F9AB239B00B84A01460E
:103F30000290CCA00DF02CF800BF20E26846017B77
:103F4000C54802880088401CC34B1880A154C34850
:103F500001786846007B0818C04908706846007BF5
:103F6000C84908706846007B002803D10420A54991
:103F7000087002E00320A34908700020C2490880AD
:103F8000FDE16846017BB44802880088401CB24BC2
:103F90001880A154B14801786846007B0818AF49E1
:103FA0000870B9480088401C80B2B74908800628CC
:103FB00004D100200880042092490870DFE168469F
:103FC000017BA54802880088401CA34B1880A1549F
:103FD000A24801786846007B0818A0490870AA48E2
:103FE0000088401C80B2A849088002282AD11846BF
:103FF0000088401E205C000219460988891E615C09
:104000000843A149088008460088FF210131884201
:1040100015DD00207B49087000BF7C48C07B00286C
:104020000CD003F065F90290974800888C4B2B3335
:10403000774A009095A002990CF0AAFF02E00520B3
:10404000704908709BE16846017B834802880088BC
:10405000401C814B1880A154804801786846007B41
:1040600008187E49087088480088401E80B286493A
:104070000880002806D102E07DE137E003E0062059
:10408000604908707BE16846017B734802880088BC
:10409000401C714B1880A1546846007B6F49097819
:1040A000884209D101208549887007205549087048
:1040B00000207549088018E000BF5448C07B0028E4
:1040C0000FD003F015F902906846007B6349097828
:1040D000634B47334E4A0091019079A002990CF04E
:1040E00057FF00BF00204749087048E16648008834
:1040F000401C80B26449088002287DD16148007864
:1041000001282FD126460020088022E030460B30BF
:104110005D4A1288815C784801F0F4FF002805D1DF
:1041200059480088401C5849088012E000BF3748B1
:10413000C07B002809D003F0DBF8494B5B33344ADD
:10414000014602906DA00CF023FF00BF02200EF08C
:1041500097FBB17A727A080210434B49098888426A
:10416000D4DC3FE0254600204749088032E0681D46
:10417000454A1288815C6CA00CF00AFF681D424A17
:104180001288815C5C480C3801F0BCFF002805D126
:104190003D480088401C3C4908801BE02979EB78A9
:1041A000080218430246691D63A006F099FD00BF8E
:1041B0001648C07B002809D003F09AF8C5239B005D
:1041C000134A0146029061A00CF0E2FE00BF0220FB
:1041D0000EF056FB2979EA78080210432A4909882B
:1041E0008842C4DC002007490870781CC0B207462A
:1041F000012801DB002700E0BCE005B0F0BD0000B5
:10420000EC0E00206800002070000020A4020020B6
:10421000E634010052362025732025733A282564A0
:1042200029206C6F6E672074696D652072656376F6
:10423000206E6F7420636F6D706C6974652C64728E
:104240006F7020706B742E0A0000000048203D2023
:1042500025303278200000006E0000206C00002025
:10426000A702000052362025732025733A282564C2
:10427000292063616E206E6F742066696E6420630E
:10428000642E0A00690000206A00002052362025B2
:10429000732025733A28256429206C656E203D2003
:1042A00025642CBDD3CAD5CAFDBEDDB0FCB5C4B3F0
:1042B000A4B6C8B4EDCEF3200A00000064070020C5
:1042C00052362025732025733A2825642920BDD332
:1042D000CAD5CAFDBEDDD0A3D1E9B4EDCEF32C73AF
:1042E000756D3D307825782C20646174613D30789F
:1042F00025782E0A00000000D40E0020523620251A
:10430000732025733A2825642920322E34672062D1
:10431000756666206F76657220666C6F77206572B1
:10432000726F722E0A000000646174613D205B258B
:104330003032785D00000000426C75655461736B2B
:1043400020627420726563760000000052362025DA
:10435000732025733A2825642920627420627566CB
:1043600066206F76657220666C6F77206572726F5B
:10437000722E0A0003E000200649087000BF00BF4B
:1043800003A900200CF0D0F9002800D16BE500BF94
:1043900005B0F0BD68000020FEB504460D46164687
:1043A00001200190C1021E4802F0FBFE02200EF027
:1043B00067FA2046FDF7A3FF87B23A462146002060
:1043C0000CF024FA00BF1748C07B00280AD002F086
:1043D0008FFF0746FF232B33134A394613A000945F
:1043E0000CF0D6FD00BF002D01D0002E06D101211A
:1043F000C9020B4802F0D9FE0020FEBD4020114B3F
:104400003246294600902046FEF7ECFF002800D1F6
:1044100001900121C902024802F0C7FE0198ECE7B1
:1044200000130140A4020020AB39010052362025C0
:10443000732025733A28256429203E3E3E202573AB
:104440002E0A0000E4280020C6B00024002647E021
:1044500064200EF015FA01F055FC03F03DFAA84275
:104460000ED003F039FA05461E481F494860204621
:10447000FEF724FF012102A80AF0B4FB601C84B2FD
:104480001A48007A8007800F012827D11748007A40
:104490000007800F012821D103F01EFA801B052898
:1044A0001CD303F019FA064607F084F800BF104841
:1044B000C07B00280CD002F01BFF07460B482030C1
:1044C00000790C4B0C4A394600900CA00CF060FDB2
:1044D00000BF0649203108790AF06CF901F00EF8A6
:1044E000B6E700007FAA000000000140E4070020BA
:1044F000A402002069020000DD34010052362025AC
:10450000732025733A282564292067436867496E1C
:10451000666F2E67756E5F6964203D202564200AF2
:104520000000000010B5044620780C2800DD10BD06
:1045300021788A008A18094950180522611CFDF764
:1045400083FE217805480838C1710122FF216031BE
:10455000E03801F0A1FF00BFE9E70000CC02002035
:1045600010B5FF20800203F0E5FC0822FF2189023C
:10457000024803F0A9FC002010BD0000000000204C
:1045800070B50446E51C681CFDF7DCFEC1B20348AB
:10459000C1730021204608F0E9FF70BDA40200208D
:1045A00004460021204608F0E1FF7D20C0000EF007
:1045B00067F906F005F90000044600201D4908715E
:1045C00000211C4841710822E11C801DFDF73CFEC2
:1045D0000122FF216031174801F05EFF0120A07029
:1045E0000020E070A078C11C204603F067F9C1B23A
:1045F000A278E01C8154A078021D21460B390020CE
:1046000008F02AFF00BF0B48C030C07B002809D04B
:1046100002F06EFE0546FF23AE33074A294607A087
:104620000CF0B6FC00BF7D20C0000EF029F906F0AA
:10463000C7F80000E4010020B13401005236202503
:10464000732025733A2825642920736574206368D4
:104650006172676572206465766963652069642CA0
:10466000207265626F6F742073797374656D206E4C
:104670006F772E0A0000000070B504460822E11C86
:104680001E48FDF7E1FD08211D48FDF7F6FD01225A
:10469000FF2160311A48001F01F0FEFE01220D21AA
:1046A000164801F083FF0120A0700020E070A07880
:1046B000C11C204603F002F9C1B2A278E01C81546B
:1046C000A078021D21460B39002008F0C5FE00BF6E
:1046D0000B48BC30C07B002809D002F009FE05461B
:1046E000FF238233074A294607A00CF051FC00BF84
:1046F0007D20C0000EF0C4F870BD00004303002010
:10470000E8010020913401005236202573202573E2
:104710003A2825642920736574206368617267658F
:104720007220736E2C207265626F6F7420737973C0
:1047300074656D206E6F772E0A0000007CB504460C
:10474000E51C297968460170E9784170A978817083
:104750006978C170297801710522294620A006F0E8
:10476000BFFA052269462348FDF76EFD01220D219F
:104770002048083801F01AFF0120A0700020E070E6
:10478000A078C11C204603F099F8C1B2A278E01CC1
:104790008154A078021D21460B39002008F05CFEF0
:1047A00000BF1548C07B002809D002F0A1FD0646D5
:1047B000FF239A33114A314611A00CF0E9FB00BFE8
:1047C0007D2000010EF05CF8052269460948FDF7DE
:1047D0009DFD002802D00120144948707CBD0000D6
:1047E000C0B6D1C0C9E8D6C3CDF8B9D8B5D8D6B708
:1047F000000000004B030020A4020020A0340100B0
:1048000052362025732025733A2825642920C9E8CB
:10481000D6C3322E3467CDF8B9D8B5D8D6B7B7B528
:10482000BBD8D3A6B4F00A2000000000BC0E0020C4
:10483000F8B505460E4600F0DBFA002439E02748BB
:1048400000781421484326494018008982B225A1E6
:1048500025A0FFF7A1FD002816D100BF2448C07B8A
:10486000002809D002F044FD0746FF235733214AB0
:10487000394621A00CF08CFB00BF18480078401C82
:10488000164908700020F8BD00BF1948C07B0028F9
:1048900009D002F02DFD0746FF235B33154A394648
:1048A0001DA00CF075FB00BF7D2000010DF0E8FF9E
:1048B000641C022CC3DB00BF0D48C07B002809D05C
:1048C00002F016FD0446FF235E330A4A21461CA06F
:1048D0000CF05EFB00BF0020C043D4E78100002045
:1048E0005C3801004F4B000041540D0A00000000ED
:1048F000A4020020B7390100523620257320257309
:104900003A2825642920626C7565207465737420CB
:104910006F6B2E0A0000000052362025732025738D
:104920003A2825642920626C756520726573657468
:10493000206661696C2C72657472792E0A00000021
:1049400052362025732025733A2825642920626C6D
:104950007565207265736574206661696C2E0A0046
:1049600070B504460D4600BF0948C07B002808D03A
:1049700002F0BEFC0646074B074A314607A00CF082
:1049800007FB00BF00222946204600F07DFD70BDD8
:10499000A4020020060200003B3A01005236202506
:1049A000732025733A2825642920696E2E0A000099
:1049B00070B504460D4600BF0948C07B002808D0EA
:1049C00002F096FC0646074B074A314607A00CF05A
:1049D000DFFA00BF00222946204600F055FD70BDD9
:1049E000A40200200D020000483A010052362025A2
:1049F000732025733A2825642920696E2E0A000049
:104A000070B504460D4600BF0A48C07B002809D097
:104A100002F06EFC0646FF23AC33074A314607A07E
:104A20000CF0B6FA00BF00222946204600F02CFD0B
:104A300070BD0000A4020020F83901005236202584
:104A4000732025733A2825642920696E2E0A0000F8
:104A500070B504460D4600BF0948C07B002808D049
:104A600002F046FC0646074B074A314607A00CF009
:104A70008FFA00BF00222946204600F005FD70BDD8
:104A8000A40200201B020000623A010052362025D9
:104A9000732025733A2825642920696E2E0A0000A8
:104AA00070B504460D4600BF0A48C07B002809D0F7
:104AB00002F01EFC064685239B00074A314607A0EC
:104AC0000CF066FA00BF00222946204600F0DCFC0C
:104AD00070BD0000A4020020553A01005236202586
:104AE000732025733A2825642920696E2E0A000058
:104AF000F0B58BB005460E460024282101A8FDF72D
:104B0000BCFB00BF1848C07B002809D002F0F0FBB6
:104B10000746FF23F033154A394615A00CF038FA42
:104B200000BF00223146284600F0AEFC002818D114
:104B300014A11648FDF7B8FB0446002C0ED001AABC
:104B400013A12046FDF712FC144800214162816246
:104B5000C1620A2201A92430FDF776FB00200BB0C8
:104B6000F0BD0020C043FAE7A4020020213A010072
:104B700052362025732025733A2825642920696E32
:104B80002E0A00004E414D453A000000E428002066
:104B90004E414D453A20257300000000BC0E002018
:104BA00070B504460D4600BF0A48C07B002809D0F6
:104BB00002F09EFB0646FF23A533074A314607A0B5
:104BC0000CF0E6F900BF00222946204600F05CFC0C
:104BD00070BD0000A4020020EB39010052362025F0
:104BE000732025733A2825642920696E2E0A000057
:104BF00070B504460D4600BF0A48C07B002809D0A6
:104C000002F076FB0646FF237433074A314607A0BD
:104C10000CF0BEF900BF00222946204600F034FC0B
:104C200070BD0000A4020020C639010052362025C4
:104C3000732025733A2825642920696E2E0A000006
:104C400070B504460D4600BF0948C07B002808D057
:104C500002F04EFB0646074B074A314607A00CF010
:104C600097F900BF00222946204600F00DFC70BDD8
:104C7000A4020020FF0100002E3A01005236202538
:104C8000732025733A2825642920696E2E0A0000B6
:104C9000F8B5002500213D48417300203C490870CB
:104CA00072E03C483C494860394909781422514334
:104CB0003A4A8918C9680A22514308460DF0E0FDB6
:104CC000334800781421484334490858002817D045
:104CD0002F4B1B78142673430E469B191B899AB2DF
:104CE0002B4B1B78142673430E469B195968284B8F
:104CF0001B7814267343294EF058FFF74DFBC4B2BE
:104D000000BF2748C07B00280BD002F0F1FA06460E
:104D10001F480078234B244A3146009023A00CF012
:104D200037F900BF1A480078142148431B4940183E
:104D3000006900280FD0164800781421484317490D
:104D400040182946026920469047002801D10025D5
:104D500001E0681CC5B20E4800780F2814D100BFCE
:104D60000F48C07B002809D002F0C2FA0646932300
:104D70009B000D4A314616A00CF00AF900BF012134
:104D8000024841730020F8BD8BE7000004080020B2
:104D9000810000207FAA0000000001405C38010073
:104DA000A40200203D020000893A0100523620256D
:104DB000732025733A282564292067426C7565495C
:104DC0006E697453746570203D202564200A0000CC
:104DD00052362025732025733A2825642920626CD9
:104DE000756520696E6974206F6B2E0A00000000E3
:104DF00010B500BF1048C07B002808D002F078FA38
:104E000004462B230D4A21460DA00CF0C1F800BF2B
:104E100001214902154802F0C4F97D2000010DF07E
:104E20002FFD01214902114802F0BFF97D20000148
:104E30000DF026FD10BD0000A402002088390100FD
:104E400052362025732025733A2825642920B8B4CA
:104E5000CEBBC0B6D1C0726573657420626C7565D7
:104E6000206D6F64756C652E0A0000000013014010
:104E700070B504460D4600BF0A48C07B002809D023
:104E800002F036FA0646FF237B33074A314607A075
:104E90000CF07EF800BF00222946204600F0F4FA0C
:104EA00070BD0000A4020020D33901005236202535
:104EB000732025733A2825642920696E2E0A000084
:104EC000FEB505460E4600BF3048C07B002809D01D
:104ED00002F00EFA0446FF23D8332D4A21462DA0B6
:104EE0000CF056F800BF052132480CF099FD00285F
:104EF00016D100BF2548C07B002809D002F0F8F980
:104F00000446FF23DA33224A21462BA00CF040F856
:104F100000BF39480078401C374908700020FEBDAA
:104F2000052224496846FEF7F9F8012168460AF08F
:104F300079F9002816D100BF1448C07B002809D099
:104F400002F0D6F90446FF23E333114A21462BA091
:104F50000CF01EF800BF28480078401C2649087055
:104F60000020DCE700BF0948C07B002809D002F020
:104F7000BFF90446FF23E733054A214628A00CF079
:104F800007F800BF0020C043C9E70000A4020020CA
:104F9000143A010052362025732025733A282564DF
:104FA0002920C9E8D6C3CDF8B9D8B5D8D6B7200AD4
:104FB000000000004B03002052362025732025738B
:104FC0003A28256429205F3234674D616341646467
:104FD0007220697320616C6C207A65726F2C206E70
:104FE0006F206E65656420746F2073657420677729
:104FF000206D61632E0A00008100002052362025BA
:10500000732025733A2825642920736574206777F7
:105010006D616320737563636573732E0A0000000E
:1050200052362025732025733A282564292073657C
:10503000742067776D6163206661696C2E0A0000D9
:10504000F0B58DB005460E46202105A8FDF715F9EF
:10505000002002900390049005224D494D48FDF731
:1050600055F9002817D100BF4B48C07B002809D054
:1050700002F03EF90446FF238733484A2146484858
:105080000BF086FF00BF47480078401C4549087078
:1050900000200DB0F0BD05223E4902A800F0D8FF67
:1050A0000A2202A94048FDF731F9002816D100BFB5
:1050B0003948C07B002809D002F01AF90446FF23C2
:1050C0008E33364A214639A00BF062FF00BF3548C7
:1050D0000078401C334908700020DAE702AA41A199
:1050E00005A80BF065FF00243DE02E480078142150
:1050F000484340494018008982B23FA105A8FFF704
:105100004BF9002818D100BF2348C07B00280BD0E2
:1051100002F0EEF8074602A8FF2397331F4A3946EC
:10512000009036A00BF034FF00BF1E480078401CF2
:105130001C4908700020ACE700BF1748C07B00285E
:105140000BD002F0D5F8074602A8FF239B33134A81
:105150003946009031A00BF01BFF00BF7D204001BD
:105160000DF08EFB641C042CBFDB00BF0A48C07B23
:10517000002809D002F0BCF80446FF239E33074AFA
:10518000214630A00BF004FF00BF0020C04380E7A1
:105190005438010046030020A4020020DF3901003A
:1051A000A445010081000020E00E00205236202599
:1051B000732025733A28256429206E616D65206966
:1051C00073206F6B2C206E6F206E65656420746F8A
:1051D0002073657420626C7565206E616D652E0AA2
:1051E0000000000041542B4E414D453D25730D0AF2
:1051F000000000005C3801004F4B000052362025B3
:10520000732025733A2825642920736574206E6104
:105210006D653D2573206F6B2E0A000052362025E8
:10522000732025733A2825642920736574206E61E4
:105230006D653D2573206661696C2C7265747279A9
:105240002E0A000052362025732025733A28256443
:105250002920736574206E616D65206661696C2E0E
:105260000A000000F8B506460F46002400BF274894
:10527000C07B00280DD002F03BF8054623482030C3
:10528000C079FF23BE33224A2946009021A00BF0AB
:105290007FFE00BF1D482030C079002801D10624C0
:1052A00002E01A482030C47920460AF01BFB00288F
:1052B00016D121480078401C1F49087000BF1348D0
:1052C000C07B002809D002F013F80546FF23CA333B
:1052D0000F4A294619A00BF05BFE00BF0020F8BD65
:1052E00000BF0A48C07B002809D002F001F805463B
:1052F000FF23CE33064A294619A00BF049FE00BF12
:1053000000200D490870401EE9E70000A4020020BB
:10531000053A010052362025732025733A2825646A
:105320002920C9E8D6C37836CAFDC4BF3A203078F0
:105330002578202E0A00000081000020523620250A
:10534000732025733A282564292073657420583604
:10535000436F756E7420737563636573732E0A00F3
:1053600052362025732025733A2825642920736539
:1053700074205836436F756E74206661696C2E0A0E
:1053800000000000F0B5C7B005462C46113400BF40
:105390002348C07B002812D0207802F0E9FA0A21C5
:1053A000484320490E5C01F0A3FF074620781E4BBE
:1053B0001E4A3946019600901D480BF0E9FD00BFDA
:1053C00000BF1748C07B00280ED0201DFCF7BAFF95
:1053D000064601F08DFF07465123DB00134A39468C
:1053E00014A000960BF0D4FD00BF2178284605F0EC
:1053F00091FB002103A809F0F5FB00BF0848C07B22
:10540000002809D001F074FF0646A3239B00074A39
:1054100031460FA00BF0BCFD00BF47B0F0BD00004F
:10542000A4020020720700208502000072300100F3
:10543000C43E010052362025732025733A28256486
:105440002920BFA8C6ACD3E0B6EE5B25645D0A0098
:1054500052362025732025733A2825642920B8F870
:105460005836B7A2CBCDBAF3CCA8BCF8C8A8BDE1DA
:10547000B9FB0A0010B50348C079002801D108F033
:10548000D5FB10BDC402002010B50346002B06D189
:1054900007480078401C064C2070002010BD0A29E7
:1054A00002DD0020024C20700020C043F6E700001F
:1054B0008100002010B50346002B06D10748007874
:1054C000401C064C2070002010BD0A2902DD00207F
:1054D000024C20700020C043F6E70000400000208E
:1054E00010B502460B460020002103E0545C24184E
:1054F000E0B2491C9942F9DB10BD000010B53148FB
:10550000007A8007800F012805D02E48007A000716
:10551000800F012855D102F0DFF92A49896A8842B3
:1055200026D302F0D9F92749896A401A232848D39B
:1055300000BF2548C07B002808D001F0D9FE0446F2
:105540003B23224A214622A00BF022FD00BF1D482A
:105550008068800880001B498860084680680C21AC
:1055600088431849886002F0B7F91649886228E034
:1055700002F0B2F91349896A0022D243511A401845
:1055800023281ED300BF1048C07B002808D001F09C
:10559000AFFE044645230D4A214613A00BF0F8FC4C
:1055A00000BF084880688008800006498860084677
:1055B00080680C2188430349886002F08DF9014915
:1055C000886210BDE4070020A402002021320100FF
:1055D00052362025732025733A2825642920B3AC40
:1055E000CAB1C1CB21200A00523620257320257371
:1055F0003A2825642920B3ACCAB1C1CB3232323249
:1056000021200A0010B502F067F90149886210BD37
:10561000E407002008490968C907490F074A50589C
:105620000749054A11601146C96A064A1140024AF3
:10563000D16211460860704700F00040DC3701007D
:105640005AA50000DFFF0000F0B589B00446002035
:1056500008900026607901287ED1A51D00BF9748DB
:10566000C07B00280BD001F043FE07466079FF2382
:10567000C533934A3946009092A00BF089FC00BFD5
:1056800000BF8E48C07B00280BD001F031FE0746DA
:105690002878FF23C6338A4A3946009094A00BF03D
:1056A00077FC00BF2878062814DD00BF8348C07B44
:1056B00000280BD001F01CFE07462878FF23C933D1
:1056C0007F4A3946009099A00BF062FC00BF012090
:1056D000089046E0002631E000BF7848C07B0028F3
:1056E0002AD001F005FEF1000690681C0918C87860
:1056F0008A7801021143F200681C1218507812785F
:1057000000020243F300681C1B18D8799B79000241
:105710000343F0006F1CC71978793F7900023843C2
:1057200000960293039204910190FF23D133644ABF
:10573000874806990BF02CFC00BF761C2878B042F5
:10574000CAD82878C000401C079029465B488E388C
:10575000079AFCF779FD00E004E0012157489438EE
:10576000417150E06079022839D1A51D00BF53482E
:10577000C07B00280BD001F0BBFD07466079FF23FA
:10578000DC334F4A3946009072A00BF001FC00BF99
:1057900000BF4A48C07B002813D001F0A9FD07468E
:1057A000E878A9780002014368782A78000210435B
:1057B000FF23DD33424A01910090394670480BF0D7
:1057C000E7FB00BF04200790042229463B488E389F
:1057D000FCF73AFD022139489438417113E000BFCB
:1057E0003648C07B00280BD001F082FD0546607969
:1057F000FF23E433324A2946009062A00BF0C8FB35
:1058000000BF012008900898002854D1A01D0799D6
:10581000415C2A4880300177A11D0798401C095C33
:10582000A21D0798801C105C0002014323488130B0
:105830000177090A4177601CFCF784FD05461F4982
:105840009339FCF789FD21781C48A038017300BF0B
:10585000A030C07B00281BD018489338FCF772FD9D
:10586000054601F045FD074614488130417F027F1F
:1058700008021043014611488030007FFF23EF33B8
:105880000F4A009502910190394648480BF080FB81
:1058900000BF0122FF2160310848C03800F0FCFD44
:1058A000002808D00020012102231A46009101900F
:1058B000122107F0D5FF089809B0F0BDA40200201E
:1058C0003730010052362025732025733A2825648D
:1058D000292066777120B7D6B9A6C2CABCC6B7D18F
:1058E000636F7374206D6F64653D25642E0A00003C
:1058F00052362025732025733A282564292066779F
:105900007120B7D6B9A6C2CABCC6B7D1B9A6C2CA99
:10591000B6CECAFDC4BF207365676D656E74436EF5
:1059200074203D205B25645D202E0A005236202520
:10593000732025733A28256429207365676D656E89
:1059400074436E743D25642C6572726F722E0A006A
:10595000F83C010052362025732025733A2825642F
:105960002920667771CDB3D2BBBCC6B7D120636F97
:105970007374206D6F64653D25642E0A000000007D
:105980005C3D010052362025732025733A2825649A
:10599000292066777120636F7374206D6F64653D95
:1059A00025642C6572726F722E0A00000C3F010094
:1059B00070B50446251D287801F0DAFFC6B20A202A
:1059C0007043074940188088401C82B20A20704307
:1059D000401882800222294602A005F081F970BD9C
:1059E00072070020436F737454656D706C61746549
:1059F000446F776E41636B00F8B504462546113558
:105A00002846FFF721FE06462A78F1B2E37BA77B02
:105A10001B023B43184607F03FFEF8BD10B50E4889
:105A20004079012817D00C484079022813D000BFD4
:105A300009489430C07B002809D001F059FC044685
:105A4000FF239133054A214605480BF0A1FA00BF18
:105A5000002008F021F910BD1002002027300100BD
:105A6000603F0100FEB504460F4601250026207C5C
:105A700014287DD00CDC001F03000BF0C4FA1021A9
:105A8000343425293550543458598B92AEB9BF342B
:105A90001C286ED007DC153803000BF0B4FA06CAD8
:105AA000CED2DBE4ED241F2871D004DC1D286FD09A
:105AB0001E2818D1ECE099286BD0F328F9D11CE00E
:105AC000204604F09DFEFEBD204609F0E1FDFAE708
:105AD0000822214611318448FCF7B6FB1621834881
:105AE000FCF7CBFB0225DFE08148407B607401229C
:105AF0002146002007F024FEE5E77D48007CA5282C
:105B000005D100217A4801740120607401E0002071
:105B1000607401222146002007F012FE00BF2046DB
:105B200001F080FCCFE7204601F0B6FECBE7BBE0FA
:105B300005226D4908316FA005F0D2F805222146F3
:105B4000113101A8FCF780FB6846007A66490872AB
:105B50006846C179644841726846817962488172B9
:105B6000684641796048C172684601795E4801E043
:105B70004FE085E0017302255D48407CA52805D1F2
:105B800000215B48417401205D4948708CE083E04E
:105B90007AE085E03946204605F010F90646F5B270
:105BA00082E020461130FCF7AAFB202814D22046C0
:105BB0001130FCF7A4FB02462146113100904B48FE
:105BC0009830FCF741FB20461130FCF798FB474921
:105BD000983100220A54002566E0A07C0002617C16
:105BE000084342499C310877000A487700255BE06A
:105BF000617C3E48BC30C173002555E0012221463E
:105C0000002007F09DFD7D20C0000CF039FE04F05F
:105C1000C9FD00203549091F087100213348001FC4
:105C20004171062221461131801DFCF70DFB002534
:105C30003AE0204609F05AFD45E7204601F052FEC1
:105C400041E700F013FB607401222146002007F0B9
:105C500077FD38E701212548BC30C173204609F0A3
:105C60001FFB064620E001212048BC30C1732046BE
:105C700005F0E4F8064617E0204602F0F3FB22E7C1
:105C8000204604F0ABFD1EE7204609F05FFC1AE752
:105C9000204601F0FDFA16E7204601F0E9FA12E786
:105CA00020460AF04DFB0EE700BF002D07D1012270
:105CB000FF2160310D48001F00F0EEFB0BE00122D8
:105CC000FF2160310948001F00F0E6FB01220D2191
:105CD000054800F06BFC667401222146002007F0A5
:105CE0002FFD00BFEFE6000043030020E801002085
:105CF00004080020CDF8B9D8B5D8D6B70000000008
:105D0000BC0E00203EB5A64C42E1A6480078030038
:105D10000BF079F90C071B1A1A334B63A3B7CBF2BC
:105D2000F01A6846007AAA280ED100209E49088001
:105D30006846017A9C4802880088401C9A4B18806B
:105D4000A15401209749087021E16846007A55283E
:105D50000FD10420934908706846017A924802885E
:105D60000088401C904B1880A15400208F49088067
:105D700002E001208B49087009E16846017A8A48EF
:105D800002880088401C884B1880A15487480088EE
:105D9000401C80B285490880052805DB0520814923
:105DA0000870002081490880F1E06846017A7E4849
:105DB00002880088401C7C4B1880A1547B480088D6
:105DC000401C80B279490880052805DB062075490A
:105DD0000870002075490880D9E06846017A724849
:105DE00002880088401C704B1880A1546F480088BE
:105DF000401C80B26D49088002282DDB18460088BF
:105E0000401E205C000219460988891E615C084317
:105E10006649088008460088FF210131884215D371
:105E200000BF6348C07B00280BD001F061FA054633
:105E30005E4800885F4B604A294600905FA00BF0E7
:105E4000A7F800BF00205749087005E00720554912
:105E5000087000206149087099E06846017A52484C
:105E600002880088401C504B1880A1545B48017880
:105E70006846007A0818594908700820494908708E
:105E800085E06846017A484802880088401C464BF5
:105E90001880A154514801786846007A08184F4983
:105EA000087009203F49087071E06846017A3E4851
:105EB00002880088401C3C4B1880A1544748017858
:105EC0006846007A08184549087038480088042850
:105ED00003DB36480088001F00E0002033490880BB
:105EE00008460088002801D00A2000E00B202D4938
:105EF00008704CE01CE0FFE76846017A2A480288F7
:105F00000088401C284B1880A1543448017868460A
:105F1000007A08183149087024480088401E80B271
:105F200022490880002802D10B201E4908702EE06B
:105F30002A4800786946097A88420ED11A480288B0
:105F4000214627A004F0CCFE00211948C173164851
:105F500001882046FFF786FD15E000BF1448C07B8E
:105F600000280FD001F0C4F905466846007A1B49A5
:105F70000978104B3033104A0091019029461CA03B
:105F80000BF006F800BF00200649087000BF00BFF4
:105F900002A902200AF0C8FB002800D1B5E63EBDE8
:105FA000440D0020490000204A0000204C00002041
:105FB000A40200200305000008320100523620250B
:105FC000732025733A28256429206C656E3D25646D
:105FD0002C6572726F722E0A000000004E000020C5
:105FE00044656275675265637650726F63000000A6
:105FF00052362025732025733A282564292073758D
:106000006D3D253032782C706B742073756D3D2595
:106010003032782C6572726F722C64726F702070DF
:106020006B742E0A00000000014609E0002004E025
:1060300000BF00BF00BF00BF401C044A9042F7D31E
:106040000A464B1ED9B2002AF0D170478A020000DE
:10605000F7B582B00C461546274600260CE0002016
:1060600001903A787F1C06A101A80AF0A1FF01A9BE
:106070000298FCF70DF9761CAE42F0DB05B0F0BDDE
:106080002530327800000000014600BF00BF002923
:10609000FDD000BF0020C8800881488170470246BB
:1060A00050891389984213D01089431C13811368B7
:1060B0001B5C0B7090881389984201DC00201081D2
:1060C000D088002802D0D088401ED08000207047A1
:1060D0000020C043FBE7034600BF00BF002BFDD0FC
:1060E00000BF00BF00BF0029FDD000BF00BF00BF40
:1060F000002AFDD000BF0020186058609860196029
:106100009A80704710B502460B4650891489A04208
:1061100004DB50891489001B411C05E050899488D8
:1061200000191489001B411C908888420FDD50899A
:10613000441C548114682354D088401CD08090881B
:106140005489A04201DC00205081002010BD0020B5
:10615000C043FBE7FEB505460E4600BF0D48C07BB9
:1061600000280BD001F0C4F80746FF2361330A4A28
:1061700039460AA0019600950AF00AFF00BF0024E4
:1061800004E0A102481901F0D5FE641CB00AA04247
:10619000F7D8FEBDA4020020F437010052362025B6
:1061A000732025733A282564292065726173652060
:1061B000666C6173682C616464723D25642C6C6547
:1061C0006E3D25642E0A000010B51A48007800289C
:1061D00007D10821184800F0E4FF01201549087094
:1061E00006E00821144800F0E0FF00201149087083
:1061F00012484078002807D010210F4800F0D1FF46
:1062000000200E49487003E010210B4800F0CDFF3C
:106210000A488078002807D02021074800F0C1FFF5
:1062200000200649887003E02021034800F0BDFFEC
:1062300010BD00004300002000130140640700204F
:1062400030B505460C462246FD218902284601F05C
:106250002BFE002030BD30B505460C4622467F217E
:10626000C902284601F020FE002030BD0020704702
:1062700070B504460D46164632462146284601F0C2
:1062800023FE70BDF3B589B0704C607821780002B0
:106290000843E178A2780902114388420CDB607858
:1062A000217800020843E178A27809021143401ADC
:1062B000401C80B205900EE060782178000208430F
:1062C000FF30FF300230E178A27809021143401A12
:1062D000401C80B2059001214902059888427DDA70
:1062E00061782278090211430846C917090F091875
:1062F0000905090E089161782278090211430846C0
:10630000C917090F091809110901411AC9B20791E2
:1063100007990F0208990E03F019069000BF4B4829
:106320006438C07B002812D000F0E2FF049062784D
:10633000237812021A430698FF23763301970296B8
:1063400000920390424A434804990AF021FE00BF9C
:1063500001221203404930460AF038FB3E49C81971
:106360000A9A0999FBF770FF08980AF0D1FA0025FC
:106370000AE02802384A8118FF22013230460AF02A
:1063800091FBFF3601366D1C102DF2DB6078217811
:1063900000020843401C80B22070000A60706079DF
:1063A000217900020843401C80B22071000A60710C
:1063B000607821780002084301214902884202DB0B
:1063C00000202070607000BF20486438C07B002827
:1063D0001AD000F08DFF0490607900E01DE0217973
:1063E00000020143E078A27800020243607823783B
:1063F00000021843FF238933019202910090144A4E
:10640000164804990AF0C4FD00BF0122FF21603143
:10641000134800F041F8002514E000BF0B48643831
:10642000C07B00280BD000F063FF04900598FF2389
:106430008F33074A00900BA004990AF0A9FD00BF12
:106440000025ED4328460BB0F0BD000008030020F6
:10645000BF370100344401002C120020E044010049
:10646000E401002052362025732025733A28256444
:1064700029206E6F20656E6F756768207370616389
:10648000652C6572726F722C6F72646572436E74E4
:106490003D25642E0A000000F7B584B007460E467D
:1064A000002400250020039000BF2D4801780078CB
:1064B000401C2B4A1070032903DD0020C04307B0A5
:1064C000F0BDFD20800201F035FD3246FD2189023C
:1064D000384601F0F9FC069800282BD0002427E06C
:1064E000002521E0FD2080022118012203A801F0EF
:1064F000DBFC385D6946097B884200D116E000BFAD
:106500001848C07B00280AD000F0F2FEFF23BC33FD
:10651000154A01460095029014A00AF039FD00BF0B
:10652000042D00D1C1E76D1C052DDBD300BF641C19
:10653000B442D5D300200A49087000BF0948C07B87
:10654000002809D000F0D4FEFF23C633064A0146D6
:1065500002900EA00AF01CFD00BF0020AFE7000073
:1065600079000020A40200201B38010052362025AB
:10657000732025733A2825642920D0B4666C617392
:1065800068B3F6B4ED5B25645D210A005236202520
:10659000732025733A282564292077726974652051
:1065A00066616C7368206F6B2E0A0000F7B584B0CB
:1065B00007460E46002400250020039000BF254812
:1065C00001780078401C234A1070032903DD002065
:1065D000C04307B0F0BD7F20C00201F0ABFC3246E3
:1065E0007F21C902384601F06FFC069800282BD0A5
:1065F000002427E0002521E07F20C002211801228D
:1066000003A801F051FC385D6946097B884200D13E
:1066100016E000BF1048C07B00280AD000F068FEDA
:10662000FF238F330D4A0146009502900CA00AF01B
:10663000AFFC00BF042D00D1C1E76D1C052DDBD3DD
:1066400000BF641CB442D5D300200249087000BFCB
:10665000BFE7000078000020A402002008380100F5
:1066600052362025732025733A2825642920D0B47A
:10667000666C617368B3F6B4ED5B25645D210A0056
:10668000FFB5AFB040211FA8FBF7F7FD00201E901B
:106690000490E749087000237D22D200E5A1E8A01C
:1066A00001F038FB00237D22D200E9A1EAA001F02D
:1066B00031FB00237D22D200EAA1ECA001F02AFBED
:1066C0000020039024E00023EC4AEDA1EFA001F0AC
:1066D00021FB002800D11EE00398022812D100BF40
:1066E000EE48C07B002808D000F002FEEC4BED4ADB
:1066F00001460290ECA00AF04BFC00BF0020C04312
:106700001E90FCE332200CF0BBF80398401C039071
:1067100003980328D7DB00BF0023C822D1A1EBA038
:1067200001F0F8FA0023C822CEA1ECA001F0F2FAA1
:106730000023C822CBA1EDA001F0ECFA2F212F9865
:10674000FBF7D3FD1790402107A8FBF796FD2F9983
:106750001798421A07A8FBF7BBFD07AAE7A11FA8D5
:106760000AF026FC00BFCD48C07B00280BD000F00B
:10677000BFFD03901FA8CA4B1133CA4A0090E4A082
:1067800003990AF005FC00BF0023C822B5A11FA889
:1067900001F0C0FA40211FA8FBF76FFDE2A11FA87E
:1067A000309A0AF005FC00236422AEA11FA801F074
:1067B000B1FA40211FA8FBF760FDDFA11FA8319AA5
:1067C0000AF0F6FB00236422A6A11FA801F0A2FA9A
:1067D000402107A8FBF751FD1798401CFBF78FFDE0
:1067E000024603901799491C07A8FBF771FD07A8FB
:1067F000FBF785FD07A92F220A5440211FA8FBF7AC
:106800003CFD07AAD0A11FA80AF0D2FB00BFA348F5
:10681000C07B00280BD000F06BFD03901FA8A04B9D
:106820002433A04A0090CDA003990AF0B1FB00BF29
:10683000002364228BA11FA801F06CFA40211FA83D
:10684000FBF71BFDCDA11FA8329A0AF0B1FB00BFD8
:106850009248C07B00280BD000F04AFD03901FA88F
:1068600093239B008F4A0090C9A003990AF090FBE4
:1068700000BF002364227BA11FA801F04BFA7D23F7
:10688000DB000A22CBA1CEA001F078FA002820D1AB
:106890000022CEA107A80AF08BFB0D2207A96448AD
:1068A0000BF09EFB0446002C27D100BF7B48C07B29
:1068B000002809D000F01CFD794B3433794A014699
:1068C0000390C6A00AF064FB00BF0120C0431E90E5
:1068D00086E300BF7148C07B002809D000F008FDA6
:1068E0006F4B39336F4A01460390C4A00AF050FB46
:1068F00000BF0120C0431E9072E300BF6748C07B09
:1069000000280AD000F0F4FC654B3D33654A01468F
:1069100000940390C1A00AF03BFB00BF7D23DB0085
:106920000A22C5A1C7A001F029FA00287AD100BF28
:106930005A48C07B002809D000F0DAFC584B41339C
:10694000584A01460390C3A00AF022FB00BF002072
:106950001E9000F0C1FF06901020199000201A90A0
:1069600027E3C848C849486000F0B6FF0699401AB6
:10697000FF212D31884200D91CE3199800F0DEFC7C
:106980000746002F4FD0B9B2294800F059FD0746FD
:106990001998102848D11A98002846D12448007820
:1069A000AA2843D12248407855283FD100BF3B4810
:1069B000C07B002809D000F09BFC394B5733394A83
:1069C00001460390B1A00AF0E3FA00BF18488078AE
:1069D000002816D100BF3148C07B00280CD000F041
:1069E00087FC0390124880789F239B002D4A0090DB
:1069F000AEA003990AF0CCFA00BF0020C04333B028
:106A0000F0BD0B48C0781C9000BF2448C07B002814
:106A10000DD000F06DFC03901C980523DB01214A8A
:106A2000009053E1C7E2C2E2F6E173E158E151E1BF
:106A30005C050020434C4F5345204F4B00000000A5
:106A400041542B434950434C4F53453D300D0000BA
:106A500053485554204F4B0041542B434950534801
:106A600055540D000D0A4F4B0D0A000041542B5395
:106A7000415042523D312C310D000000B80B000056
:106A80002B53415042523A20312C310041542B5368
:106A9000415042523D322C310D000000A402002032
:106AA00022020000BD2F01005236202573202573DD
:106AB0003A282564292073656E6420636D6420661E
:106AC00061696C2C6572726F722E0A0041542B46FC
:106AD00054504349443D310D0000000041542B46C1
:106AE0005450545950453D2249220D0041542B46E3
:106AF00054504D4F44453D300D00000041542B464D
:106B00005450534552563D222573220D000000007B
:106B100052362025732025733A2825642920736571
:106B200072763D25732E0A0041542B465450554E23
:106B30003D222573220D000041542B4654505057DE
:106B40003D222573220D000041542B4654504745E9
:106B500054504154483D222573220D0052362025C1
:106B6000732025733A282564292066747020676590
:106B70007420706174683D25732E0A0041542B46C1
:106B800054504745544E414D453D222573220D003A
:106B900052362025732025733A28256429206674EF
:106BA00070206765742066696C656E616D653D2552
:106BB000732E0A002B46545053495A453A000000A0
:106BC00041542B46545053495A450D002B465450BE
:106BD00053495A453A312C25642C00005236202561
:106BE000732025733A28256429206366697A653DF8
:106BF000302C206661696C2E0A0000005236202578
:106C0000732025733A282564292061742B667470DB
:106C100073697A65206661696C2E0A0052362025F8
:106C2000732025733A28256429206366697A653DB7
:106C300025642E0A000000002B4654504745543A64
:106C4000312C310041542B4654504745543D310DB1
:106C50000000000052362025732025733A28256451
:106C6000292063616C6C204770727353656E6443B6
:106C70006D6443686B4E6F5370616365206F6B2E5C
:106C80000A0000007FAA00000000014052362025C3
:106C9000732025733A282564292067657420616173
:106CA000203535206F6B2E0A00000000523620255B
:106CB000732025733A28256429206677436E743D36
:106CC00025642C6572726F722E0A0000CEA00399A3
:106CD0000AF05EF900BF1A98401CC0B21A9018E082
:106CE00000BFD448C07B00280FD000F001FB039008
:106CF000D1484078D0490978A1239B00CF4A009120
:106D00000190CFA003990AF043F900BF0020C043CF
:106D100075E64EE11A9801287ED1C749049104987E
:106D2000FBF710FB054604994879097906020E43E2
:106D3000CD49C868FBF7E3FACB490390C8680499CA
:106D4000891D039AFBF7E2FA002825D103201D9044
:106D50001A98401CC0B21A9000BFB648C07B0028E9
:106D60000AD000F0C5FAC14BB44A0146019600951D
:106D70000390BF480AF00CF900BF012040021990AF
:106D80002D20C00205902921C9020598FFF7E2F9DC
:106D900000201B90002458E0B349086AFBF7AFFAC3
:106DA000B1490390086A0499891D039AFBF7AEFA6A
:106DB000002834D108201D901A98401CC0B21A90A7
:106DC00000BF9C48C07B00280BD000F091FAA74B75
:106DD0000B339A4A0146019600950390A5480AF0A4
:106DE000D7F800BF0120400219900B2191481530BF
:106DF000FBF743FA0122FF2160318E48C038FFF7CC
:106E00004BFB2B2000030590512189020598FFF7C9
:106E1000A1F900201B9000E018E0002415E000BF5D
:106E20008448C07B00280CD000F062FA03900498DC
:106E3000801D8E4B2133814A00908FA003990AF068
:106E4000A7F800BF0020C043D9E5B2E000201890A9
:106E500009E079491898095C1B98081880B21B90C2
:106E60001898401C18901898B842F2DBE41900BF3B
:106E70007048C07B002813D064216143084629462E
:106E8000FBF788F9039000F033FA02900398774BF0
:106E900031336A4A0094019082A002990AF078F88E
:106EA00000BFBAB264490598FFF7E2F90598C01926
:106EB00005902F1B01204002874200DB00E038468E
:106EC00080B21990AC4273DB1B98864258D100BF48
:106ED0005848C07B00280BD000F00AFAB3239B006F
:106EE000564A014601960095039076480AF050F8FC
:106EF00000BF1D98032806D13146284600E06FE008
:106F000009F014FE39E04B4915312846FBF724FA05
:106F1000484815300671310A4171464915311C98AF
:106F2000887100BF4348C07B00280FD000F0E0F913
:106F300003904049153189791C984C4B44333F4AA2
:106F40000091019060A003990AF022F800BF0A2185
:106F50003848153000F0B2FC36491C310390FBF77D
:106F6000FBF9242133487630FBF787F90122FF2112
:106F700060313048C038FFF78FFA00201E9015E0CE
:106F800000BF2C48C07B00280CD000F0B1F9039062
:106F90001B98364B4D33294A0096019055A0039912
:106FA00009F0F6FF00BF0020C0431E9018E0FFE785
:106FB00000BFD6E413E000BF1E48C07B002809D004
:106FC00000F096F95D23DB001C4A0146039055A0B2
:106FD00009F0DEFF00BF0420C0431E9000E000BFA8
:106FE00000BF1448C07B00280BD000F081F903904B
:106FF0001E981E4B5B33114A009056A0039909F06E
:10700000C7FF00BF1E98FAE452362025732025736F
:107010003A2825642920C9FDBCB6B0FCB5C4B0E649
:10702000B1BEBAC52078364677566572203D202518
:10703000642E0A00A40200205C050020BD2F010080
:1070400052362025732025733A2825642920686547
:1070500061643D253032782C253032782C6572728F
:107060006F722E0A00000000100000209202000043
:10707000883B0100D03B0100523620257320257348
:107080003A28256429206677206E616D653D257359
:107090002C20B9CCBCFEC3FBD7D6B4EDCEF3212057
:1070A0002E0A000052362025732025733A282564C5
:1070B0002920746F74616C202564205B256425256C
:1070C0005D2E0A00343B01005236202573202573C3
:1070D0003A2825642920C9FDBCB6B0FC5836B0E674
:1070E000B1BEBAC55B25645D2C205B25645D2E0AAC
:1070F0000000000052362025732025733A282564AD
:107100002920636865636B73756D3D256420213D9F
:10711000206353756D3D25642C6572726F722E0A63
:107120000000000052362025732025733A2825647C
:10713000292063616C6C204770727353656E6443E1
:107140006D6443686B4E6F5370616365206661695F
:107150006C2E0A0052362025732025733A282564A8
:1071600029207265743D25642E0A0000FFB582B0A7
:107170000C4615461E460B9F684604808570C670F7
:1071800007716946029800F005FF06B0F0BD02469F
:10719000002013690B40002B01D0012000E00020EB
:1071A000704782690A438261704742690A434261BB
:1071B00070470000F8B50546002600243DE0002E8B
:1071C00002D0012E37D107E0285D0A2802D0285DC1
:1071D0000D2800D101262EE0285D30282ADB285D0D
:1071E000392827DC291914221748FBF78FF80028C3
:1071F0000DD0291914221448FBF726F80021124853
:1072000001750122FF2160318638FFF745F900BF83
:107210000D483A30C07B00280AD000F069F80746D4
:107220000948BF23094A3946009009A009F0B0FE79
:1072300000BFF8BD00BF00BF641C2846FBF75FF825
:10724000A042BCD800BFF4E76A0200204B31010025
:1072500052362025732025733A2825642920534966
:107260004D2069636369643A2025732E0A0000008B
:1072700010B504460822054920461130FAF7E4FF0C
:1072800008222146002006F05BFA10BDE80100202C
:1072900010B504460822054920461130FAF7D4FFFC
:1072A00008222146002006F04BFA10BD43030020BF
:1072B000FEB50B49C96808B2FBF7B6FA0446094A9D
:1072C000094BFBF749FA0022084B01910090FBF7AC
:1072D0003BFA0646FBF7BCFA00B202900298FEBDEC
:1072E00000E00040C7BAB88D06F0663F00002A40B3
:1072F00000B585B003A800F009FB6846817C427C9C
:10730000007C0192029100906846C37B827B03A1BE
:10731000094809F04DFE084805B000BD253032751A
:107320002D2530327520253032753A253032753AA8
:107330002530327500000000D4280020F0B591B04F
:107340000546402101A8FAF798FF00200090002789
:10735000402101A8FAF791FF2B46022226A101A89D
:1073600009F026FE7D23DB000122002101A800F0A8
:1073700005FD0A200BF084FA34E0244824494860D3
:107380004121C9002348FAF778FF7D23DB001E2244
:107390002049032009F0D6F9002400260CE01D48FE
:1073A000005D202806D01B48025D3046711C8EB25D
:1073B00018490A54601C84B21648FAF7A0FFA0428C
:1073C000EDD800201349885513A11248FAF76CFF35
:1073D000002807D0002210A10E480AF001FE80B25A
:1073E000009004E03846791CCFB21428C5DB00BFFA
:1073F000009811B0F0BD000041542B465450474551
:10740000543D25642C25640D000000007FAA000077
:10741000000001405C0500202B4654504745543A7B
:10742000322C000010B504460021A1740821E1743B
:107430000921217504222146002006F081F910BDA2
:10744000FEB506460F4600242BE018481849486050
:107450007D252D0122E002A9032009F065F900280D
:1074600005D16846027A2046641C325418E0681E32
:107470000546032812DA00BF0E48C07B00280AD058
:10748000FFF736FFFF237A330B4A01460095019040
:107490000AA009F07DFD00BF2046FEBD002DDAD117
:1074A00000BFBC42D1DB2046F7E700007FAA000006
:1074B00000000140A4020020853101005236202541
:1074C000732025733A282564292074696D654F75EA
:1074D000743D25642C676574206461746120657255
:1074E000726F722E0A00000001464800401C70476F
:1074F0007CB52E4C607821780002084301214902B6
:10750000884207DCE078A1780002084301214902A3
:10751000884225DD00BF25486438C07B002813D091
:10752000FFF7E6FE0646E078A178000201436078A6
:10753000227800021043FF23ED331D4A0191009091
:1075400031461C4809F024FD00BF00202070607007
:10755000A070E0700122FF2160311748FEF79CFF08
:107560006078217800020843E178A278090211438B
:1075700088420BDB6078217800020843E178A2782A
:1075800009021143401A401C85B20DE06078217851
:1075900000020843FF30FF300230E178A278090290
:1075A0001143401A401C85B228467CBD08030020C8
:1075B0000A330100B0410100E4010020FEB5074696
:1075C00000260124384600F0D3F9C5B200246FE04C
:1075D000A00067490A580A2060436649401880881D
:1075E000824216D00A20604340188088A100604A79
:1075F000505000F071F9A1005F4A505001215D48E0
:107600009230C173A0005A490A5821465BA009F084
:10761000BFFC00F061F9A100574A5158401AFF2100
:107620002D31884213D900BF5E48C07B002809D0A5
:10763000FFF75EFED4235C4A0146009402905BA0F3
:1076400009F0A6FC00BF00214A489230C17355489A
:107650007630005D002815D146489230C07B012865
:1076600010D100BF4F48C07B002808D0FFF740FE74
:10767000DA234D4A0146029058A009F089FC00BF68
:10768000701CC6B200BF4748C07B00280DD0FFF772
:107690002FFE029043487630005DDD23424A00947D
:1076A000019055A0029909F073FC00BF601CC4B2A0
:1076B000AC428DDB3B482030C179681C814214D13B
:1076C00038487630405D01280FD100BF3548C07B77
:1076D000002808D0FFF70CFEE423334A014602904D
:1076E0004DA009F055FC00BF01262E482030C0797E
:1076F000012816DD002D14D12A486030807D012834
:107700000FD100BF2748C07B002808D0FFF7F0FD4D
:10771000EA23254A0146029046A009F039FC00BF41
:10772000012620487630405D01280FD100BF1D485A
:10773000C07B002808D0FFF7DBFDEF231A4A014683
:10774000029043A009F024FC00BF012600BF1548A9
:10775000C07B002809D0FFF7CBFDF223124A014677
:107760000096029041A009F013FC00BF3046FEBD18
:10777000740E002072070020440E0020BDDAB5E32D
:107780005B307825785D2C2078365F7061636B61A3
:1077900067655F6E756D5B496E6465785D203D2041
:1077A00025640A00A40200204A3201005236202536
:1077B000732025733A28256429205B307825785D6D
:1077C000BDDAB5E335B7D6D6D3C3BBD3D0CAD5B5AA
:1077D000BD5836CAFDBEDD0A000000005236202525
:1077E000732025733A28256429206E6F6465496EDD
:1077F0006465783434340A005236202573202573AA
:107800003A28256429205B307825785D2C205B3070
:107810007825785D0A0000005236202573202573F4
:107820003A28256429206E6F6465496E6465783155
:1078300031310A0052362025732025733A282564F9
:1078400029206E6F6465496E6465783333330A00AE
:1078500052362025732025733A28256429206E6F1F
:107860006465496E6465783535350A0052362025E1
:10787000732025733A2825642920B7B5BBD8B1EA0F
:10788000D6BE72657475726E466C6167203D205B72
:10789000307825785D0A000070B50446254611351C
:1078A00008220549681CFAF7CFFC0922214600206E
:1078B00005F046FF70BD00001203002010B502461F
:1078C0000B460020002103E0545C2418E0B2491C60
:1078D0009942F9DB10BD00000148006870470000C4
:1078E0007C00002070B50446FFF7F6FF0546280E21
:1078F00060742802010EA1742804010EE17425753C
:1079000004222146002005F01BFF70BD01460846F9
:107910000122164BDA6300BF144AD26BD207D20F92
:10792000002AF9D1114A126B5207520F02700F4A06
:10793000D26A5206520E42700C4A926A1207120F15
:1079400082700A4A526AD206D20EC270074A126A7E
:10795000D206D20E0271054AD2699206920E427187
:10796000024A92699206920E8271704700C00040EE
:107970000146481E4010704700B58DB02C2102A86A
:10798000FAF77BFC6846FFF7C1FF6846007808906D
:10799000684640786430079068468078401E0690BC
:1079A0006846C078059068460079083804906846B3
:1079B0004079039068468079029002A8FAF7FEFBAE
:1079C0000DB000BDF7B586B0064617460025002469
:1079D000601E04904121C9004B48FAF74EFC00207C
:1079E000039089E032200AF04BFF22E06846007DD8
:1079F00000281ED04120C000844206D26846027D85
:107A00002046641C40490A5413E000BF3F48C07B35
:107A100000280CD0FFF76CFC02904120C0006A23C4
:107A20003B4A009401903BA0029909F0B1FA00BFD3
:107A300005E005A9032008F077FE0028D6D000BF96
:107A400031480799FAF730FC0546002D39D000205F
:107A50000490002E34D03DA13046FAF725FC0028D2
:107A600025D03CA12848FAF71FFC0546002D1ED062
:107A7000681DFAF7B2FD39490870A81DFAF7ADFD87
:107A8000C0B2059000BF2148C07B00280ED0FFF790
:107A90002FFC02906846007D304909787B231C4A00
:107AA000009101902EA0029909F072FA00BF37A14F
:107AB0003046FAF7F9FB002802D01348FFF77AFBAB
:107AC0001EE03448844213D300BF1048C07B002816
